{
  "_format": "hh-sol-artifact-1",
  "contractName": "TokenUpgrader",
  "sourceName": "contracts/TokenUpgrader.sol",
  "abi": [
    {
      "inputs": [],
      "stateMutability": "nonpayable",
      "type": "constructor"
    },
    {
      "inputs": [
        {
          "internalType": "address",
          "name": "owner",
          "type": "address"
        }
      ],
      "name": "OwnableInvalidOwner",
      "type": "error"
    },
    {
      "inputs": [
        {
          "internalType": "address",
          "name": "account",
          "type": "address"
        }
      ],
      "name": "OwnableUnauthorizedAccount",
      "type": "error"
    },
    {
      "anonymous": false,
      "inputs": [
        {
          "indexed": true,
          "internalType": "address",
          "name": "previousOwner",
          "type": "address"
        },
        {
          "indexed": true,
          "internalType": "address",
          "name": "newOwner",
          "type": "address"
        }
      ],
      "name": "OwnershipTransferred",
      "type": "event"
    },
    {
      "anonymous": false,
      "inputs": [
        {
          "indexed": true,
          "internalType": "address",
          "name": "tokenAddress",
          "type": "address"
        },
        {
          "indexed": true,
          "internalType": "address",
          "name": "newImplementation",
          "type": "address"
        }
      ],
      "name": "TokenUpgraded",
      "type": "event"
    },
    {
      "inputs": [],
      "name": "owner",
      "outputs": [
        {
          "internalType": "address",
          "name": "",
          "type": "address"
        }
      ],
      "stateMutability": "view",
      "type": "function"
    },
    {
      "inputs": [],
      "name": "renounceOwnership",
      "outputs": [],
      "stateMutability": "nonpayable",
      "type": "function"
    },
    {
      "inputs": [
        {
          "internalType": "address",
          "name": "newOwner",
          "type": "address"
        }
      ],
      "name": "transferOwnership",
      "outputs": [],
      "stateMutability": "nonpayable",
      "type": "function"
    },
    {
      "inputs": [
        {
          "internalType": "address",
          "name": "tokenAddress",
          "type": "address"
        },
        {
          "internalType": "address",
          "name": "newOwner",
          "type": "address"
        }
      ],
      "name": "transferTokenOwnership",
      "outputs": [],
      "stateMutability": "nonpayable",
      "type": "function"
    },
    {
      "inputs": [
        {
          "internalType": "address",
          "name": "tokenAddress",
          "type": "address"
        },
        {
          "internalType": "address",
          "name": "newImplementation",
          "type": "address"
        }
      ],
      "name": "upgradeToken",
      "outputs": [],
      "stateMutability": "nonpayable",
      "type": "function"
    }
  ],
  "bytecode": "0x6080604052348015600f57600080fd5b503380603557604051631e4fbdf760e01b81526000600482015260240160405180910390fd5b603c816041565b506091565b600080546001600160a01b038381166001600160a01b0319831681178455604051919092169283917f8be0079c531659141344cd1fd0a4f28419497f9722a3daafe3b4186f6b6457e09190a35050565b61076a806100a06000396000f3fe608060405234801561001057600080fd5b50600436106100575760003560e01c8063383fe4671461005c57806355b8ce0a14610071578063715018a6146100845780638da5cb5b1461008c578063f2fde38b146100ab575b600080fd5b61006f61006a3660046105a9565b6100be565b005b61006f61007f3660046105a9565b61025f565b61006f6104c5565b600054604080516001600160a01b039092168252519081900360200190f35b61006f6100b93660046105e2565b6104d9565b6100c6610517565b6001600160a01b0382166100f55760405162461bcd60e51b81526004016100ec90610606565b60405180910390fd5b6001600160a01b03811661015b5760405162461bcd60e51b815260206004820152602760248201527f546f6b656e55706772616465723a206e6577206f776e65722063616e6e6f74206044820152666265207a65726f60c81b60648201526084016100ec565b6000829050806001600160a01b0316638da5cb5b6040518163ffffffff1660e01b8152600401602060405180830381865afa9250505080156101ba575060408051601f3d908101601f191682019092526101b791810190610651565b60015b6101d65760405162461bcd60e51b81526004016100ec9061066e565b6001600160a01b03811630146101fe5760405162461bcd60e51b81526004016100ec906106bc565b5060405163f2fde38b60e01b81526001600160a01b03838116600483015282169063f2fde38b90602401600060405180830381600087803b15801561024257600080fd5b505af1158015610256573d6000803e3d6000fd5b50505050505050565b610267610517565b6001600160a01b03821661028d5760405162461bcd60e51b81526004016100ec90610606565b6001600160a01b0381166102fc5760405162461bcd60e51b815260206004820152603060248201527f546f6b656e55706772616465723a206e657720696d706c656d656e746174696f60448201526f6e2063616e6e6f74206265207a65726f60801b60648201526084016100ec565b816001600160a01b0316638da5cb5b6040518163ffffffff1660e01b8152600401602060405180830381865afa925050508015610356575060408051601f3d908101601f1916820190925261035391810190610651565b60015b6103725760405162461bcd60e51b81526004016100ec9061066e565b6001600160a01b038116301461039a5760405162461bcd60e51b81526004016100ec906106bc565b506040516001600160a01b0382811660248301526000919084169060440160408051601f198184030181529181526020820180516001600160e01b0316631b2ce7f360e11b179052516103ed9190610705565b6000604051808303816000865af19150503d806000811461042a576040519150601f19603f3d011682016040523d82523d6000602084013e61042f565b606091505b50509050806104805760405162461bcd60e51b815260206004820152601d60248201527f546f6b656e55706772616465723a2075706772616465206661696c656400000060448201526064016100ec565b816001600160a01b0316836001600160a01b03167fcd23a18833879e1f289f88200345417e6288fcb73ad4cdfdbf7759d735444ae560405160405180910390a3505050565b6104cd610517565b6104d76000610544565b565b6104e1610517565b6001600160a01b03811661050b57604051631e4fbdf760e01b8152600060048201526024016100ec565b61051481610544565b50565b6000546001600160a01b031633146104d75760405163118cdaa760e01b81523360048201526024016100ec565b600080546001600160a01b038381166001600160a01b0319831681178455604051919092169283917f8be0079c531659141344cd1fd0a4f28419497f9722a3daafe3b4186f6b6457e09190a35050565b6001600160a01b038116811461051457600080fd5b600080604083850312156105bc57600080fd5b82356105c781610594565b915060208301356105d781610594565b809150509250929050565b6000602082840312156105f457600080fd5b81356105ff81610594565b9392505050565b6020808252602b908201527f546f6b656e55706772616465723a20746f6b656e20616464726573732063616e60408201526a6e6f74206265207a65726f60a81b606082015260800190565b60006020828403121561066357600080fd5b81516105ff81610594565b6020808252602e908201527f546f6b656e55706772616465723a206661696c656420746f20636865636b207460408201526d06f6b656e206f776e6572736869760941b606082015260800190565b60208082526029908201527f546f6b656e55706772616465723a206e6f7420746865206f776e6572206f66206040820152683a3432903a37b5b2b760b91b606082015260800190565b6000825160005b81811015610726576020818601810151858301520161070c565b50600092019182525091905056fea264697066735822122040d70e8e2cd6fa929eacb81a31b9cf81dab772273f2663e182049e610a01aab164736f6c634300081d0033",
  "linkReferences": {},
  "deployedLinkReferences": {}
}