{
  "_format": "hh-sol-artifact-1",
  "contractName": "AirdropController",
  "sourceName": "contracts/AirdropController.sol",
  "abi": [
    {
      "inputs": [
        {
          "internalType": "address",
          "name": "initialOwner",
          "type": "address"
        }
      ],
      "stateMutability": "nonpayable",
      "type": "constructor"
    },
    {
      "inputs": [],
      "name": "AirdropNotActive",
      "type": "error"
    },
    {
      "inputs": [],
      "name": "AlreadyClaimed",
      "type": "error"
    },
    {
      "inputs": [],
      "name": "BatchSizeTooLarge",
      "type": "error"
    },
    {
      "inputs": [],
      "name": "ECDSAInvalidSignature",
      "type": "error"
    },
    {
      "inputs": [
        {
          "internalType": "uint256",
          "name": "length",
          "type": "uint256"
        }
      ],
      "name": "ECDSAInvalidSignatureLength",
      "type": "error"
    },
    {
      "inputs": [
        {
          "internalType": "bytes32",
          "name": "s",
          "type": "bytes32"
        }
      ],
      "name": "ECDSAInvalidSignatureS",
      "type": "error"
    },
    {
      "inputs": [],
      "name": "EnforcedPause",
      "type": "error"
    },
    {
      "inputs": [],
      "name": "ExpectedPause",
      "type": "error"
    },
    {
      "inputs": [],
      "name": "InvalidAddress",
      "type": "error"
    },
    {
      "inputs": [],
      "name": "InvalidSignature",
      "type": "error"
    },
    {
      "inputs": [],
      "name": "InvalidTimeRange",
      "type": "error"
    },
    {
      "inputs": [],
      "name": "NotRegistered",
      "type": "error"
    },
    {
      "inputs": [
        {
          "internalType": "address",
          "name": "owner",
          "type": "address"
        }
      ],
      "name": "OwnableInvalidOwner",
      "type": "error"
    },
    {
      "inputs": [
        {
          "internalType": "address",
          "name": "account",
          "type": "address"
        }
      ],
      "name": "OwnableUnauthorizedAccount",
      "type": "error"
    },
    {
      "inputs": [],
      "name": "ReentrancyGuardReentrantCall",
      "type": "error"
    },
    {
      "inputs": [
        {
          "internalType": "address",
          "name": "token",
          "type": "address"
        }
      ],
      "name": "SafeERC20FailedOperation",
      "type": "error"
    },
    {
      "inputs": [],
      "name": "TokenNotExists",
      "type": "error"
    },
    {
      "inputs": [],
      "name": "Unauthorized",
      "type": "error"
    },
    {
      "anonymous": false,
      "inputs": [
        {
          "indexed": false,
          "internalType": "uint256",
          "name": "endTime",
          "type": "uint256"
        }
      ],
      "name": "AirdropEnded",
      "type": "event"
    },
    {
      "anonymous": false,
      "inputs": [
        {
          "indexed": false,
          "internalType": "bool",
          "name": "isPaused",
          "type": "bool"
        }
      ],
      "name": "AirdropPaused",
      "type": "event"
    },
    {
      "anonymous": false,
      "inputs": [
        {
          "indexed": false,
          "internalType": "uint256",
          "name": "startTime",
          "type": "uint256"
        }
      ],
      "name": "AirdropStarted",
      "type": "event"
    },
    {
      "anonymous": false,
      "inputs": [
        {
          "indexed": true,
          "internalType": "address",
          "name": "user",
          "type": "address"
        },
        {
          "indexed": false,
          "internalType": "uint256",
          "name": "tokenId",
          "type": "uint256"
        }
      ],
      "name": "NFTMinted",
      "type": "event"
    },
    {
      "anonymous": false,
      "inputs": [
        {
          "indexed": true,
          "internalType": "address",
          "name": "previousOwner",
          "type": "address"
        },
        {
          "indexed": true,
          "internalType": "address",
          "name": "newOwner",
          "type": "address"
        }
      ],
      "name": "OwnershipTransferred",
      "type": "event"
    },
    {
      "anonymous": false,
      "inputs": [
        {
          "indexed": false,
          "internalType": "address",
          "name": "account",
          "type": "address"
        }
      ],
      "name": "Paused",
      "type": "event"
    },
    {
      "anonymous": false,
      "inputs": [
        {
          "indexed": true,
          "internalType": "address",
          "name": "user",
          "type": "address"
        },
        {
          "indexed": false,
          "internalType": "uint256",
          "name": "amount",
          "type": "uint256"
        }
      ],
      "name": "RewardBonusAdded",
      "type": "event"
    },
    {
      "anonymous": false,
      "inputs": [
        {
          "indexed": true,
          "internalType": "address",
          "name": "rewardRegistry",
          "type": "address"
        }
      ],
      "name": "RewardRegistryUpdated",
      "type": "event"
    },
    {
      "anonymous": false,
      "inputs": [
        {
          "indexed": true,
          "internalType": "address",
          "name": "signer",
          "type": "address"
        }
      ],
      "name": "SignerUpdated",
      "type": "event"
    },
    {
      "anonymous": false,
      "inputs": [
        {
          "indexed": true,
          "internalType": "address",
          "name": "user",
          "type": "address"
        },
        {
          "indexed": false,
          "internalType": "uint256",
          "name": "amount",
          "type": "uint256"
        },
        {
          "indexed": false,
          "internalType": "uint256",
          "name": "bonus",
          "type": "uint256"
        }
      ],
      "name": "TokensAllocated",
      "type": "event"
    },
    {
      "anonymous": false,
      "inputs": [
        {
          "indexed": false,
          "internalType": "address",
          "name": "account",
          "type": "address"
        }
      ],
      "name": "Unpaused",
      "type": "event"
    },
    {
      "inputs": [
        {
          "internalType": "address",
          "name": "user",
          "type": "address"
        },
        {
          "internalType": "uint256",
          "name": "amount",
          "type": "uint256"
        }
      ],
      "name": "addBonusPoints",
      "outputs": [],
      "stateMutability": "nonpayable",
      "type": "function"
    },
    {
      "inputs": [],
      "name": "airdropStartTime",
      "outputs": [
        {
          "internalType": "uint256",
          "name": "",
          "type": "uint256"
        }
      ],
      "stateMutability": "view",
      "type": "function"
    },
    {
      "inputs": [
        {
          "internalType": "address[]",
          "name": "users",
          "type": "address[]"
        }
      ],
      "name": "batchMintNFTs",
      "outputs": [],
      "stateMutability": "nonpayable",
      "type": "function"
    },
    {
      "inputs": [
        {
          "internalType": "address",
          "name": "user",
          "type": "address"
        },
        {
          "internalType": "bytes",
          "name": "signature",
          "type": "bytes"
        }
      ],
      "name": "claimAirdrop",
      "outputs": [],
      "stateMutability": "nonpayable",
      "type": "function"
    },
    {
      "inputs": [],
      "name": "getAirdropStatus",
      "outputs": [
        {
          "internalType": "bool",
          "name": "isActive",
          "type": "bool"
        },
        {
          "internalType": "bool",
          "name": "isPaused",
          "type": "bool"
        },
        {
          "internalType": "uint256",
          "name": "startTime",
          "type": "uint256"
        }
      ],
      "stateMutability": "view",
      "type": "function"
    },
    {
      "inputs": [],
      "name": "getTotalMinted",
      "outputs": [
        {
          "internalType": "uint256",
          "name": "",
          "type": "uint256"
        }
      ],
      "stateMutability": "view",
      "type": "function"
    },
    {
      "inputs": [
        {
          "internalType": "address",
          "name": "user",
          "type": "address"
        }
      ],
      "name": "getUserRewardBonus",
      "outputs": [
        {
          "internalType": "uint256",
          "name": "",
          "type": "uint256"
        }
      ],
      "stateMutability": "view",
      "type": "function"
    },
    {
      "inputs": [
        {
          "internalType": "address",
          "name": "",
          "type": "address"
        }
      ],
      "name": "hasClaimed",
      "outputs": [
        {
          "internalType": "bool",
          "name": "",
          "type": "bool"
        }
      ],
      "stateMutability": "view",
      "type": "function"
    },
    {
      "inputs": [
        {
          "internalType": "address",
          "name": "_registry",
          "type": "address"
        },
        {
          "internalType": "address",
          "name": "_profile",
          "type": "address"
        },
        {
          "internalType": "address",
          "name": "_token",
          "type": "address"
        }
      ],
      "name": "initialize",
      "outputs": [],
      "stateMutability": "nonpayable",
      "type": "function"
    },
    {
      "inputs": [
        {
          "internalType": "address",
          "name": "user",
          "type": "address"
        }
      ],
      "name": "mintNFTForUser",
      "outputs": [
        {
          "internalType": "uint256",
          "name": "",
          "type": "uint256"
        }
      ],
      "stateMutability": "nonpayable",
      "type": "function"
    },
    {
      "inputs": [],
      "name": "owner",
      "outputs": [
        {
          "internalType": "address",
          "name": "",
          "type": "address"
        }
      ],
      "stateMutability": "view",
      "type": "function"
    },
    {
      "inputs": [],
      "name": "pauseAirdrop",
      "outputs": [],
      "stateMutability": "nonpayable",
      "type": "function"
    },
    {
      "inputs": [],
      "name": "paused",
      "outputs": [
        {
          "internalType": "bool",
          "name": "",
          "type": "bool"
        }
      ],
      "stateMutability": "view",
      "type": "function"
    },
    {
      "inputs": [],
      "name": "profile",
      "outputs": [
        {
          "internalType": "address",
          "name": "",
          "type": "address"
        }
      ],
      "stateMutability": "view",
      "type": "function"
    },
    {
      "inputs": [],
      "name": "registry",
      "outputs": [
        {
          "internalType": "address",
          "name": "",
          "type": "address"
        }
      ],
      "stateMutability": "view",
      "type": "function"
    },
    {
      "inputs": [],
      "name": "renounceOwnership",
      "outputs": [],
      "stateMutability": "nonpayable",
      "type": "function"
    },
    {
      "inputs": [],
      "name": "rewardRegistry",
      "outputs": [
        {
          "internalType": "address",
          "name": "",
          "type": "address"
        }
      ],
      "stateMutability": "view",
      "type": "function"
    },
    {
      "inputs": [
        {
          "internalType": "uint256",
          "name": "startTime",
          "type": "uint256"
        }
      ],
      "name": "setAirdropStartTime",
      "outputs": [],
      "stateMutability": "nonpayable",
      "type": "function"
    },
    {
      "inputs": [
        {
          "internalType": "address",
          "name": "_rewardRegistry",
          "type": "address"
        }
      ],
      "name": "setRewardRegistry",
      "outputs": [],
      "stateMutability": "nonpayable",
      "type": "function"
    },
    {
      "inputs": [
        {
          "internalType": "address",
          "name": "_signer",
          "type": "address"
        }
      ],
      "name": "setSigner",
      "outputs": [],
      "stateMutability": "nonpayable",
      "type": "function"
    },
    {
      "inputs": [],
      "name": "signer",
      "outputs": [
        {
          "internalType": "address",
          "name": "",
          "type": "address"
        }
      ],
      "stateMutability": "view",
      "type": "function"
    },
    {
      "inputs": [],
      "name": "token",
      "outputs": [
        {
          "internalType": "address",
          "name": "",
          "type": "address"
        }
      ],
      "stateMutability": "view",
      "type": "function"
    },
    {
      "inputs": [],
      "name": "totalMinted",
      "outputs": [
        {
          "internalType": "uint256",
          "name": "",
          "type": "uint256"
        }
      ],
      "stateMutability": "view",
      "type": "function"
    },
    {
      "inputs": [
        {
          "internalType": "address",
          "name": "newOwner",
          "type": "address"
        }
      ],
      "name": "transferOwnership",
      "outputs": [],
      "stateMutability": "nonpayable",
      "type": "function"
    },
    {
      "inputs": [],
      "name": "unpauseAirdrop",
      "outputs": [],
      "stateMutability": "nonpayable",
      "type": "function"
    },
    {
      "inputs": [
        {
          "internalType": "address",
          "name": "user",
          "type": "address"
        },
        {
          "internalType": "bytes",
          "name": "signature",
          "type": "bytes"
        }
      ],
      "name": "verifySignature",
      "outputs": [
        {
          "internalType": "bool",
          "name": "",
          "type": "bool"
        }
      ],
      "stateMutability": "view",
      "type": "function"
    }
  ],
  "bytecode": "0x6080346100f357601f611a3838819003918201601f19168301916001600160401b038311848410176100f8578084926020946040528339810103126100f357516001600160a01b03808216918290036100f35781156100da576000548260018060a01b0319821617600055167f8be0079c531659141344cd1fd0a4f28419497f9722a3daafe3b4186f6b6457e0600080a360018055600160ff1960025416176002557f62e78cea01bee320cd4e420270b5ea74000d11b0c9f74754ebdbfc544b05a2586020604051338152a1604051611929908161010f8239f35b604051631e4fbdf760e01b815260006004820152602490fd5b600080fd5b634e487b7160e01b600052604160045260246000fdfe6040608081526004908136101561001557600080fd5b600091823560e01c806309b08dd814610c625780630ca1c5c9146108db578063238ac93314610c39578063258c1ef514610c1457806340306fb614610bf55780635b1fad3314610b885780635c975abb14610b645780636c19e78314610aea578063715018a614610a8d578063735f43d214610a5557806373b2e80e14610a175780637b103999146109ea5780637d7f981d146109b15780637eb1ae8e1461094b57806389f804b6146109225780638da5cb5b146108fa578063a2309ff8146108db578063ab60636c146108b2578063ab6ecf681461048d578063c0c53b8b146103c3578063c6afd5bb1461033f578063c9dd3d6d14610307578063d58a9cd114610280578063e96ad3ad146101ef578063f2fde38b146101695763fc0c546a1461013f57600080fd5b346101655782600319360112610165575490516001600160a01b03909116815260209150f35b8280fd5b503461016557602036600319011261016557610183611097565b9061018c611768565b6001600160a01b039182169283156101d957505082546001600160a01b0319811683178455167f8be0079c531659141344cd1fd0a4f28419497f9722a3daafe3b4186f6b6457e08380a380f35b51631e4fbdf760e01b8152908101849052602490fd5b5034610165578260031936011261016557610208611768565b6002549060ff82161561027257507f68d5a6e71396e83b091aa9f07711b8ea1a0cca34705622d3a474b878ef2583899160209160ff19166002557f5db9ee0a495bf2e6ff9c91a7834c1ba4fdd244a5e8aa4e537bd38aeae4b073aa828251338152a151838152a180f35b8251638dfc202b60e01b8152fd5b5034610165578160031936011261016557610299611097565b600654602435926001600160a01b039291831633036102fa5750916020917faccb23536d498a0a5eda5e2d5544fc6e63aef3092849521286172455dfc0a300931693848652600a83528086206102f083825461175b565b905551908152a280f35b84516282b42960e81b8152fd5b50503461033b578160031936011261033b5760609060075460ff600254169180519282421015845215156020840152820152f35b5080fd5b50503461033b578160031936011261033b5760207f68d5a6e71396e83b091aa9f07711b8ea1a0cca34705622d3a474b878ef2583899161037d611768565b6103856117b7565b600160ff1960025416176002557f62e78cea01bee320cd4e420270b5ea74000d11b0c9f74754ebdbfc544b05a258828251338152a15160018152a180f35b509034610165576060366003190112610165576103de611097565b6001600160a01b039160243583811692919083900361048957604435938085168095036104855761040d611768565b821615801561047d575b8015610475575b610466575060028054610100600160a81b03191660089290921b610100600160a81b0316919091179055600380546001600160a01b0319908116909217905582541617905580f35b5163e6c4247b60e01b81528490fd5b50831561041e565b508215610417565b8680fd5b8580fd5b5082903461033b5761049e366110b2565b6104ac959295939193611794565b6104b46117b7565b60075442106108a3576001600160a01b0386811694909290338603610895578587526020926009845260ff868920541661088557908392918560025460081c1687519485809263c3c5a54760e01b82528b8783015260249788915afa90811561087b578a91610842575b501561083257856003541691875163a787c80b60e01b8152898582015286818781875afa908115610828578b916107ef575b50156107e05790610561918b61131b565b156107d15785516309959fbb60e21b81528281018890529084828581845afa9182156107925790849392918a9261079c575b5060809088519586809263cb33fad160e01b825285878301525afa938415610792578994610709575b50878952600a855286892054998451966105e48c6105df8989019a8b519061175b565b61175b565b928a8c5260098852898c20600160ff19825416179055816003541690813b15610705578c918783928d51948593849263d505b67560e01b84528b8401525af180156106fb576106688d938a959361065a936106ec575b50875416958c519283918783019563a9059cbb60e01b87528b84016112db565b03601f19810183528261118c565b519082855af1156106e25788513d6106d95750803b155b6106c7575050507f4885d73252b9e2c420b677d64d50e8a5798773dbb4cb99c5a2ab2824f725d9a89495966106b69151935161175b565b908351928352820152a26001805580f35b8651635274afe760e01b815291820152fd5b6001141561067f565b86513d8a823e3d90fd5b6106f590611148565b3861063a565b8a513d8e823e3d90fd5b8c80fd5b9093506080813d60801161078a575b816107256080938361118c565b8101031261078657865190608082018281106001600160401b038211176107745788528051825285810151868301526060906107628982016111ad565b8984015201516060820152928a6105bc565b634e487b7160e01b8b5260418452848bfd5b8880fd5b3d9150610718565b87513d8b823e3d90fd5b8680929495508193503d83116107ca575b6107b7818361118c565b8101031261078657518392916080610593565b503d6107ad565b508451638baa579f60e01b8152fd5b8751626f708760e21b81528490fd5b90508681813d8311610821575b610806818361118c565b8101031261081d57610817906111ad565b8c610550565b8a80fd5b503d6107fc565b89513d8d823e3d90fd5b865163aba4733960e01b81528390fd5b90508581813d8311610874575b610859818361118c565b810103126108705761086a906111ad565b8b61051e565b8980fd5b503d61084f565b88513d8c823e3d90fd5b8551630c8d9eab60e31b81528390fd5b5083516282b42960e81b8152fd5b509051631e232a8760e31b8152fd5b50503461033b578160031936011261033b5760035490516001600160a01b039091168152602090f35b50503461033b578160031936011261033b576020906008549051908152f35b50503461033b578160031936011261033b57905490516001600160a01b039091168152602090f35b50503461033b578160031936011261033b5760065490516001600160a01b039091168152602090f35b50903461016557602036600319011261016557813591610969611768565b428311156109a35750816020917fff6804314fdea3ae59672164589a4f400b16ef5d59647af5fdca0c1c7809c3cc9360075551908152a180f35b905163536a71af60e01b8152fd5b50503461033b57602036600319011261033b576020906109df6109d2611097565b6109da611794565b6113fb565b906001805551908152f35b50503461033b578160031936011261033b57600254905160089190911c6001600160a01b03168152602090f35b50503461033b57602036600319011261033b5760209160ff9082906001600160a01b03610a42611097565b1681526009855220541690519015158152f35b50503461033b57602036600319011261033b5760209181906001600160a01b03610a7d611097565b168152600a845220549051908152f35b8334610ae75780600319360112610ae757610aa6611768565b80546001600160a01b03198116825581906001600160a01b03167f8be0079c531659141344cd1fd0a4f28419497f9722a3daafe3b4186f6b6457e08280a380f35b80fd5b503461016557602036600319011261016557610b04611097565b610b0c611768565b6001600160a01b0316918215610b57575050600580546001600160a01b031916821790557f5553331329228fbd4123164423717a4a7539f6dfa1c3279a923b98fd681a6c738280a280f35b5163e6c4247b60e01b8152fd5b50503461033b578160031936011261033b5760209060ff6002541690519015158152f35b503461016557602036600319011261016557610ba2611097565b610baa611768565b6001600160a01b0316918215610b57575050600680546001600160a01b031916821790557f460ef63b4c51604585efa3cb5d5b87c300f7a671bcc5e31c480d132b53f53b3c8280a280f35b50503461033b578160031936011261033b576020906007549051908152f35b50503461033b57602090610c30610c2a366110b2565b9161131b565b90519015158152f35b50503461033b578160031936011261033b5760055490516001600160a01b039091168152602090f35b50346101655760209081600319360112611009578035926001600160401b038085116104895736602386011215610489578483013590811161048957602494858101908636918460051b01011161048557610cbb611768565b610cc3611794565b6101f4821161108857865b828110610cdd57876001805580f35b6001600160a01b0380610cf9610cf484878761110e565b611134565b161561107e5760028054908a83600893841c16848b8d610d1d610cf48a8d8d61110e565b8c5163c3c5a54760e01b81529316838e0152829081855afa90811561107457918c8b8f8e8c958e978991611032575b501561101e57908a939291610d6b610cf48e60039a888c54169a61110e565b925194859363a787c80b60e01b8552169083015281865afa908115611014578f91928c8f979695948f93908e918991610fce575b50610fb95791610db7610cf48e8e96948b989661110e565b915198899485936301871bf560e71b855216908301525afa938415610faf57878f8f928f9a9998979695948f918f8f8f928a9b610f7b575b50899392610e0092610cf49261110e565b92519c8d958694632b39b08560e01b865216908401525af1968715610f71578297610f42575b5085608091541692015191803b1561033b578d8c8389938e519687958694631499168d60e31b86528501526064809585015260448401525af18015610f385790849291610f29575b5054821c168b610e82610cf4878a8a61110e565b823b1561033b57610eab928691838d8d5196879586948593631da5789f60e31b855284016112db565b03925af18015610f1f57927f4cc0a9c4a99ddc700de1af2c9f916a7cbfdb71f14801ccff94061ad1ef8a8040928b926001979695610f10575b50610eef81546112f6565b9055610eff610cf4868a8a61110e565b16928851908152a201935b93610cce565b610f1990611148565b38610ee4565b88513d8e823e3d90fd5b610f3290611148565b38610e6e565b89513d8f823e3d90fd5b9096508c81813d8311610f6a575b610f5a818361118c565b8101031261033b57519585610e26565b503d610f50565b8b513d84823e3d90fd5b610cf4919b5092610e0092610fa38c96953d8089833e610f9b818361118c565b810190611238565b9c925092509293610def565b8b513d85823e3d90fd5b50505050505050505050505060010193610f0a565b99505050509150508d85813d831161100d575b610feb818361118c565b81010312611009578b8f918c8f976110038e916111ad565b38610d9f565b8380fd5b503d610fe1565b8c513d87823e3d90fd5b505050505050505050505060010193610f0a565b96505050505090925081813d831161106d575b61104f818361118c565b810103126101655788918c8b8f8e6110678d966111ad565b38610d4c565b503d611045565b8a513d85823e3d90fd5b5060010193610f0a565b505051631e80759560e21b8152fd5b600435906001600160a01b03821682036110ad57565b600080fd5b60406003198201126110ad576004356001600160a01b03811681036110ad57916024356001600160401b03928382116110ad57806023830112156110ad5781600401359384116110ad57602484830101116110ad576024019190565b919081101561111e5760051b0190565b634e487b7160e01b600052603260045260246000fd5b356001600160a01b03811681036110ad5790565b6001600160401b03811161115b57604052565b634e487b7160e01b600052604160045260246000fd5b606081019081106001600160401b0382111761115b57604052565b90601f801991011681019081106001600160401b0382111761115b57604052565b519081151582036110ad57565b6001600160401b03811161115b57601f01601f191660200190565b9080601f830112156110ad578151906111ed826111ba565b926111fb604051948561118c565b828452602091602084830101116110ad5760005b8381106112255750505060206000918301015290565b818101830151858201840152820161120f565b906020828203126110ad5781516001600160401b03928382116110ad570160c0818303126110ad576040519260c084018481108282111761115b576040528151845260208201518181116110ad57836112929184016111d5565b602085015260408201519081116110ad5760a0926112b19183016111d5565b60408401526112c2606082016111ad565b606084015260808101516080840152015160a082015290565b6001600160a01b039091168152602081019190915260400190565b60001981146113055760010190565b634e487b7160e01b600052601160045260246000fd5b6005546001600160a01b03908116939092909184156113f157604051606091821b6001600160601b031916602082019081523090921b60348201526028815261136381611171565b51902060405160208101917f19457468657265756d205369676e6564204d6573736167653a0a3332000000008352603c820152603c81526113a381611171565b5190206113af836111ba565b906113bd604051928361118c565b83825236848401116110ad5760006020856113ec966113e39683870137840101526117d5565b90929192611811565b161490565b5050505050600090565b60009060018060a01b03808354163314158061174a575b611739578060025460081c169060409081519363c3c5a54760e01b855260049180821695868482015260209560249187818481855afa908115611639578a91611704575b50156116f457826003541690865163a787c80b60e01b8152898782015288818581865afa9081156116ea578b916116b5575b5061164357908983928851938480926301871bf560e71b82528d8b8301525afa918215611639578a9695949392918991889361161d575b50838b8a519d8e938492632b39b08560e01b84528b8401525af1998a1561161357869a6115e4575b5060808360035416910151813b15610485579160648b88809483968c519788968795631499168d60e31b87528d87015285015260448401525af180156115da576115c7575b5060025460081c1691823b156110095761155f928492838a93885196879586948593631da5789f60e31b855284016112db565b03925af180156115bd576115a9575b5050907f4cc0a9c4a99ddc700de1af2c9f916a7cbfdb71f14801ccff94061ad1ef8a80409161159e6008546112f6565b60085551848152a290565b6115b38291611148565b610ae7578061156e565b83513d84823e3d90fd5b6115d390949194611148565b923861152c565b86513d87823e3d90fd5b9099508781813d831161160c575b6115fc818361118c565b81010312610489575198386114e7565b503d6115f2565b87513d88823e3d90fd5b6116329193503d808a833e610f9b818361118c565b91386114bf565b87513d8c823e3d90fd5b5096925090508493969492875196879384926309959fbb60e21b84528301525afa9384156116aa57508193611679575b50505090565b9091809350813d83116116a3575b611691818361118c565b81010312610ae7575051388080611673565b503d611687565b51913d9150823e3d90fd5b90508881813d83116116e3575b6116cc818361118c565b8101031261081d576116dd906111ad565b38611488565b503d6116c2565b88513d8d823e3d90fd5b855163aba4733960e01b81528590fd5b90508781813d8311611732575b61171b818361118c565b810103126108705761172c906111ad565b38611456565b503d611711565b6040516282b42960e81b8152600490fd5b508060025460081c16331415611412565b9190820180921161130557565b6000546001600160a01b0316330361177c57565b60405163118cdaa760e01b8152336004820152602490fd5b6002600154146117a5576002600155565b604051633ee5aeb560e01b8152600490fd5b60ff600254166117c357565b60405163d93c066560e01b8152600490fd5b8151919060418303611806576117ff92506020820151906060604084015193015160001a90611896565b9192909190565b505060009160029190565b60048110156118805780611823575050565b6001810361183d5760405163f645eedf60e01b8152600490fd5b6002810361185e5760405163fce698f760e01b815260048101839052602490fd5b6003146118685750565b602490604051906335e2f38360e21b82526004820152fd5b634e487b7160e01b600052602160045260246000fd5b91906fa2a8918ca85bafe22016d0b997e4df60600160ff1b03841161191057926020929160ff608095604051948552168484015260408301526060820152600092839182805260015afa156119045780516001600160a01b038116156118fb57918190565b50809160019190565b604051903d90823e3d90fd5b5050506000916003919056fea164736f6c6343000818000a",
  "linkReferences": {},
  "deployedLinkReferences": {}
}