{
  "_format": "hh-sol-artifact-1",
  "contractName": "RewardRegistry",
  "sourceName": "contracts/RewardRegistry.sol",
  "abi": [
    {
      "inputs": [
        {
          "internalType": "address",
          "name": "initialOwner",
          "type": "address"
        }
      ],
      "stateMutability": "nonpayable",
      "type": "constructor"
    },
    {
      "inputs": [],
      "name": "ActionAlreadyExists",
      "type": "error"
    },
    {
      "inputs": [],
      "name": "ActionDoesNotExist",
      "type": "error"
    },
    {
      "inputs": [],
      "name": "ActionNotActive",
      "type": "error"
    },
    {
      "inputs": [],
      "name": "ActionOnCooldown",
      "type": "error"
    },
    {
      "inputs": [],
      "name": "BatchSizeTooLarge",
      "type": "error"
    },
    {
      "inputs": [],
      "name": "BonusAlreadyClaimed",
      "type": "error"
    },
    {
      "inputs": [],
      "name": "EnforcedPause",
      "type": "error"
    },
    {
      "inputs": [],
      "name": "ExpectedPause",
      "type": "error"
    },
    {
      "inputs": [],
      "name": "InvalidAddress",
      "type": "error"
    },
    {
      "inputs": [],
      "name": "InvalidArrayLengths",
      "type": "error"
    },
    {
      "inputs": [],
      "name": "MaxCompletionsReached",
      "type": "error"
    },
    {
      "inputs": [],
      "name": "NoBonusPoints",
      "type": "error"
    },
    {
      "inputs": [],
      "name": "NotRegistered",
      "type": "error"
    },
    {
      "inputs": [
        {
          "internalType": "address",
          "name": "owner",
          "type": "address"
        }
      ],
      "name": "OwnableInvalidOwner",
      "type": "error"
    },
    {
      "inputs": [
        {
          "internalType": "address",
          "name": "account",
          "type": "address"
        }
      ],
      "name": "OwnableUnauthorizedAccount",
      "type": "error"
    },
    {
      "inputs": [],
      "name": "ReentrancyGuardReentrantCall",
      "type": "error"
    },
    {
      "inputs": [],
      "name": "Unauthorized",
      "type": "error"
    },
    {
      "anonymous": false,
      "inputs": [
        {
          "indexed": true,
          "internalType": "address",
          "name": "user",
          "type": "address"
        },
        {
          "indexed": true,
          "internalType": "bytes32",
          "name": "actionId",
          "type": "bytes32"
        },
        {
          "indexed": false,
          "internalType": "uint256",
          "name": "points",
          "type": "uint256"
        }
      ],
      "name": "ActionCompleted",
      "type": "event"
    },
    {
      "anonymous": false,
      "inputs": [
        {
          "indexed": true,
          "internalType": "bytes32",
          "name": "actionId",
          "type": "bytes32"
        },
        {
          "indexed": false,
          "internalType": "string",
          "name": "name",
          "type": "string"
        },
        {
          "indexed": false,
          "internalType": "uint256",
          "name": "rewardPoints",
          "type": "uint256"
        }
      ],
      "name": "ActionCreated",
      "type": "event"
    },
    {
      "anonymous": false,
      "inputs": [
        {
          "indexed": true,
          "internalType": "bytes32",
          "name": "actionId",
          "type": "bytes32"
        },
        {
          "indexed": false,
          "internalType": "string",
          "name": "name",
          "type": "string"
        },
        {
          "indexed": false,
          "internalType": "uint256",
          "name": "rewardPoints",
          "type": "uint256"
        }
      ],
      "name": "ActionUpdated",
      "type": "event"
    },
    {
      "anonymous": false,
      "inputs": [
        {
          "indexed": true,
          "internalType": "address",
          "name": "user",
          "type": "address"
        },
        {
          "indexed": true,
          "internalType": "bytes32",
          "name": "actionId",
          "type": "bytes32"
        },
        {
          "indexed": false,
          "internalType": "address",
          "name": "verifier",
          "type": "address"
        }
      ],
      "name": "ActionVerified",
      "type": "event"
    },
    {
      "anonymous": false,
      "inputs": [
        {
          "indexed": true,
          "internalType": "address",
          "name": "airdropController",
          "type": "address"
        }
      ],
      "name": "AirdropControllerUpdated",
      "type": "event"
    },
    {
      "anonymous": false,
      "inputs": [
        {
          "indexed": true,
          "internalType": "address",
          "name": "user",
          "type": "address"
        },
        {
          "indexed": false,
          "internalType": "uint256",
          "name": "points",
          "type": "uint256"
        }
      ],
      "name": "BonusClaimed",
      "type": "event"
    },
    {
      "anonymous": false,
      "inputs": [
        {
          "indexed": true,
          "internalType": "address",
          "name": "user",
          "type": "address"
        },
        {
          "indexed": false,
          "internalType": "uint256",
          "name": "points",
          "type": "uint256"
        }
      ],
      "name": "BonusPointsUpdated",
      "type": "event"
    },
    {
      "anonymous": false,
      "inputs": [
        {
          "indexed": true,
          "internalType": "address",
          "name": "previousOwner",
          "type": "address"
        },
        {
          "indexed": true,
          "internalType": "address",
          "name": "newOwner",
          "type": "address"
        }
      ],
      "name": "OwnershipTransferred",
      "type": "event"
    },
    {
      "anonymous": false,
      "inputs": [
        {
          "indexed": false,
          "internalType": "address",
          "name": "account",
          "type": "address"
        }
      ],
      "name": "Paused",
      "type": "event"
    },
    {
      "anonymous": false,
      "inputs": [
        {
          "indexed": false,
          "internalType": "address",
          "name": "account",
          "type": "address"
        }
      ],
      "name": "Unpaused",
      "type": "event"
    },
    {
      "anonymous": false,
      "inputs": [
        {
          "indexed": true,
          "internalType": "address",
          "name": "oldVerifier",
          "type": "address"
        },
        {
          "indexed": true,
          "internalType": "address",
          "name": "newVerifier",
          "type": "address"
        }
      ],
      "name": "VerifierUpdated",
      "type": "event"
    },
    {
      "anonymous": false,
      "inputs": [
        {
          "indexed": true,
          "internalType": "address",
          "name": "wishlistRegistry",
          "type": "address"
        }
      ],
      "name": "WishlistRegistryUpdated",
      "type": "event"
    },
    {
      "inputs": [],
      "name": "airdropController",
      "outputs": [
        {
          "internalType": "address",
          "name": "",
          "type": "address"
        }
      ],
      "stateMutability": "view",
      "type": "function"
    },
    {
      "inputs": [
        {
          "internalType": "address[]",
          "name": "users",
          "type": "address[]"
        },
        {
          "internalType": "bytes32[]",
          "name": "actionIds",
          "type": "bytes32[]"
        }
      ],
      "name": "batchVerifyActions",
      "outputs": [],
      "stateMutability": "nonpayable",
      "type": "function"
    },
    {
      "inputs": [],
      "name": "claimBonusPoints",
      "outputs": [],
      "stateMutability": "nonpayable",
      "type": "function"
    },
    {
      "inputs": [
        {
          "internalType": "bytes32",
          "name": "actionId",
          "type": "bytes32"
        }
      ],
      "name": "completeAction",
      "outputs": [],
      "stateMutability": "nonpayable",
      "type": "function"
    },
    {
      "inputs": [
        {
          "internalType": "bytes32",
          "name": "actionId",
          "type": "bytes32"
        },
        {
          "internalType": "string",
          "name": "name",
          "type": "string"
        },
        {
          "internalType": "string",
          "name": "description",
          "type": "string"
        },
        {
          "internalType": "uint256",
          "name": "rewardPoints",
          "type": "uint256"
        },
        {
          "internalType": "uint256",
          "name": "cooldownPeriod",
          "type": "uint256"
        },
        {
          "internalType": "uint256",
          "name": "maxCompletions",
          "type": "uint256"
        },
        {
          "internalType": "bool",
          "name": "requiresVerification",
          "type": "bool"
        }
      ],
      "name": "createAction",
      "outputs": [],
      "stateMutability": "nonpayable",
      "type": "function"
    },
    {
      "inputs": [
        {
          "internalType": "bytes32",
          "name": "actionId",
          "type": "bytes32"
        }
      ],
      "name": "getAction",
      "outputs": [
        {
          "components": [
            {
              "internalType": "string",
              "name": "name",
              "type": "string"
            },
            {
              "internalType": "string",
              "name": "description",
              "type": "string"
            },
            {
              "internalType": "uint256",
              "name": "rewardPoints",
              "type": "uint256"
            },
            {
              "internalType": "bool",
              "name": "active",
              "type": "bool"
            },
            {
              "internalType": "uint256",
              "name": "cooldownPeriod",
              "type": "uint256"
            },
            {
              "internalType": "uint256",
              "name": "maxCompletions",
              "type": "uint256"
            },
            {
              "internalType": "bool",
              "name": "requiresVerification",
              "type": "bool"
            }
          ],
          "internalType": "struct RewardAction.Action",
          "name": "",
          "type": "tuple"
        }
      ],
      "stateMutability": "view",
      "type": "function"
    },
    {
      "inputs": [],
      "name": "getActionIds",
      "outputs": [
        {
          "internalType": "bytes32[]",
          "name": "",
          "type": "bytes32[]"
        }
      ],
      "stateMutability": "view",
      "type": "function"
    },
    {
      "inputs": [
        {
          "internalType": "address",
          "name": "user",
          "type": "address"
        },
        {
          "internalType": "bytes32",
          "name": "actionId",
          "type": "bytes32"
        }
      ],
      "name": "getUserAction",
      "outputs": [
        {
          "components": [
            {
              "internalType": "uint256",
              "name": "completions",
              "type": "uint256"
            },
            {
              "internalType": "uint256",
              "name": "lastCompletionTime",
              "type": "uint256"
            },
            {
              "internalType": "uint256",
              "name": "totalPoints",
              "type": "uint256"
            },
            {
              "internalType": "bool",
              "name": "verified",
              "type": "bool"
            }
          ],
          "internalType": "struct RewardAction.UserAction",
          "name": "",
          "type": "tuple"
        }
      ],
      "stateMutability": "view",
      "type": "function"
    },
    {
      "inputs": [
        {
          "internalType": "address",
          "name": "user",
          "type": "address"
        }
      ],
      "name": "getUserBonusPoints",
      "outputs": [
        {
          "internalType": "uint256",
          "name": "",
          "type": "uint256"
        }
      ],
      "stateMutability": "view",
      "type": "function"
    },
    {
      "inputs": [
        {
          "internalType": "address",
          "name": "user",
          "type": "address"
        }
      ],
      "name": "getUserRewardPoints",
      "outputs": [
        {
          "internalType": "uint256",
          "name": "",
          "type": "uint256"
        }
      ],
      "stateMutability": "view",
      "type": "function"
    },
    {
      "inputs": [
        {
          "internalType": "address",
          "name": "user",
          "type": "address"
        }
      ],
      "name": "hasClaimed",
      "outputs": [
        {
          "internalType": "bool",
          "name": "",
          "type": "bool"
        }
      ],
      "stateMutability": "view",
      "type": "function"
    },
    {
      "inputs": [],
      "name": "owner",
      "outputs": [
        {
          "internalType": "address",
          "name": "",
          "type": "address"
        }
      ],
      "stateMutability": "view",
      "type": "function"
    },
    {
      "inputs": [],
      "name": "paused",
      "outputs": [
        {
          "internalType": "bool",
          "name": "",
          "type": "bool"
        }
      ],
      "stateMutability": "view",
      "type": "function"
    },
    {
      "inputs": [],
      "name": "renounceOwnership",
      "outputs": [],
      "stateMutability": "nonpayable",
      "type": "function"
    },
    {
      "inputs": [
        {
          "internalType": "address",
          "name": "_airdropController",
          "type": "address"
        }
      ],
      "name": "setAirdropController",
      "outputs": [],
      "stateMutability": "nonpayable",
      "type": "function"
    },
    {
      "inputs": [
        {
          "internalType": "address",
          "name": "verifier",
          "type": "address"
        }
      ],
      "name": "setVerifier",
      "outputs": [],
      "stateMutability": "nonpayable",
      "type": "function"
    },
    {
      "inputs": [
        {
          "internalType": "address",
          "name": "_wishlistRegistry",
          "type": "address"
        }
      ],
      "name": "setWishlistRegistry",
      "outputs": [],
      "stateMutability": "nonpayable",
      "type": "function"
    },
    {
      "inputs": [],
      "name": "totalBonusClaimed",
      "outputs": [
        {
          "internalType": "uint256",
          "name": "",
          "type": "uint256"
        }
      ],
      "stateMutability": "view",
      "type": "function"
    },
    {
      "inputs": [],
      "name": "totalBonusPoints",
      "outputs": [
        {
          "internalType": "uint256",
          "name": "",
          "type": "uint256"
        }
      ],
      "stateMutability": "view",
      "type": "function"
    },
    {
      "inputs": [
        {
          "internalType": "address",
          "name": "newOwner",
          "type": "address"
        }
      ],
      "name": "transferOwnership",
      "outputs": [],
      "stateMutability": "nonpayable",
      "type": "function"
    },
    {
      "inputs": [
        {
          "internalType": "bytes32",
          "name": "actionId",
          "type": "bytes32"
        },
        {
          "internalType": "string",
          "name": "name",
          "type": "string"
        },
        {
          "internalType": "string",
          "name": "description",
          "type": "string"
        },
        {
          "internalType": "uint256",
          "name": "rewardPoints",
          "type": "uint256"
        },
        {
          "internalType": "bool",
          "name": "active",
          "type": "bool"
        },
        {
          "internalType": "uint256",
          "name": "cooldownPeriod",
          "type": "uint256"
        },
        {
          "internalType": "uint256",
          "name": "maxCompletions",
          "type": "uint256"
        },
        {
          "internalType": "bool",
          "name": "requiresVerification",
          "type": "bool"
        }
      ],
      "name": "updateAction",
      "outputs": [],
      "stateMutability": "nonpayable",
      "type": "function"
    },
    {
      "inputs": [
        {
          "internalType": "address",
          "name": "user",
          "type": "address"
        },
        {
          "internalType": "bytes32",
          "name": "actionId",
          "type": "bytes32"
        }
      ],
      "name": "verifyAction",
      "outputs": [],
      "stateMutability": "nonpayable",
      "type": "function"
    },
    {
      "inputs": [],
      "name": "wishlistRegistry",
      "outputs": [
        {
          "internalType": "address",
          "name": "",
          "type": "address"
        }
      ],
      "stateMutability": "view",
      "type": "function"
    }
  ],
  "bytecode": "0x6080346200174357601f6200320938819003918201601f19168301916001600160401b0383118484101762000eb1578084926020946040528339810103126200174357516001600160a01b0380821691829003620017435781156200172a57600080546001600160a01b0319808216851783559184918416907f8be0079c531659141344cd1fd0a4f28419497f9722a3daafe3b4186f6b6457e09080a36001805560ff19600254166002558260095491821617600955167f0243549a92b2412f7a3caf7a2e56d65b8821b91345363faa5f57195384065fcc600080a3620000e562001768565b60118152702337b63637bb9037b7102a3bb4ba3a32b960791b60208201526200010d62001788565b602381527f466f6c6c6f77206f7572206f6666696369616c2054776974746572206163636f6020820152621d5b9d60ea1b604082015260008051602062003189833981519152600052600360205260406000206002810154159081159162001714575b5062001060576200018062001748565b908282526020820152600a60408201526001606082015260006080820152600160a0820152600160c0820152600080516020620031898339815191526000526003602052604060002091815192835160018060401b03811162000eb157620001e98254620017a8565b601f8111620016cb575b506020601f82116001146200165d57819293949560009262001651575b50508160011b916000199060031b1c19161781555b602083015180519093906001600160401b03811162000eb1576200024d6001840154620017a8565b601f811162001605575b506020601f82116001146200158857918160c092600694620002ea97986000926200157c575b50508160011b916000199060031b1c19161760018501555b60408101516002850155620002bf60608201511515600386019060ff801983541691151516179055565b6080810151600485015560a081015160058501550151151591019060ff801983541691151516179055565b6006546801000000000000000081101562000eb157600181018060065581101562000e9b576006600052600080516020620031898339815191526000805160206200316983398151915290910155600754600019811462000e8557600101600755604051906040825280519081604084015260005b8281106200156557600080516020620031898339815191526000805160206200314983398151915285606081876000838284010152600a6020830152601f80199101168101030190a2620003b262001768565b600c81526b129bda5b88111a5cd8dbdc9960a21b6020820152620003d562001768565b60208082527f4a6f696e206f7572206f6666696369616c20446973636f72642073657276657282820152600080516020620031c9833981519152600052600390527fbd00bff89dc4f8f6e39aa0357ff4fe80605700ef9ad88f99b288bf495442c4e554158015907fbd00bff89dc4f8f6e39aa0357ff4fe80605700ef9ad88f99b288bf495442c4e3906200154f575b5062001060576200047462001748565b908282526020820152600a60408201526001606082015260006080820152600160a0820152600160c0820152600080516020620031c98339815191526000526003602052604060002091815192835160018060401b03811162000eb157620004dd8254620017a8565b601f811162001506575b506020601f8211600114620014985781929394956000926200148c575b50508160011b916000199060031b1c19161781555b602083015180519093906001600160401b03811162000eb157620005416001840154620017a8565b601f811162001440575b506020601f8211600114620013dd57918160c092600694620005b1979860009262000ec75750508160011b916000199060031b1c191617600185015560408101516002850155620002bf60608201511515600386019060ff801983541691151516179055565b6006546801000000000000000081101562000eb157600181018060065581101562000e9b576006600052600080516020620031c98339815191526000805160206200316983398151915290910155600754600019811462000e8557600101600755604051906040825280519081604084015260005b828110620013c657600080516020620031c98339815191526000805160206200314983398151915285606081876000838284010152600a6020830152601f80199101168101030190a26200067962001768565b600d81526c4a6f696e2054656c656772616d60981b60208201526200069d62001768565b60208082527f4a6f696e206f7572206f6666696369616c2054656c656772616d2067726f757082820152600080516020620031e9833981519152600052600390527fb4a728fb1cbfea88882362d4c84161e7d24d35a92837d059835f372727a8a65054158015907fb4a728fb1cbfea88882362d4c84161e7d24d35a92837d059835f372727a8a64e90620013b0575b5062001060576200073c62001748565b908282526020820152600a60408201526001606082015260006080820152600160a0820152600160c0820152600080516020620031e98339815191526000526003602052604060002091815192835160018060401b03811162000eb157620007a58254620017a8565b601f811162001367575b506020601f8211600114620012f9578192939495600092620012ed575b50508160011b916000199060031b1c19161781555b602083015180519093906001600160401b03811162000eb157620008096001840154620017a8565b601f8111620012a1575b506020601f82116001146200123e57918160c09260069462000879979860009262000ec75750508160011b916000199060031b1c191617600185015560408101516002850155620002bf60608201511515600386019060ff801983541691151516179055565b6006546801000000000000000081101562000eb157600181018060065581101562000e9b576006600052600080516020620031e98339815191526000805160206200316983398151915290910155600754600019811462000e8557600101600755604051906040825280519081604084015260005b8281106200122757600080516020620031e98339815191526000805160206200314983398151915285606081876000838284010152600a6020830152601f80199101168101030190a26200094162001768565b600781526614995d1dd9595d60ca1b60208201526200095f62001788565b602181527f52657477656574206f7572206f6666696369616c20616e6e6f756e63656d656e6020820152601d60fa1b6040820152600080516020620031a9833981519152600052600360205260406000206002810154159081159162001211575b506200106057620009d062001748565b9082825260208201526005604082015260016060820152620151806080820152600560a0820152600160c0820152600080516020620031a98339815191526000526003602052604060002091815192835160018060401b03811162000eb15762000a3b8254620017a8565b601f8111620011c8575b506020601f82116001146200115a5781929394956000926200114e575b50508160011b916000199060031b1c19161781555b602083015180519093906001600160401b03811162000eb15762000a9f6001840154620017a8565b601f811162001102575b506020601f82116001146200109f57918160c09260069462000b0f979860009262000ec75750508160011b916000199060031b1c191617600185015560408101516002850155620002bf60608201511515600386019060ff801983541691151516179055565b6006546801000000000000000081101562000eb157600181018060065581101562000e9b576006600052600080516020620031a98339815191526000805160206200316983398151915290910155600754600019811462000e8557600101600755604051906040825280519081604084015260005b8281106200108857600080516020620031a9833981519152600080516020620031498339815191528560608187600083828401015260056020830152601f80199101168101030190a262000bd762001768565b600e81526d149959995c881848119c9a595b9960921b602082015262000bfc62001768565b601a81527f5265666572206120667269656e6420746f207265676973746572000000000000602082015260008051602062003129833981519152600052600360205260406000206002810154159081159162001072575b50620010605762000c6362001748565b908282526020820152601460408201526001606082015260006080820152600a60a0820152600060c0820152600080516020620031298339815191526000526003602052604060002091815192835160018060401b03811162000eb15762000ccc8254620017a8565b601f811162001017575b506020601f821160011462000fa957819293949560009262000f9d575b50508160011b916000199060031b1c19161781555b602083015180519093906001600160401b03811162000eb15762000d306001840154620017a8565b601f811162000f51575b506020601f821160011462000ed357918160c09260069462000da0979860009262000ec75750508160011b916000199060031b1c191617600185015560408101516002850155620002bf60608201511515600386019060ff801983541691151516179055565b6006546801000000000000000081101562000eb157600181018060065581101562000e9b576006600052600080516020620031298339815191526000805160206200316983398151915290910155600754600019811462000e8557600101600755604051906040825280519081604084015260005b82811062000e6e5760008051602062003129833981519152600080516020620031498339815191528560608187600083828401015260146020830152601f80199101168101030190a26040516119439081620017e68239f35b806020809284010151606082870101520162000e15565b634e487b7160e01b600052601160045260246000fd5b634e487b7160e01b600052603260045260246000fd5b634e487b7160e01b600052604160045260246000fd5b0151905088806200027d565b6001840160005260206000209560005b601f198416811062000f3857508262000da096976006959360019360c096601f1981161062000f1e575b505050811b01600185015562000295565b015160001960f88460031b161c1916905588808062000f0d565b8282015188556001909701966020928301920162000ee3565b600184016000526020600020601f830160051c81016020841062000f95575b601f830160051c8201811062000f8857505062000d3a565b6000815560010162000f70565b508062000f70565b01519050858062000cf3565b8260005260206000209060005b601f198416811062000ffe575060019394959683601f1981161062000fe4575b505050811b01815562000d08565b015160001960f88460031b161c1916905585808062000fd6565b9091602060018192858b01518155019301910162000fb6565b826000526020600020601f830160051c81016020841062001058575b601f830160051c820181106200104b57505062000cd6565b6000815560010162001033565b508062001033565b604051630b6dce3f60e31b8152600490fd5b6200107f915054620017a8565b15158362000c53565b806020809284010151606082870101520162000b84565b6001840160005260206000209560005b601f1984168110620010e957508262000b0f96976006959360019360c096601f1981161062000f1e57505050811b01600185015562000295565b82820151885560019097019660209283019201620010af565b600184016000526020600020601f830160051c81016020841062001146575b601f830160051c820181106200113957505062000aa9565b6000815560010162001121565b508062001121565b01519050858062000a62565b8260005260206000209060005b601f1984168110620011af575060019394959683601f1981161062001195575b505050811b01815562000a77565b015160001960f88460031b161c1916905585808062001187565b9091602060018192858b01518155019301910162001167565b826000526020600020601f830160051c81016020841062001209575b601f830160051c82018110620011fc57505062000a45565b60008155600101620011e4565b5080620011e4565b6200121e915054620017a8565b151583620009c0565b8060208092840101516060828701015201620008ee565b6001840160005260206000209560005b601f1984168110620012885750826200087996976006959360019360c096601f1981161062000f1e57505050811b01600185015562000295565b828201518855600190970196602092830192016200124e565b600184016000526020600020601f830160051c810160208410620012e5575b601f830160051c82018110620012d857505062000813565b60008155600101620012c0565b5080620012c0565b015190508580620007cc565b8260005260206000209060005b601f19841681106200134e575060019394959683601f1981161062001334575b505050811b018155620007e1565b015160001960f88460031b161c1916905585808062001326565b9091602060018192858b01518155019301910162001306565b826000526020600020601f830160051c810160208410620013a8575b601f830160051c820181106200139b575050620007af565b6000815560010162001383565b508062001383565b620013bd915054620017a8565b1515836200072c565b806020809284010151606082870101520162000626565b6001840160005260206000209560005b601f198416811062001427575082620005b196976006959360019360c096601f1981161062000f1e57505050811b01600185015562000295565b82820151885560019097019660209283019201620013ed565b600184016000526020600020601f830160051c81016020841062001484575b601f830160051c82018110620014775750506200054b565b600081556001016200145f565b50806200145f565b01519050858062000504565b8260005260206000209060005b601f1984168110620014ed575060019394959683601f19811610620014d3575b505050811b01815562000519565b015160001960f88460031b161c19169055858080620014c5565b9091602060018192858b015181550193019101620014a5565b826000526020600020601f830160051c81016020841062001547575b601f830160051c820181106200153a575050620004e7565b6000815560010162001522565b508062001522565b6200155c915054620017a8565b15158362000464565b80602080928401015160608287010152016200035f565b0151905038806200027d565b6001840160005260206000209560005b601f1984168110620015ec575082620002ea96976006959360019360c096601f19811610620015d257505050811b01600185015562000295565b015160001960f88460031b161c1916905538808062000f0d565b8282015188556001909701966020928301920162001598565b600184016000526020600020601f830160051c81016020841062001649575b601f830160051c820181106200163c57505062000257565b6000815560010162001624565b508062001624565b01519050388062000210565b8260005260206000209060005b601f1984168110620016b2575060019394959683601f1981161062001698575b505050811b01815562000225565b015160001960f88460031b161c191690553880806200168a565b9091602060018192858b0151815501930191016200166a565b826000526020600020601f830160051c8101602084106200170c575b601f830160051c82018110620016ff575050620001f3565b60008155600101620016e7565b5080620016e7565b62001721915054620017a8565b15153862000170565b604051631e4fbdf760e01b815260006004820152602490fd5b600080fd5b6040519060e082016001600160401b0381118382101762000eb157604052565b60408051919082016001600160401b0381118382101762000eb157604052565b60405190606082016001600160401b0381118382101762000eb157604052565b90600182811c92168015620017da575b6020831014620017c457565b634e487b7160e01b600052602260045260246000fd5b91607f1691620017b856fe608080604052600436101561001357600080fd5b60003560e01c9081630323b9a01461139957508063035a9c26146112ea5780630fb6c0a81461125157806324c84bc0146111735780634a16c63d1461113d578063500306ae1461111f5780635437988d146110b05780635c975abb1461108d57806370657e5e14611053578063715018a614610ffa57806373b2e80e14610fbb5780637b4fe78a14610f52578063877a9b7914610bd65780638da5cb5b14610bad5780639b34090a14610b32578063a296eabe14610a11578063af92916a14610794578063c19a41511461033e578063d9fc454614610315578063dce9f07014610211578063f2fde38b1461018b578063f49a21fe1461014a5763fba8737a1461011c57600080fd5b3461014557600036600319011261014557600a546040516001600160a01b039091168152602090f35b600080fd5b346101455760203660031901126101455760206101826101686113b4565b6001600160a01b0316600090815260056020526040902090565b54604051908152f35b34610145576020366003190112610145576101a46113b4565b6101ac611838565b6001600160a01b039081169081156101f8576000548260018060a01b0319821617600055167f8be0079c531659141344cd1fd0a4f28419497f9722a3daafe3b4186f6b6457e0600080a3005b604051631e4fbdf760e01b815260006004820152602490fd5b346101455760203660031901126101455761022a6115ac565b506102336115ac565b5060043560005260036020526102db60406000206040519061025482611482565b61025d81611891565b825261026b60018201611891565b602083019081526002820154916040840192835260ff600382015416606085019015158152600482015490608086019182526102ee60ff600660058601549560a08a019687520154169460c08801951515865260405198899860208a525160e060208b01526101008a0190611427565b9051888203601f190160408a0152611427565b9451606087015251151560808601525160a08501525160c084015251151560e08301520390f35b3461014557600036600319011261014557600b546040516001600160a01b039091168152602090f35b346101455760e0366003190112610145576024356001600160401b0381116101455761036e9036906004016113fa565b6044356001600160401b0381116101455761038d9036906004016113fa565b929060c43592831515809403610145576103bc926103b4916103ad611838565b3691611522565b933691611522565b906004356000526003602052604060002060028101541590811591610781575b5061076f57604051916103ee83611482565b8383526020830152606435604083015260016060830152608435608083015260a43560a083015260c0820152600435600052600360205260406000209181519283516001600160401b0381116105d7576104488254611608565b601f811161072b575b506020601f82116001146106c25781929394956000926106b7575b50508160011b916000199060031b1c19161781555b60208301519283516001600160401b0381116105d7576104a46001840154611608565b601f8111610670575b506020601f82116001146105f857918160c09260069461053c97986000926105ed575b50508160011b916000199060031b1c19161760018501555b6040810151600285015561051160608201511515600386019060ff801983541691151516179055565b6080810151600485015560a081015160058501550151151591019060ff801983541691151516179055565b600654600160401b8110156105d75760018101806006558110156105c15760066000526004359060206000200155610575600754611882565b6007557f344572307721fe4c17b88c43dd806c6d6139845cb403f253a4fa36bfc9ac33466105ae60405192604084526040840190611427565b91606435602082015280600435930390a2005b634e487b7160e01b600052603260045260246000fd5b634e487b7160e01b600052604160045260246000fd5b0151905088806104d0565b6001840160005260206000209560005b601f198416811061065857508261053c96976006959360019360c096601f1981161061063f575b505050811b0160018501556104e8565b015160001960f88460031b161c1916905588808061062f565b82820151885560019097019660209283019201610608565b600184016000526020600020601f830160051c8101602084106106b0575b601f830160051c820181106106a45750506104ad565b6000815560010161068e565b508061068e565b01519050858061046c565b8260005260206000209060005b601f1984168110610713575060019394959683601f198116106106fa575b505050811b018155610481565b015160001960f88460031b161c191690558580806106ed565b9091602060018192858b0151815501930191016106cf565b826000526020600020601f830160051c810160208410610768575b601f830160051c8201811061075c575050610451565b60008155600101610746565b5080610746565b604051630b6dce3f60e31b8152600490fd5b61078c915054611608565b1515846103dc565b346101455760208060031936011261014557600435906107b2611864565b6107ba6115e5565b600a546001600160a01b031680610981575b5081600052600381526040600020600281019081541580610970575b61095e5760ff6003820154161561094c5733600090815260046020526040902084600052835260406000206004820154801515908161093e575b81610927575b506109155760058201548015159081610909575b506108f75760ff918161085160069354611882565b815560014291015501541615610871575b61086b33611796565b60018055005b7f1dc98245343d591f154a8642e7a51f56a8b67d58138cff92f8da6c79028b21519054913360005260048152604060002084600052815260026040600020016108bb848254611559565b9055336000526005815260406000206108d5848254611559565b90556108e383600854611559565b6008556040519283523392a3808080610862565b60405163c53c59e760e01b8152600490fd5b9050815410158661083c565b604051638f5c7eff60e01b8152600490fd5b61093691506001830154611559565b421086610828565b600183015415159150610822565b60405163269e887b60e21b8152600490fd5b604051636dd5b31360e11b8152600490fd5b5061097b8154611608565b156107e8565b6040518281019163c3c5a54760e01b83523360248301526024825260608201928284106001600160401b038511176105d7576000809493819460405251925af16109c961157c565b90159081156109f0575b506109de57826107cc565b60405163aba4733960e01b8152600490fd5b905081818051810103126101455781015180159081150361014557836109d3565b3461014557600036600319011261014557610a2a611864565b610a326115e5565b33600052600c6020526040600020548015610b205733600052600d60205260ff60406000205416610b0e5733600052600d6020526040600020600160ff19825416179055610a8281600f54611559565b600f55600b546001600160a01b031680610aca575b506040519081527f4e69fdc49495bcab2b4375781457ba16653a90eb4ffb6588351bdc39071433e260203392a260018055005b6000809160405182602082019163d58a9cd160e01b835233602482015286604482015260448152610afa81611467565b51925af150610b0761157c565b5081610a97565b604051630e50c52360e21b8152600490fd5b604051633164271d60e01b8152600490fd5b3461014557602036600319011261014557610b4b6113b4565b610b53611838565b6001600160a01b03168015610b9b57600b80546001600160a01b031916821790557f4845502ab7f89dbf44704e406f543097ea9dd4468dc8c1c7beb028e477099a4e600080a2005b60405163e6c4247b60e01b8152600490fd5b34610145576000366003190112610145576000546040516001600160a01b039091168152602090f35b3461014557610100366003190112610145576024356001600160401b03811161014557610c079036906004016113fa565b906044356001600160401b03811161014557610c279036906004016113fa565b929091608435928315158094036101455760e4359283151580940361014557610c5e92610c56916103ad611838565b943691611522565b91600435600052600360205260406000206002810154159081610f40575b5061095e5760405192610c8e84611482565b84845260208401526064356040840152606083015260a435608083015260c43560a083015260c0820152600435600052600360205260406000209181519283516001600160401b0381116105d757610ce68254611608565b601f8111610efc575b506020601f8211600114610e93578192939495600092610e88575b50508160011b916000199060031b1c19161781555b60208301519283516001600160401b0381116105d757610d426001840154611608565b601f8111610e41575b506020601f8211600114610de357918160c092600694610dad97986000926105ed5750508160011b916000199060031b1c19161760018501556040810151600285015561051160608201511515600386019060ff801983541691151516179055565b7fd5491c9bbecb028d390dbae9a7d946b24a0cce80b245bc963a014660bc8e75c06105ae60405192604084526040840190611427565b6001840160005260206000209560005b601f1984168110610e29575082610dad96976006959360019360c096601f1981161061063f57505050811b0160018501556104e8565b82820151885560019097019660209283019201610df3565b600184016000526020600020601f830160051c810160208410610e81575b601f830160051c82018110610e75575050610d4b565b60008155600101610e5f565b5080610e5f565b015190508580610d0a565b8260005260206000209060005b601f1984168110610ee4575060019394959683601f19811610610ecb575b505050811b018155610d1f565b015160001960f88460031b161c19169055858080610ebe565b9091602060018192858b015181550193019101610ea0565b826000526020600020601f830160051c810160208410610f39575b601f830160051c82018110610f2d575050610cef565b60008155600101610f17565b5080610f17565b610f4b915054611608565b1585610c7c565b3461014557602036600319011261014557610f6b6113b4565b610f73611838565b6001600160a01b03168015610b9b57600a80546001600160a01b031916821790557f3ab1d2d2724e9dc12d52666c08b55303a7c2d9a889485dbbe583ca62303128b6600080a2005b34610145576020366003190112610145576001600160a01b03610fdc6113b4565b16600052600d602052602060ff604060002054166040519015158152f35b3461014557600036600319011261014557611013611838565b600080546001600160a01b0319811682556001600160a01b03167f8be0079c531659141344cd1fd0a4f28419497f9722a3daafe3b4186f6b6457e08280a3005b34610145576020366003190112610145576001600160a01b036110746113b4565b16600052600c6020526020604060002054604051908152f35b3461014557600036600319011261014557602060ff600254166040519015158152f35b34610145576020366003190112610145576110c96113b4565b6110d1611838565b6001600160a01b03908116908115610b9b57600980546001600160a01b031981168417909155167f0243549a92b2412f7a3caf7a2e56d65b8821b91345363faa5f57195384065fcc600080a3005b34610145576000366003190112610145576020600e54604051908152f35b346101455760403660031901126101455761086b6111596113b4565b6111616115e5565b61116e3360243583611642565b611796565b34610145576040366003190112610145576001600160401b03600435818111610145576111a49036906004016113ca565b9091602435908111610145576111be9036906004016113ca565b9190926111c96115e5565b82820361123f576101f4821161122d5760005b8281106111e95760018055005b806112166112026111fd60019487876114e3565b6114f3565b339061120f84898b6114e3565b3590611642565b61122761116e6111fd8387876114e3565b016111dc565b604051631e80759560e21b8152600490fd5b60405163a9854bc960e01b8152600490fd5b346101455760003660031901126101455760405180600654808352602080930180916006600052846000209060005b868282106112d65786866112968288038361149d565b604051928392818401908285525180915260408401929160005b8281106112bf57505050500390f35b8351855286955093810193928101926001016112b0565b835485529093019260019283019201611280565b34610145576040366003190112610145576113326113066113b4565b61130e6114be565b506113176114be565b506001600160a01b0316600090815260046020526040902090565b6024356000526020526080604060002060405161134e81611467565b815491828252600181015460208301908152606060ff600360028501549460408701958652015416930192151583526040519384525160208401525160408301525115156060820152f35b3461014557600036600319011261014557602090600f548152f35b600435906001600160a01b038216820361014557565b9181601f84011215610145578235916001600160401b038311610145576020808501948460051b01011161014557565b9181601f84011215610145578235916001600160401b038311610145576020838186019501011161014557565b919082519283825260005b848110611453575050826000602080949584010152601f8019910116010190565b602081830181015184830182015201611432565b608081019081106001600160401b038211176105d757604052565b60e081019081106001600160401b038211176105d757604052565b90601f801991011681019081106001600160401b038211176105d757604052565b604051906114cb82611467565b60006060838281528260208201528260408201520152565b91908110156105c15760051b0190565b356001600160a01b03811681036101455790565b6001600160401b0381116105d757601f01601f191660200190565b92919261152e82611507565b9161153c604051938461149d565b829481845281830111610145578281602093846000960137010152565b9190820180921161156657565b634e487b7160e01b600052601160045260246000fd5b3d156115a7573d9061158d82611507565b9161159b604051938461149d565b82523d6000602084013e565b606090565b604051906115b982611482565b600060c08360608152606060208201528260408201528260608201528260808201528260a08201520152565b6002600154146115f6576002600155565b604051633ee5aeb560e01b8152600490fd5b90600182811c92168015611638575b602083101461162257565b634e487b7160e01b600052602260045260246000fd5b91607f1691611617565b90916000908382526020916003835260409081812094600286019081541580611785575b61175a576009546001600160a01b039586169591908216860361177557169586835260048652838320888452865260ff6006858520920154161561176b5780541561175a577f1dc98245343d591f154a8642e7a51f56a8b67d58138cff92f8da6c79028b21518685947fa192bba5dd2a9f1e7469a491072b704b29a519ecd3fe11deeda377158590f8ce9897968b9560038c9601600160ff198254161790555491858152600484528181208782528452600282822001611727848254611559565b9055858152600584522061173c828254611559565b905561174a81600854611559565b6008558551908152a351908152a3565b8351636dd5b31360e11b8152600490fd5b5050505050505050565b84516282b42960e81b8152600490fd5b506117908754611608565b15611666565b6001600160a01b0316600081815260056020908152604080832054600c9092528220549091908083116117ca575b50505050565b820390828211611824579161181160209282604086887f8fef7e88fbe504c7b7edf1027d4f6a1e5e227272ca85da1ae1b2c311d42739739852600c87522055600e54611559565b600e55604051908152a2388080806117c4565b634e487b7160e01b81526011600452602490fd5b6000546001600160a01b0316330361184c57565b60405163118cdaa760e01b8152336004820152602490fd5b60ff6002541661187057565b60405163d93c066560e01b8152600490fd5b60001981146115665760010190565b906040519182600082546118a481611608565b9081845260209460019160018116908160001461191457506001146118d5575b5050506118d39250038361149d565b565b600090815285812095935091905b8183106118fc5750506118d393508201013880806118c4565b855488840185015294850194879450918301916118e3565b925050506118d394925060ff191682840152151560051b8201013880806118c456fea164736f6c6343000818000a75776bf3831d3a7b92ff570a126aeed6de168fefbbfcbb73ca22f09143e835a4344572307721fe4c17b88c43dd806c6d6139845cb403f253a4fa36bfc9ac3346f652222313e28459528d920b65115c16c04f3efc82aaedc97be59f3f377c0d3fba5551b5ec9e1c27e611a6145ca9f279dccce8ef6d574d51da83e0c0eb10796ef89803751555abbccf78171d505f830aa5e2b6427e08d71f4ddfe8dbe8036c74e5ca31315805ea14e61ee5c035da9022577a0c96b7b7b65fe3f6c56420b8a7a70e24b80f32ebdcbf3647982158134ea691deacf19bd9a6170bfac38691031b3c",
  "linkReferences": {},
  "deployedLinkReferences": {}
}