{
  "_format": "hh-sol-artifact-1",
  "contractName": "SocialModule",
  "sourceName": "contracts/modules/SocialModule.sol",
  "abi": [
    {
      "inputs": [],
      "name": "DuplicateEntry",
      "type": "error"
    },
    {
      "inputs": [],
      "name": "InvalidAddress",
      "type": "error"
    },
    {
      "inputs": [],
      "name": "InvalidModuleData",
      "type": "error"
    },
    {
      "inputs": [],
      "name": "Unauthorized",
      "type": "error"
    },
    {
      "anonymous": false,
      "inputs": [
        {
          "indexed": true,
          "internalType": "uint256",
          "name": "tokenId",
          "type": "uint256"
        },
        {
          "indexed": false,
          "internalType": "bytes",
          "name": "data",
          "type": "bytes"
        }
      ],
      "name": "ModuleDataUpdated",
      "type": "event"
    },
    {
      "anonymous": false,
      "inputs": [
        {
          "indexed": true,
          "internalType": "address",
          "name": "profile",
          "type": "address"
        }
      ],
      "name": "ModuleInitialized",
      "type": "event"
    },
    {
      "inputs": [
        {
          "internalType": "uint256",
          "name": "tokenId",
          "type": "uint256"
        }
      ],
      "name": "getData",
      "outputs": [
        {
          "internalType": "bytes",
          "name": "",
          "type": "bytes"
        }
      ],
      "stateMutability": "view",
      "type": "function"
    },
    {
      "inputs": [
        {
          "internalType": "uint256",
          "name": "tokenId",
          "type": "uint256"
        }
      ],
      "name": "getMetadata",
      "outputs": [
        {
          "internalType": "string",
          "name": "",
          "type": "string"
        }
      ],
      "stateMutability": "view",
      "type": "function"
    },
    {
      "inputs": [],
      "name": "getName",
      "outputs": [
        {
          "internalType": "string",
          "name": "",
          "type": "string"
        }
      ],
      "stateMutability": "pure",
      "type": "function"
    },
    {
      "inputs": [],
      "name": "getVersion",
      "outputs": [
        {
          "internalType": "string",
          "name": "",
          "type": "string"
        }
      ],
      "stateMutability": "pure",
      "type": "function"
    },
    {
      "inputs": [
        {
          "internalType": "address",
          "name": "_profile",
          "type": "address"
        }
      ],
      "name": "initialize",
      "outputs": [],
      "stateMutability": "nonpayable",
      "type": "function"
    },
    {
      "inputs": [],
      "name": "profile",
      "outputs": [
        {
          "internalType": "address",
          "name": "",
          "type": "address"
        }
      ],
      "stateMutability": "view",
      "type": "function"
    },
    {
      "inputs": [
        {
          "internalType": "uint256",
          "name": "tokenId",
          "type": "uint256"
        },
        {
          "internalType": "bytes",
          "name": "data",
          "type": "bytes"
        }
      ],
      "name": "updateData",
      "outputs": [],
      "stateMutability": "nonpayable",
      "type": "function"
    },
    {
      "inputs": [
        {
          "internalType": "bytes",
          "name": "data",
          "type": "bytes"
        }
      ],
      "name": "validateData",
      "outputs": [
        {
          "internalType": "bool",
          "name": "",
          "type": "bool"
        }
      ],
      "stateMutability": "pure",
      "type": "function"
    }
  ],
  "bytecode": "0x6080806040523461001657610c82908161001c8239f35b600080fdfe6080806040526004908136101561001557600080fd5b60003560e01c9081630178fe3f14610890575080630d8e6e2c1461084a57806317d7de7c146107fc578063a574cea414610693578063a6ffa36c1461064d578063ab60636c14610624578063c4d66de8146105945763d488a0701461007957600080fd5b3461056e57604036600319011261056e576024356001600160401b03811161056e576100a89036908301610994565b6000549091906001600160a01b03163303610584576100c682610b28565b15610573578181019260608285031261056e5781356001600160401b03811161056e57846100f5918401610b39565b9360208301356001600160401b03811161056e5781610115918501610b39565b906040840135906001600160401b03821161056e57610135918501610b39565b9060405195610143876109fb565b86526020860152604085015242606085015280356000526001602052604060002084518051906001600160401b03821161049857819061018384546109c1565b601f811161051e575b50602090601f83116001146104b8576000926104ad575b50508160011b916000199060031b1c19161781555b60208501518051906001600160401b0382116104985781906101dd60018501546109c1565b601f8111610445575b50602090601f83116001146103d8576000926103cd575b50508160011b916000199060031b1c19161760018201555b600281019460408101519586516001600160401b0381116103b85761023a82546109c1565b601f8111610370575b506020601f82116001146102dc5760409593889993836003946060947fa8821f230e6e3c2cf66abf6bc91bbbb8cd83b98ed93bc390de73e8d76fd0a3009c9b99976000926102d1575b50508160011b9160001990871b1c19161790555b01519101558251938492602084528160208501528484013760008287018401523594601f01601f19168101030190a2005b01519050388061028c565b601f198216988360005260206000209960005b8181106103585750936001848b9c60609560409b99956003987fa8821f230e6e3c2cf66abf6bc91bbbb8cd83b98ed93bc390de73e8d76fd0a3009f9e9c9a10610340575b505050811b0190556102a0565b015160001983891b60f8161c19169055388080610333565b838301518c556001909b019a602093840193016102ef565b826000526020600020601f830160051c810191602084106103ae575b601f0160051c01905b8181106103a25750610243565b60008155600101610395565b909150819061038c565b604185634e487b7160e01b6000525260246000fd5b0151905038806101fd565b600185016000908152602081209350601f198516905b81811061042d5750908460019594939210610414575b505050811b016001820155610215565b015160001960f88460031b161c19169055388080610404565b929360206001819287860151815501950193016103ee565b909150600184016000526020600020601f840160051c810160208510610491575b90849392915b601f830160051c820181106104825750506101e6565b6000815585945060010161046c565b5080610466565b604184634e487b7160e01b6000525260246000fd5b0151905038806101a3565b6000858152602081209350601f198516905b81811061050657509084600195949392106104ed575b505050811b0181556101b8565b015160001960f88460031b161c191690553880806104e0565b929360206001819287860151815501950193016104ca565b909150836000526020600020601f840160051c810160208510610567575b90849392915b601f830160051c8201811061055857505061018c565b60008155859450600101610542565b508061053c565b600080fd5b60405163444289bf60e11b81528390fd5b6040516282b42960e81b81528390fd5b503461056e57602036600319011261056e5780356001600160a01b038181169182900361056e57600054908116610613578115610602576001600160a01b031916811760009081557f27b541a16df0902e262f34789782092ab25125513b8ed73608e802951771b9289080a2005b60405163e6c4247b60e01b81528390fd5b604051630d5f433160e21b81528390fd5b3461056e57600036600319011261056e576000546040516001600160a01b039091168152602090f35b503461056e57602036600319011261056e578035906001600160401b03821161056e5761068261068991602093369101610994565b9050610b28565b6040519015158152f35b503461056e576020908160031936011261056e5735600052600181526040600020906107e46063604051936106c7856109fb565b6106d081610a68565b85526106de60018201610a68565b9084860191825261070f60036106f660028401610a68565b928360408a015201549687606082015251925196610b80565b90604051968793753d9139b7b1b4b0b6111d3d913a3bb4ba3a32b9111d1160511b88860152610747815180928a60368901910161094c565b84016c1116113234b9b1b7b932111d1160991b6036820152610772825180938a60438501910161094c565b016d1116113a32b632b3b930b6911d1160911b604382015261079d825180938960518501910161094c565b016f1116113630b9ba2ab83230ba32b2111d60811b60518201526107ca825180938860618501910161094c565b01617d7d60f01b6061820152036043810185520183610a47565b6107f860405192828493845283019061096f565b0390f35b3461056e57600036600319011261056e576107f860405161081c81610a2c565b600d81526c536f6369616c204d6f64756c6560981b602082015260405191829160208352602083019061096f565b3461056e57600036600319011261056e576107f860405161086a81610a2c565b60058152640312e302e360dc1b602082015260405191829160208352602083019061096f565b823461056e576020908160031936011261056e5761091d926107e49135600052600183526040600020906108c3816109fb565b6108cc82610a68565b81526109406108dd60018401610a68565b9185810192835260036108f260028601610a68565b948560408401520154606082015251915192610930604051978894606089870152608086019061096f565b601f19958686830301604087015261096f565b908484830301606085015261096f565b03908101845283610a47565b60005b83811061095f5750506000910152565b818101518382015260200161094f565b906020916109888151809281855285808601910161094c565b601f01601f1916010190565b9181601f8401121561056e578235916001600160401b03831161056e576020838186019501011161056e57565b90600182811c921680156109f1575b60208310146109db57565b634e487b7160e01b600052602260045260246000fd5b91607f16916109d0565b608081019081106001600160401b03821117610a1657604052565b634e487b7160e01b600052604160045260246000fd5b604081019081106001600160401b03821117610a1657604052565b90601f801991011681019081106001600160401b03821117610a1657604052565b90604051918260008254610a7b816109c1565b90818452602094600191600181169081600014610aeb5750600114610aac575b505050610aaa92500383610a47565b565b600090815285812095935091905b818310610ad3575050610aaa9350820101388080610a9b565b85548884018501529485019487945091830191610aba565b92505050610aaa94925060ff191682840152151560051b820101388080610a9b565b6001600160401b038111610a1657601f01601f191660200190565b600311610b3457600190565b600090565b81601f8201121561056e57803590610b5082610b0d565b92610b5e6040519485610a47565b8284526020838301011161056e57816000926020809301838601378301015290565b8015610c5757600081805b610c3f5750610b9981610b0d565b90610ba76040519283610a47565b808252601f19610bb682610b0d565b013660208401375b80928015610c38576000198201918211610c22578193600a926030908484068201809211610c225785511115610c0c5760f81b6001600160f81b03191660001a908401601f01530491610bbe565b634e487b7160e01b600052603260045260246000fd5b634e487b7160e01b600052601160045260246000fd5b5050905090565b906000198114610c22576001600a9101910480610b8b565b50604051610c6481610a2c565b60018152600360fc1b60208201529056fea164736f6c6343000818000a",
  "linkReferences": {},
  "deployedLinkReferences": {}
}