{
  "_format": "hh-sol-artifact-1",
  "contractName": "SoulboundProfile",
  "sourceName": "contracts/SoulboundProfile.sol",
  "abi": [
    {
      "inputs": [
        {
          "internalType": "address",
          "name": "initialOwner",
          "type": "address"
        }
      ],
      "stateMutability": "nonpayable",
      "type": "constructor"
    },
    {
      "inputs": [],
      "name": "AlreadyClaimed",
      "type": "error"
    },
    {
      "inputs": [],
      "name": "AlreadyMinted",
      "type": "error"
    },
    {
      "inputs": [],
      "name": "BatchSizeTooLarge",
      "type": "error"
    },
    {
      "inputs": [
        {
          "internalType": "address",
          "name": "sender",
          "type": "address"
        },
        {
          "internalType": "uint256",
          "name": "tokenId",
          "type": "uint256"
        },
        {
          "internalType": "address",
          "name": "owner",
          "type": "address"
        }
      ],
      "name": "ERC721IncorrectOwner",
      "type": "error"
    },
    {
      "inputs": [
        {
          "internalType": "address",
          "name": "operator",
          "type": "address"
        },
        {
          "internalType": "uint256",
          "name": "tokenId",
          "type": "uint256"
        }
      ],
      "name": "ERC721InsufficientApproval",
      "type": "error"
    },
    {
      "inputs": [
        {
          "internalType": "address",
          "name": "approver",
          "type": "address"
        }
      ],
      "name": "ERC721InvalidApprover",
      "type": "error"
    },
    {
      "inputs": [
        {
          "internalType": "address",
          "name": "operator",
          "type": "address"
        }
      ],
      "name": "ERC721InvalidOperator",
      "type": "error"
    },
    {
      "inputs": [
        {
          "internalType": "address",
          "name": "owner",
          "type": "address"
        }
      ],
      "name": "ERC721InvalidOwner",
      "type": "error"
    },
    {
      "inputs": [
        {
          "internalType": "address",
          "name": "receiver",
          "type": "address"
        }
      ],
      "name": "ERC721InvalidReceiver",
      "type": "error"
    },
    {
      "inputs": [
        {
          "internalType": "address",
          "name": "sender",
          "type": "address"
        }
      ],
      "name": "ERC721InvalidSender",
      "type": "error"
    },
    {
      "inputs": [
        {
          "internalType": "uint256",
          "name": "tokenId",
          "type": "uint256"
        }
      ],
      "name": "ERC721NonexistentToken",
      "type": "error"
    },
    {
      "inputs": [],
      "name": "InvalidAddress",
      "type": "error"
    },
    {
      "inputs": [],
      "name": "InvalidModuleData",
      "type": "error"
    },
    {
      "inputs": [],
      "name": "ModuleAlreadyRegistered",
      "type": "error"
    },
    {
      "inputs": [],
      "name": "ModuleNotRegistered",
      "type": "error"
    },
    {
      "inputs": [],
      "name": "NonTransferable",
      "type": "error"
    },
    {
      "inputs": [
        {
          "internalType": "address",
          "name": "owner",
          "type": "address"
        }
      ],
      "name": "OwnableInvalidOwner",
      "type": "error"
    },
    {
      "inputs": [
        {
          "internalType": "address",
          "name": "account",
          "type": "address"
        }
      ],
      "name": "OwnableUnauthorizedAccount",
      "type": "error"
    },
    {
      "inputs": [],
      "name": "TokenNotExists",
      "type": "error"
    },
    {
      "inputs": [],
      "name": "Unauthorized",
      "type": "error"
    },
    {
      "anonymous": false,
      "inputs": [
        {
          "indexed": true,
          "internalType": "uint256",
          "name": "tokenId",
          "type": "uint256"
        },
        {
          "indexed": false,
          "internalType": "uint256",
          "name": "amount",
          "type": "uint256"
        },
        {
          "indexed": false,
          "internalType": "uint256",
          "name": "bonusAmount",
          "type": "uint256"
        }
      ],
      "name": "AirdropInfoUpdated",
      "type": "event"
    },
    {
      "anonymous": false,
      "inputs": [
        {
          "indexed": true,
          "internalType": "address",
          "name": "owner",
          "type": "address"
        },
        {
          "indexed": true,
          "internalType": "address",
          "name": "approved",
          "type": "address"
        },
        {
          "indexed": true,
          "internalType": "uint256",
          "name": "tokenId",
          "type": "uint256"
        }
      ],
      "name": "Approval",
      "type": "event"
    },
    {
      "anonymous": false,
      "inputs": [
        {
          "indexed": true,
          "internalType": "address",
          "name": "owner",
          "type": "address"
        },
        {
          "indexed": true,
          "internalType": "address",
          "name": "operator",
          "type": "address"
        },
        {
          "indexed": false,
          "internalType": "bool",
          "name": "approved",
          "type": "bool"
        }
      ],
      "name": "ApprovalForAll",
      "type": "event"
    },
    {
      "anonymous": false,
      "inputs": [
        {
          "indexed": false,
          "internalType": "string",
          "name": "newBaseURI",
          "type": "string"
        }
      ],
      "name": "BaseURIUpdated",
      "type": "event"
    },
    {
      "anonymous": false,
      "inputs": [
        {
          "indexed": false,
          "internalType": "uint256",
          "name": "_fromTokenId",
          "type": "uint256"
        },
        {
          "indexed": false,
          "internalType": "uint256",
          "name": "_toTokenId",
          "type": "uint256"
        }
      ],
      "name": "BatchMetadataUpdate",
      "type": "event"
    },
    {
      "anonymous": false,
      "inputs": [
        {
          "indexed": false,
          "internalType": "uint256",
          "name": "_tokenId",
          "type": "uint256"
        }
      ],
      "name": "MetadataUpdate",
      "type": "event"
    },
    {
      "anonymous": false,
      "inputs": [
        {
          "indexed": true,
          "internalType": "address",
          "name": "module",
          "type": "address"
        },
        {
          "indexed": false,
          "internalType": "string",
          "name": "name",
          "type": "string"
        }
      ],
      "name": "ModuleAdded",
      "type": "event"
    },
    {
      "anonymous": false,
      "inputs": [
        {
          "indexed": true,
          "internalType": "uint256",
          "name": "tokenId",
          "type": "uint256"
        },
        {
          "indexed": true,
          "internalType": "address",
          "name": "module",
          "type": "address"
        },
        {
          "indexed": false,
          "internalType": "bytes",
          "name": "data",
          "type": "bytes"
        }
      ],
      "name": "ModuleDataUpdated",
      "type": "event"
    },
    {
      "anonymous": false,
      "inputs": [
        {
          "indexed": true,
          "internalType": "address",
          "name": "module",
          "type": "address"
        }
      ],
      "name": "ModuleRemoved",
      "type": "event"
    },
    {
      "anonymous": false,
      "inputs": [
        {
          "indexed": true,
          "internalType": "address",
          "name": "previousOwner",
          "type": "address"
        },
        {
          "indexed": true,
          "internalType": "address",
          "name": "newOwner",
          "type": "address"
        }
      ],
      "name": "OwnershipTransferred",
      "type": "event"
    },
    {
      "anonymous": false,
      "inputs": [
        {
          "indexed": true,
          "internalType": "address",
          "name": "user",
          "type": "address"
        },
        {
          "indexed": false,
          "internalType": "uint256",
          "name": "tokenId",
          "type": "uint256"
        }
      ],
      "name": "ProfileMinted",
      "type": "event"
    },
    {
      "anonymous": false,
      "inputs": [
        {
          "indexed": true,
          "internalType": "uint256",
          "name": "tokenId",
          "type": "uint256"
        },
        {
          "indexed": false,
          "internalType": "string",
          "name": "newURI",
          "type": "string"
        }
      ],
      "name": "ProfileURIUpdated",
      "type": "event"
    },
    {
      "anonymous": false,
      "inputs": [
        {
          "indexed": true,
          "internalType": "address",
          "name": "from",
          "type": "address"
        },
        {
          "indexed": true,
          "internalType": "address",
          "name": "to",
          "type": "address"
        },
        {
          "indexed": true,
          "internalType": "uint256",
          "name": "tokenId",
          "type": "uint256"
        }
      ],
      "name": "Transfer",
      "type": "event"
    },
    {
      "inputs": [
        {
          "internalType": "address",
          "name": "module",
          "type": "address"
        },
        {
          "internalType": "string",
          "name": "name",
          "type": "string"
        }
      ],
      "name": "addModule",
      "outputs": [],
      "stateMutability": "nonpayable",
      "type": "function"
    },
    {
      "inputs": [
        {
          "internalType": "address",
          "name": "to",
          "type": "address"
        },
        {
          "internalType": "uint256",
          "name": "tokenId",
          "type": "uint256"
        }
      ],
      "name": "approve",
      "outputs": [],
      "stateMutability": "nonpayable",
      "type": "function"
    },
    {
      "inputs": [
        {
          "internalType": "address",
          "name": "owner",
          "type": "address"
        }
      ],
      "name": "balanceOf",
      "outputs": [
        {
          "internalType": "uint256",
          "name": "",
          "type": "uint256"
        }
      ],
      "stateMutability": "view",
      "type": "function"
    },
    {
      "inputs": [
        {
          "internalType": "address[]",
          "name": "users",
          "type": "address[]"
        }
      ],
      "name": "batchMintProfiles",
      "outputs": [],
      "stateMutability": "nonpayable",
      "type": "function"
    },
    {
      "inputs": [
        {
          "internalType": "uint256",
          "name": "tokenId",
          "type": "uint256"
        }
      ],
      "name": "getAirdropInfo",
      "outputs": [
        {
          "components": [
            {
              "internalType": "uint256",
              "name": "baseAmount",
              "type": "uint256"
            },
            {
              "internalType": "uint256",
              "name": "bonusAmount",
              "type": "uint256"
            },
            {
              "internalType": "bool",
              "name": "claimed",
              "type": "bool"
            },
            {
              "internalType": "uint256",
              "name": "claimTimestamp",
              "type": "uint256"
            }
          ],
          "internalType": "struct ISoulboundProfile.AirdropInfo",
          "name": "",
          "type": "tuple"
        }
      ],
      "stateMutability": "view",
      "type": "function"
    },
    {
      "inputs": [
        {
          "internalType": "uint256",
          "name": "tokenId",
          "type": "uint256"
        }
      ],
      "name": "getApproved",
      "outputs": [
        {
          "internalType": "address",
          "name": "",
          "type": "address"
        }
      ],
      "stateMutability": "view",
      "type": "function"
    },
    {
      "inputs": [
        {
          "internalType": "uint256",
          "name": "tokenId",
          "type": "uint256"
        },
        {
          "internalType": "address",
          "name": "module",
          "type": "address"
        }
      ],
      "name": "getModuleData",
      "outputs": [
        {
          "internalType": "bytes",
          "name": "",
          "type": "bytes"
        }
      ],
      "stateMutability": "view",
      "type": "function"
    },
    {
      "inputs": [],
      "name": "getModules",
      "outputs": [
        {
          "internalType": "address[]",
          "name": "",
          "type": "address[]"
        }
      ],
      "stateMutability": "view",
      "type": "function"
    },
    {
      "inputs": [
        {
          "internalType": "address",
          "name": "user",
          "type": "address"
        }
      ],
      "name": "getProfileId",
      "outputs": [
        {
          "internalType": "uint256",
          "name": "",
          "type": "uint256"
        }
      ],
      "stateMutability": "view",
      "type": "function"
    },
    {
      "inputs": [
        {
          "internalType": "address",
          "name": "user",
          "type": "address"
        }
      ],
      "name": "hasProfile",
      "outputs": [
        {
          "internalType": "bool",
          "name": "",
          "type": "bool"
        }
      ],
      "stateMutability": "view",
      "type": "function"
    },
    {
      "inputs": [
        {
          "internalType": "address",
          "name": "owner",
          "type": "address"
        },
        {
          "internalType": "address",
          "name": "operator",
          "type": "address"
        }
      ],
      "name": "isApprovedForAll",
      "outputs": [
        {
          "internalType": "bool",
          "name": "",
          "type": "bool"
        }
      ],
      "stateMutability": "view",
      "type": "function"
    },
    {
      "inputs": [
        {
          "internalType": "uint256",
          "name": "tokenId",
          "type": "uint256"
        }
      ],
      "name": "markAirdropClaimed",
      "outputs": [],
      "stateMutability": "nonpayable",
      "type": "function"
    },
    {
      "inputs": [
        {
          "internalType": "address",
          "name": "user",
          "type": "address"
        }
      ],
      "name": "mintProfile",
      "outputs": [
        {
          "internalType": "uint256",
          "name": "",
          "type": "uint256"
        }
      ],
      "stateMutability": "nonpayable",
      "type": "function"
    },
    {
      "inputs": [],
      "name": "name",
      "outputs": [
        {
          "internalType": "string",
          "name": "",
          "type": "string"
        }
      ],
      "stateMutability": "view",
      "type": "function"
    },
    {
      "inputs": [],
      "name": "owner",
      "outputs": [
        {
          "internalType": "address",
          "name": "",
          "type": "address"
        }
      ],
      "stateMutability": "view",
      "type": "function"
    },
    {
      "inputs": [
        {
          "internalType": "uint256",
          "name": "tokenId",
          "type": "uint256"
        }
      ],
      "name": "ownerOf",
      "outputs": [
        {
          "internalType": "address",
          "name": "",
          "type": "address"
        }
      ],
      "stateMutability": "view",
      "type": "function"
    },
    {
      "inputs": [
        {
          "internalType": "address",
          "name": "module",
          "type": "address"
        }
      ],
      "name": "removeModule",
      "outputs": [],
      "stateMutability": "nonpayable",
      "type": "function"
    },
    {
      "inputs": [],
      "name": "renounceOwnership",
      "outputs": [],
      "stateMutability": "nonpayable",
      "type": "function"
    },
    {
      "inputs": [
        {
          "internalType": "address",
          "name": "from",
          "type": "address"
        },
        {
          "internalType": "address",
          "name": "to",
          "type": "address"
        },
        {
          "internalType": "uint256",
          "name": "tokenId",
          "type": "uint256"
        }
      ],
      "name": "safeTransferFrom",
      "outputs": [],
      "stateMutability": "nonpayable",
      "type": "function"
    },
    {
      "inputs": [
        {
          "internalType": "address",
          "name": "from",
          "type": "address"
        },
        {
          "internalType": "address",
          "name": "to",
          "type": "address"
        },
        {
          "internalType": "uint256",
          "name": "tokenId",
          "type": "uint256"
        },
        {
          "internalType": "bytes",
          "name": "data",
          "type": "bytes"
        }
      ],
      "name": "safeTransferFrom",
      "outputs": [],
      "stateMutability": "nonpayable",
      "type": "function"
    },
    {
      "inputs": [
        {
          "internalType": "uint256",
          "name": "tokenId",
          "type": "uint256"
        },
        {
          "internalType": "uint256",
          "name": "baseAmount",
          "type": "uint256"
        },
        {
          "internalType": "uint256",
          "name": "bonusAmount",
          "type": "uint256"
        }
      ],
      "name": "setAirdropInfo",
      "outputs": [],
      "stateMutability": "nonpayable",
      "type": "function"
    },
    {
      "inputs": [
        {
          "internalType": "address",
          "name": "operator",
          "type": "address"
        },
        {
          "internalType": "bool",
          "name": "approved",
          "type": "bool"
        }
      ],
      "name": "setApprovalForAll",
      "outputs": [],
      "stateMutability": "nonpayable",
      "type": "function"
    },
    {
      "inputs": [
        {
          "internalType": "string",
          "name": "baseURI",
          "type": "string"
        }
      ],
      "name": "setBaseURI",
      "outputs": [],
      "stateMutability": "nonpayable",
      "type": "function"
    },
    {
      "inputs": [
        {
          "internalType": "uint256",
          "name": "tokenId",
          "type": "uint256"
        },
        {
          "internalType": "string",
          "name": "tokenURI",
          "type": "string"
        }
      ],
      "name": "setTokenURI",
      "outputs": [],
      "stateMutability": "nonpayable",
      "type": "function"
    },
    {
      "inputs": [
        {
          "internalType": "bytes4",
          "name": "interfaceId",
          "type": "bytes4"
        }
      ],
      "name": "supportsInterface",
      "outputs": [
        {
          "internalType": "bool",
          "name": "",
          "type": "bool"
        }
      ],
      "stateMutability": "view",
      "type": "function"
    },
    {
      "inputs": [],
      "name": "symbol",
      "outputs": [
        {
          "internalType": "string",
          "name": "",
          "type": "string"
        }
      ],
      "stateMutability": "view",
      "type": "function"
    },
    {
      "inputs": [
        {
          "internalType": "uint256",
          "name": "tokenId",
          "type": "uint256"
        }
      ],
      "name": "tokenURI",
      "outputs": [
        {
          "internalType": "string",
          "name": "",
          "type": "string"
        }
      ],
      "stateMutability": "view",
      "type": "function"
    },
    {
      "inputs": [
        {
          "internalType": "address",
          "name": "from",
          "type": "address"
        },
        {
          "internalType": "address",
          "name": "to",
          "type": "address"
        },
        {
          "internalType": "uint256",
          "name": "tokenId",
          "type": "uint256"
        }
      ],
      "name": "transferFrom",
      "outputs": [],
      "stateMutability": "nonpayable",
      "type": "function"
    },
    {
      "inputs": [
        {
          "internalType": "address",
          "name": "newOwner",
          "type": "address"
        }
      ],
      "name": "transferOwnership",
      "outputs": [],
      "stateMutability": "nonpayable",
      "type": "function"
    },
    {
      "inputs": [
        {
          "internalType": "uint256",
          "name": "tokenId",
          "type": "uint256"
        },
        {
          "internalType": "address",
          "name": "module",
          "type": "address"
        },
        {
          "internalType": "bytes",
          "name": "data",
          "type": "bytes"
        }
      ],
      "name": "updateModuleData",
      "outputs": [],
      "stateMutability": "nonpayable",
      "type": "function"
    }
  ],
  "bytecode": "0x608034620003c4576001600160401b0390601f90601f1962002923388190038481018316840186811185821017620003c957849282916040528339602093849181010312620003c457516001600160a01b03948582169391849003620003c45762000069620003df565b946011865270536f756c626f756e642050726f66696c6560781b8387015262000091620003df565b6004938482526314d3d55360e21b81830152875195848711620003af5760009687549960019a8b81811c91168015620003a4575b8582101462000391579081878493116200033e575b508490878311600114620002d4578a92620002c8575b5050600019600383901b1c1916908a1b1787555b8251948511620002b55788548981811c91168015620002aa575b8382101462000297579081858796959493116200023e575b5081938511600114620001d95750508592620001cd575b5050600019600383901b1c191690851b1784555b8215620001b75750600780546001600160a01b0319811684179091556040519416907f8be0079c531659141344cd1fd0a4f28419497f9722a3daafe3b4186f6b6457e09080a36009556125239081620004008239f35b60249160405191631e4fbdf760e01b8352820152fd5b0151905038806200014d565b899593929193168588528388209388905b8282106200022457505084116200020a575b505050811b01845562000161565b015160001960f88460031b161c19169055388080620001fc565b8484015186558b97909501949384019390810190620001ea565b9091929394508988528288208580880160051c8201928589106200028d575b9188978d9297969594930160051c01915b8281106200027e57505062000136565b8a81558897508c91016200026e565b925081926200025d565b634e487b7160e01b885260228752602488fd5b90607f16906200011e565b634e487b7160e01b875260418652602487fd5b015190503880620000f0565b90848d9416918b8052868c20928c5b888282106200031e575050841162000304575b505050811b01875562000104565b015160001960f88460031b161c19169055388080620002f6565b91929395968291958786015181550195019301908e9594939291620002e3565b909150898052848a208780850160051c82019287861062000387575b918e91869594930160051c01915b82811062000378575050620000da565b8c81558594508e910162000368565b925081926200035a565b634e487b7160e01b8a526022895260248afd5b90607f1690620000c5565b604186634e487b7160e01b6000525260246000fd5b600080fd5b634e487b7160e01b600052604160045260246000fd5b60408051919082016001600160401b03811183821017620003c95760405256fe6080604081815260048036101561001557600080fd5b600092833560e01c90816301ffc9a7146117c25750806306fdde0314611707578063081812fc146116cc578063095ea7b3146115f0578063162094c41461143757806323b872dd1461141f57806326567eec146113e75780632b39b085146113015780633b6d89da146110805780633cbe09fd14610ef957806342842e0e14610eca57806355f804b314610d1b5780636352211e14610cea57806370a0823114610c95578063715018a614610c375780638da5cb5b14610c0e57806395d89b4114610b4257806397323a00146108af578063a0632461146106e7578063a22cb4651461063e578063a4c8b468146105bf578063a66796f014610513578063a787c80b146104d9578063b2494df314610414578063b88d4fde146103a2578063c87b56dd14610367578063cb33fad1146102c4578063d505b6751461024e578063e985e9c5146101fa5763f2fde38b1461016d57600080fd5b346101f65760203660031901126101f657610186611890565b9061018f6120da565b6001600160a01b039182169283156101e0575050600780546001600160a01b031981168417909155167f8be0079c531659141344cd1fd0a4f28419497f9722a3daafe3b4186f6b6457e0600080a380f35b51631e4fbdf760e01b8152908101849052602490fd5b8280fd5b50503461024a578060031936011261024a57602091610217611890565b826102206118ab565b9260018060a01b03809316815260058652209116600052825260ff81600020541690519015158152f35b5080fd5b50346101f65760203660031901126101f65780359061026c82612106565b156102b757818452600b60205260ff60028486200154166102a957508252600b602052812060028101600160ff1982541617905560034291015580f35b8251630c8d9eab60e31b8152fd5b8251626f708760e21b8152fd5b50346101f65760203660031901126101f65780359083606084516102e781611923565b8281528260208201528286820152015261030082612106565b156102b757508252600b60205290819020815160809261031f82611923565b8254928383526001810154602084019081526060600360ff60028501541693858701941515855201549401938452825194855251602085015251151590830152516060820152f35b50913461039f57602036600319011261039f575061038861039b9235611e96565b905191829160208352602083019061186b565b0390f35b80fd5b83823461024a57608036600319011261024a576103bd611890565b6103c56118ab565b604435906064356001600160401b03811161041057366023820112156104105761040d948160246103fb933693013591016119ab565b92610407838383611b65565b336123cc565b80f35b8580fd5b82843461039f578060031936011261039f578151600c80548083529083526020939284830192909183907fdf6966c971051c3d54ec59162606531493a51404a002842f56009d7e5cf4a8c790845b8181106104bc575050508161047891038261196f565b83519485948186019282875251809352850193925b82811061049c57505050500390f35b83516001600160a01b03168552869550938101939281019260010161048d565b82546001600160a01b031684529288019260019283019201610462565b50503461024a57602036600319011261024a5760209181906001600160a01b03610501611890565b168152600a8452205415159051908152f35b50913461039f578160031936011261039f57823561052f6118ab565b61053882612106565b156105b0576001600160a01b0316808352600f6020528383205490949060ff16156105a25761039b61058985878187878152600e602052209060005260205261059081600020825193848092611aae565b038361196f565b5191829160208352602083019061186b565b8351634e25774f60e11b8152fd5b50505051626f708760e21b8152fd5b5091903461024a57606036600319011261024a578235906024356044356105e584612106565b1561062f57907f0ba67a746d9e25cb65775eaedd4e0c19212e9661072a092afefb857fc3bb5fb89291848652600b602052806001848820848155015582519182526020820152a280f35b8251626f708760e21b81528690fd5b5090346101f657806003193601126101f657610658611890565b9060243580151592838203610410576001600160a01b03169384156106d057506106a390338652600560205282862085600052602052826000209060ff801983541691151516179055565b519081527f17307eab39ab6107e8899845ad3d59bd9653f200f220920489ca2b5937696c3160203392a380f35b8251630b61174360e31b8152908101859052602490fd5b5090346101f65760203660031901126101f657610702611890565b9061070b6120da565b6001600160a01b03918216808552600f6020528185205490929060ff161561089f57845b600c805480831015610893579083918661074885611dad565b949054600395861b1c16146107625750505060010161072f565b91949596909392600019928381019081116108805790610795856107886107b394611dad565b9054908a1b1c1691611dad565b90919060018060a01b038084549260031b9316831b921b1916179055565b835490811561086d575001926107c884611dad565b81939154921b1b19169055555b818352600d602052828181206107eb81546119e2565b8061082c575b5050829052600f6020528220805460ff191690557f0a1ee69f55c33d8467c69ca59ce2007a737a88603d75392972520bf67cb513b88280a280f35b601f8111600114610846575060009150555b8238806107f1565b90806000918452610866601f60208620940160051c840160018501611dde565b555561083e565b634e487b7160e01b895260319052602488fd5b634e487b7160e01b8a526011835260248afd5b505050509091506107d5565b8151634e25774f60e11b81528490fd5b5090346101f65760603660031901126101f6578135906108cd6118ab565b6001600160401b039390604435858111610b3e576108ee90369084016118c1565b600754909491926001600160a01b0391821633141580610b32575b610b235761091687612106565b15610b14571695868852602093600f855260ff838a20541615610b065782516329bfe8db60e21b8152818101869052858180610956602482018b8a611b44565b03818c5afa908115610afc578a91610ac2575b5015610ab457868952600e855282892088600052855282600020918611610aa1575061099f8561099983546119e2565b83611df5565b87601f8611600114610a185791859493916109f5867fb6ef80343102210f7dd33846018a4b985472f76804c6277d195200ccf620ca4198610a07968d91610a0d575b508160011b916000199060031b1c19161790565b90555b51938385948552840191611b44565b0390a380f35b9050850135386109e1565b81895284892090601f1987168a5b818110610a8a57509187969593917fb6ef80343102210f7dd33846018a4b985472f76804c6277d195200ccf620ca4198610a07969410610a70575b5050600186811b0190556109f8565b840135600019600389901b60f8161c191690553880610a61565b91928760018192868a013581550194019201610a26565b634e487b7160e01b895260419052602488fd5b825163444289bf60e11b8152fd5b90508581813d8311610af5575b610ad9818361196f565b81010312610af157518015158103610af15738610969565b8980fd5b503d610acf565b84513d8c823e3d90fd5b8251634e25774f60e11b8152fd5b8251626f708760e21b81528590fd5b82516282b42960e81b81528590fd5b50818116331415610909565b8680fd5b82843461039f578060031936011261039f57508051906000908260019260015493610b6c856119e2565b9081845260209586600182169182600014610bec575050600114610bac575b505061039b9291610b9d91038561196f565b5192828493845283019061186b565b90859250600160005282600020916000925b828410610bd45750505082010181610b9d610b8b565b8054848a018601528895508794909301928101610bbe565b60ff19168682015292151560051b85019092019250839150610b9d9050610b8b565b50503461024a578160031936011261024a5760075490516001600160a01b039091168152602090f35b833461039f578060031936011261039f57610c506120da565b600780546001600160a01b031981169091556000906001600160a01b03167f8be0079c531659141344cd1fd0a4f28419497f9722a3daafe3b4186f6b6457e08280a380f35b50913461039f57602036600319011261039f576001600160a01b03610cb8611890565b16928315610cd55750806020938392526003845220549051908152f35b91516322718ad960e21b815291820152602490fd5b50913461039f57602036600319011261039f5750610d0a6020923561209f565b90516001600160a01b039091168152f35b5090346101f65760209081600319360112610ec6576001600160401b0390833582811161041057610d4f90369086016118c1565b949092610d5a6120da565b8511610eb35750610d6c6008546119e2565b601f8111610e77575b5084601f8511600114610ded5791610ddc91610dca86807f6741b2fc379fad678116fe3d4d4b9a1a184ab53ba36b86ad0fa66340b1ab41ad9897968a91610de257508160011b916000199060031b1c19161790565b60085551938385948552840191611b44565b0390a180f35b9050840135386109e1565b6008865283862090601f198616875b818110610e60575091610ddc9391877f6741b2fc379fad678116fe3d4d4b9a1a184ab53ba36b86ad0fa66340b1ab41ad9897969410610e46575b5050600185811b016008556109f8565b830135600019600388901b60f8161c191690553880610e36565b919286600181928689013581550194019201610dfc565b610ea390600860005284600020601f870160051c810191868810610ea9575b601f0160051c0190611dde565b38610d75565b9091508190610e96565b634e487b7160e01b865260419052602485fd5b8380fd5b50503461024a5761040d90610ede366118ee565b91925192610eeb84611954565b858452610407838383611b65565b5090346101f6576020916020600319360112610ec6578035926001600160401b039182851161041057366023860112156104105784810135928311610410576024850194602436918560051b010111610410576101f483116110725750845b828110610f63578580f35b6001600160a01b039081610f80610f7b83878a611e31565b611e41565b16156110675781610f95610f7b83878a611e31565b168752600a835284872054611067576009805490610fb282611d88565b9055610fcb81610fc6610f7b85898c611e31565b612123565b7f2c558dc282bc6b6e42f6a0b5b04f430b1d90a6a7308cb081e34cb9f2139954ad84875194610ff986611923565b8a8652818601958b875260038c6110448c84018281528d60608601938085528a8152600b8952209451855560019a518b860155511515600285019060ff801983541691151516179055565b51910155611056610f7b868a8d611e31565b16928851908152a201935b93610f58565b600191500193611061565b8351631e80759560e21b8152fd5b5082903461024a578260031936011261024a5761109b611890565b6001600160401b0391906024358381116112fd576110bc90369084016118c1565b926110c56120da565b6001600160a01b0383169485156112ee57858752602093600f855260ff89892054166112de57600c5490600a8210156112ce57600160401b8210156112bb5761111a9061079560019360018101600c55611dad565b868852600d8552888820908287116112bb5786906111428261113c85546119e2565b85611df5565b8990601f831160011461125657509080611170928b9161124b57508160011b916000199060031b1c19161790565b90555b858752600f8452878720805460ff19166001179055853b15610b3e57875163189acdbd60e31b81523083820152908782602481838b5af18015611241576111f5575b5050506111ef907f2ef080779320f1484c013b5e182f330cf5537e9b3186c87b077c4ca26d802cb194959651938385948552840191611b44565b0390a280f35b81989792981161122e578652949550807f2ef080779320f1484c013b5e182f330cf5537e9b3186c87b077c4ca26d802cb16111ef6111b5565b634e487b7160e01b825260418852602482fd5b89513d8a823e3d90fd5b90508601358c6109e1565b91601f198116848c52888c20938c905b8a8383106112a05750505010611286575b5050600186811b019055611173565b850135600019600389901b60f8161c191690558980611277565b8a860135875595810195948501948c94509190910190611266565b634e487b7160e01b895260418452602489fd5b8951631e80759560e21b81528490fd5b88516395b0718d60e01b81528390fd5b50865163e6c4247b60e01b8152fd5b8480fd5b5091903461024a57602092836003193601126101f65761131f611890565b9260018060a01b03841691828252600a8652838220546113d95750611353600954809561134b82611d88565b600955612123565b600383519161136183611923565b8083526113a7878401828152868501908382528760608701948086528a8152600b8c522095518655516001860155511515600285019060ff801983541691151516179055565b519101557f2c558dc282bc6b6e42f6a0b5b04f430b1d90a6a7308cb081e34cb9f2139954ad848351858152a251908152f35b8351631bbdf5c560e31b8152fd5b50503461024a57602036600319011261024a5760209181906001600160a01b0361140f611890565b168152600a845220549051908152f35b833461039f5761040d611431366118ee565b91611b65565b5091903461024a578060031936011261024a578235906001600160401b036024358181116112fd5761146c90369087016118c1565b926114756120da565b61147e85612106565b156115e25761148e3685846119ab565b9685875260209360068552828820918951918211610aa157506114bb816114b584546119e2565b84611df5565b84601f821160011461155857816111ef95949392611513928b9c7f5c4a5cb99184da9ed2a8c3abcde1fecc1c6862d4fbff7d14c3f17f0dec9ebc999b9c9261154d575b50508160011b916000199060031b1c19161790565b90555b7ff8e1a15aba9398e019f0b49df1a4fde98ee17ae345cb5f6b5e2c27f5033e8ce7848251898152a151938385948552840191611b44565b0151905038806114fe565b82895285892099601f1983168a5b8181106115cb57509a60019284926111ef989796957f5c4a5cb99184da9ed2a8c3abcde1fecc1c6862d4fbff7d14c3f17f0dec9ebc999c9d9e106115b2575b505050811b019055611516565b015160001960f88460031b161c191690553880806115a5565b838301518d556001909c019b928801928801611566565b51626f708760e21b81528690fd5b5090346101f657806003193601126101f65761160a611890565b916024356116178161209f565b331515806116b9575b80611690575b61167a576001600160a01b039485169482918691167f8c5be1e5ebec7d5bd14f71427d1e84f3dd0314c0f7b2291e5b200ac8c7c3b9258880a48452602052822080546001600160a01b031916909117905580f35b835163a9fbf51f60e01b81523381850152602490fd5b506001600160a01b03811686526005602090815284872033885290528386205460ff1615611626565b506001600160a01b038116331415611620565b50346101f65760203660031901126101f6579182602093356116ed8161209f565b50825283528190205490516001600160a01b039091168152f35b82843461039f578060031936011261039f5781519182828354611729816119e2565b908184526020956001918760018216918260001461179b57505060011461175e575b50505061039b9291610b9d91038561196f565b91908693508280528383205b8284106117835750505082010181610b9d61039b61174b565b8054848a01860152889550879490930192810161176a565b60ff19168782015293151560051b86019093019350849250610b9d915061039b905061174b565b925050346101f65760203660031901126101f6573563ffffffff60e01b81168091036101f65760209250632483248360e11b8114908115611805575b5015158152f35b6380ac58cd60e01b811491508115611837575b8115611826575b50386117fe565b6301ffc9a760e01b1490503861181f565b635b5e139f60e01b81149150611818565b60005b83811061185b5750506000910152565b818101518382015260200161184b565b9060209161188481518092818552858086019101611848565b601f01601f1916010190565b600435906001600160a01b03821682036118a657565b600080fd5b602435906001600160a01b03821682036118a657565b9181601f840112156118a6578235916001600160401b0383116118a657602083818601950101116118a657565b60609060031901126118a6576001600160a01b039060043582811681036118a6579160243590811681036118a6579060443590565b608081019081106001600160401b0382111761193e57604052565b634e487b7160e01b600052604160045260246000fd5b602081019081106001600160401b0382111761193e57604052565b90601f801991011681019081106001600160401b0382111761193e57604052565b6001600160401b03811161193e57601f01601f191660200190565b9291926119b782611990565b916119c5604051938461196f565b8294818452818301116118a6578281602093846000960137010152565b90600182811c92168015611a12575b60208310146119fc57565b634e487b7160e01b600052602260045260246000fd5b91607f16916119f1565b60085460009291611a2c826119e2565b90818152602092600190600181169081600014611a915750600114611a52575b50505050565b929394509060086000528360002092846000945b838610611a7d575050505001019038808080611a4c565b805485870183015294019385908201611a66565b60ff191685840152505090151560051b0101915038808080611a4c565b805460009392611abd826119e2565b91828252602093600191600181169081600014611b255750600114611ae4575b5050505050565b90939495506000929192528360002092846000945b838610611b1157505050500101903880808080611add565b805485870183015294019385908201611af9565b60ff19168685015250505090151560051b010191503880808080611add565b908060209392818452848401376000828201840152601f01601f1916010190565b6001600160a01b039182169290918315611d6f57600092828452602094600286526040958387872054168015801590818092611d67575b611d565787949392919080611d4e575b611d3d575b80611d36575b611d25575b508287526002815284888820541696879133151580611c8f575b509060027fddf252ad1be2c89b69c2b068fc378daa952ba7f163c4a11628f55a4df523b3ef9284611c5c575b858352600381528b8320805460010190558683525289812080546001600160a01b0319168517905580a41692838303611c3b5750505050565b6064945051926364283d7b60e01b8452600484015260248301526044820152fd5b600087815260046020526040902080546001600160a01b0319169055848352600381528b83208054600019019055611c02565b91939450915080611ce4575b15611cab57859291879138611bd6565b878688611cc8576024915190637e27328960e01b82526004820152fd5b604491519063177e802f60e01b82523360048301526024820152fd5b503387148015611d09575b80611c9b5750858252600481523385898420541614611c9b565b5086825260058152878220338352815260ff8883205416611cef565b8752600a8152868881205538611bbc565b5087611bb7565b838952600a8352848a8a2055611bb1565b506001611bac565b8951639cbe235760e01b8152600490fd5b506001611b9c565b604051633250574960e11b815260006004820152602490fd5b6000198114611d975760010190565b634e487b7160e01b600052601160045260246000fd5b600c54811015611dc857600c60005260206000200190600090565b634e487b7160e01b600052603260045260246000fd5b818110611de9575050565b60008155600101611dde565b9190601f8111611e0457505050565b611e2f926000526020600020906020601f840160051c83019310610ea957601f0160051c0190611dde565b565b9190811015611dc85760051b0190565b356001600160a01b03811681036118a65790565b6020611e2f919392936040519481611e768793518092868087019101611848565b8201611e8a82518093868085019101611848565b0103808552018361196f565b611e9f8161209f565b506000908082526006602052604090611ec2611ec9838520845192838092611aae565b038261196f565b8251611ed881611ec281611a1c565b805115612097578151612089575050611ef08161209f565b50815192611f0884611f0181611a1c565b038561196f565b8351156120765781908072184f03e93ff9f4daa797ed6e38ed64bf6a1f0160401b8381811015612069575b50506d04ee2d6d415b85acef81000000008085101561205c575b50662386f26fc100008085101561204f575b506305f5e10080851015612042575b5061271080851015612035575b506064841015612027575b602190600a8095101561201f575b929190506021600193849260018201611fb8611faf82611990565b9951998a61196f565b808952611fc7601f1991611990565b013660208a013750860101905b611fe9575b50505050611fe691611e55565b90565b600019019083906f181899199a1a9b1b9c1cb0b131b232b360811b8282061a83530491821561201a57919082611fd4565b611fd9565b600101611f94565b606490930492600201611f86565b6004919404930138611f7b565b6008919404930138611f6e565b6010919404930138611f5f565b6020919404930138611f4d565b0493508490503880611f33565b925050519061208482611954565b815290565b91509150611fe69250611e55565b509250505090565b6000818152600260205260409020546001600160a01b03169081156120c2575090565b60249060405190637e27328960e01b82526004820152fd5b6007546001600160a01b031633036120ee57565b60405163118cdaa760e01b8152336004820152602490fd5b6000908152600260205260409020546001600160a01b0316151590565b604080519261213184611954565b60008085526001600160a01b03948486169491929185156123b4578284526020966002885280868620541680158015908180926123ac575b61239b5780612393575b612382575b8061237b575b61236a575b5083855260028852858520541683878215159283612337575b81885260038b528888208054600101905582885260028b5288882080546001600160a01b031916831790557fddf252ad1be2c89b69c2b068fc378daa952ba7f163c4a11628f55a4df523b3ef8880a461231f573b6121fd575b505050505050565b8561223b918596979894955180938192630a85bd0160e11b96878452336004850152896024850152604484015260806064840152608483019061186b565b0381878a5af18491816122df575b506122a8575050503d6000146122a0573d61226381611990565b906122708451928361196f565b81528091853d92013e5b8051938461229a578251633250574960e11b815260048101859052602490fd5b84925001fd5b50606061227a565b919550915063ffffffff60e01b16036122c85750503880808080806121f5565b602492505190633250574960e11b82526004820152fd5b9091508781813d8311612318575b6122f7818361196f565b810103126112fd57516001600160e01b0319811681036112fd579038612249565b503d6122ed565b84516339e3563760e11b815260048101859052602490fd5b600083815260046020526040902080546001600160a01b031916905580885260038b52888820805460001901905561219c565b8552600a8852848681205538612183565b508561217e565b888752600a8a528588882055612178565b506001612173565b8851639cbe235760e01b8152600490fd5b506001612169565b8451633250574960e11b815260048101859052602490fd5b909192833b6123dc575050505050565b604051630a85bd0160e11b8082526001600160a01b03938416600483015293831660248201526044810191909152608060648201526020959190931693909190839061242c90608483019061186b565b039285816000958187895af18491816124d6575b506124a0575050503d600014612498573d61245a81611990565b90612468604051928361196f565b81528091843d92013e5b8051928361249357604051633250574960e11b815260048101849052602490fd5b019050fd5b506060612472565b919450915063ffffffff60e01b16036124be57503880808080611add565b60249060405190633250574960e11b82526004820152fd5b9091508681813d831161250f575b6124ee818361196f565b810103126112fd57516001600160e01b0319811681036112fd579038612440565b503d6124e456fea164736f6c6343000818000a",
  "linkReferences": {},
  "deployedLinkReferences": {}
}