{
  "_format": "hh-sol-artifact-1",
  "contractName": "WishlistRegistry",
  "sourceName": "contracts/WishlistRegistry.sol",
  "abi": [
    {
      "inputs": [
        {
          "internalType": "address",
          "name": "initialOwner",
          "type": "address"
        }
      ],
      "stateMutability": "nonpayable",
      "type": "constructor"
    },
    {
      "inputs": [],
      "name": "AlreadyReferred",
      "type": "error"
    },
    {
      "inputs": [],
      "name": "AlreadyRegistered",
      "type": "error"
    },
    {
      "inputs": [],
      "name": "BatchSizeTooLarge",
      "type": "error"
    },
    {
      "inputs": [],
      "name": "EnforcedPause",
      "type": "error"
    },
    {
      "inputs": [],
      "name": "ExpectedPause",
      "type": "error"
    },
    {
      "inputs": [],
      "name": "InvalidArrayLengths",
      "type": "error"
    },
    {
      "inputs": [],
      "name": "InvalidEmail",
      "type": "error"
    },
    {
      "inputs": [],
      "name": "InvalidProof",
      "type": "error"
    },
    {
      "inputs": [],
      "name": "InvalidSocial",
      "type": "error"
    },
    {
      "inputs": [],
      "name": "MaxReferralsReached",
      "type": "error"
    },
    {
      "inputs": [],
      "name": "MaxRegistrationsReached",
      "type": "error"
    },
    {
      "inputs": [],
      "name": "NotRegistered",
      "type": "error"
    },
    {
      "inputs": [
        {
          "internalType": "address",
          "name": "owner",
          "type": "address"
        }
      ],
      "name": "OwnableInvalidOwner",
      "type": "error"
    },
    {
      "inputs": [
        {
          "internalType": "address",
          "name": "account",
          "type": "address"
        }
      ],
      "name": "OwnableUnauthorizedAccount",
      "type": "error"
    },
    {
      "inputs": [],
      "name": "ReentrancyGuardReentrantCall",
      "type": "error"
    },
    {
      "inputs": [],
      "name": "ReferralAlreadyValidated",
      "type": "error"
    },
    {
      "inputs": [],
      "name": "ReferralNotFound",
      "type": "error"
    },
    {
      "inputs": [],
      "name": "ReferralsDisabled",
      "type": "error"
    },
    {
      "inputs": [],
      "name": "RegistrationNotOpen",
      "type": "error"
    },
    {
      "inputs": [],
      "name": "SelfReferralNotAllowed",
      "type": "error"
    },
    {
      "inputs": [],
      "name": "Unauthorized",
      "type": "error"
    },
    {
      "anonymous": false,
      "inputs": [
        {
          "indexed": false,
          "internalType": "uint256",
          "name": "count",
          "type": "uint256"
        },
        {
          "indexed": false,
          "internalType": "uint256",
          "name": "timestamp",
          "type": "uint256"
        }
      ],
      "name": "BatchRegistration",
      "type": "event"
    },
    {
      "anonymous": false,
      "inputs": [
        {
          "indexed": true,
          "internalType": "bytes32",
          "name": "root",
          "type": "bytes32"
        },
        {
          "indexed": false,
          "internalType": "uint256",
          "name": "count",
          "type": "uint256"
        }
      ],
      "name": "BatchVerificationSuccessful",
      "type": "event"
    },
    {
      "anonymous": false,
      "inputs": [
        {
          "indexed": true,
          "internalType": "address",
          "name": "user",
          "type": "address"
        },
        {
          "indexed": false,
          "internalType": "uint256",
          "name": "newScore",
          "type": "uint256"
        }
      ],
      "name": "InfluenceScoreUpdated",
      "type": "event"
    },
    {
      "anonymous": false,
      "inputs": [
        {
          "indexed": true,
          "internalType": "address",
          "name": "user",
          "type": "address"
        },
        {
          "indexed": false,
          "internalType": "uint256",
          "name": "newScore",
          "type": "uint256"
        }
      ],
      "name": "InfluenceScoreUpdated",
      "type": "event"
    },
    {
      "anonymous": false,
      "inputs": [
        {
          "indexed": false,
          "internalType": "bytes32",
          "name": "root",
          "type": "bytes32"
        }
      ],
      "name": "MerkleRootSet",
      "type": "event"
    },
    {
      "anonymous": false,
      "inputs": [
        {
          "indexed": true,
          "internalType": "address",
          "name": "user",
          "type": "address"
        },
        {
          "indexed": false,
          "internalType": "uint256",
          "name": "tokenId",
          "type": "uint256"
        }
      ],
      "name": "NFTAssigned",
      "type": "event"
    },
    {
      "anonymous": false,
      "inputs": [
        {
          "indexed": true,
          "internalType": "address",
          "name": "previousOwner",
          "type": "address"
        },
        {
          "indexed": true,
          "internalType": "address",
          "name": "newOwner",
          "type": "address"
        }
      ],
      "name": "OwnershipTransferred",
      "type": "event"
    },
    {
      "anonymous": false,
      "inputs": [
        {
          "indexed": false,
          "internalType": "address",
          "name": "account",
          "type": "address"
        }
      ],
      "name": "Paused",
      "type": "event"
    },
    {
      "anonymous": false,
      "inputs": [
        {
          "indexed": true,
          "internalType": "address",
          "name": "referrer",
          "type": "address"
        },
        {
          "indexed": true,
          "internalType": "address",
          "name": "referee",
          "type": "address"
        },
        {
          "indexed": false,
          "internalType": "uint256",
          "name": "timestamp",
          "type": "uint256"
        }
      ],
      "name": "ReferralCreated",
      "type": "event"
    },
    {
      "anonymous": false,
      "inputs": [
        {
          "indexed": true,
          "internalType": "address",
          "name": "referrer",
          "type": "address"
        },
        {
          "indexed": true,
          "internalType": "address",
          "name": "referee",
          "type": "address"
        },
        {
          "indexed": false,
          "internalType": "uint256",
          "name": "timestamp",
          "type": "uint256"
        }
      ],
      "name": "ReferralCreated",
      "type": "event"
    },
    {
      "anonymous": false,
      "inputs": [
        {
          "indexed": true,
          "internalType": "address",
          "name": "user",
          "type": "address"
        },
        {
          "indexed": false,
          "internalType": "uint256",
          "name": "amount",
          "type": "uint256"
        },
        {
          "indexed": false,
          "internalType": "bool",
          "name": "isReferrer",
          "type": "bool"
        }
      ],
      "name": "ReferralRewarded",
      "type": "event"
    },
    {
      "anonymous": false,
      "inputs": [
        {
          "indexed": true,
          "internalType": "address",
          "name": "user",
          "type": "address"
        },
        {
          "indexed": false,
          "internalType": "uint256",
          "name": "amount",
          "type": "uint256"
        },
        {
          "indexed": false,
          "internalType": "bool",
          "name": "isReferrer",
          "type": "bool"
        }
      ],
      "name": "ReferralRewarded",
      "type": "event"
    },
    {
      "anonymous": false,
      "inputs": [
        {
          "indexed": false,
          "internalType": "uint256",
          "name": "referralReward",
          "type": "uint256"
        },
        {
          "indexed": false,
          "internalType": "uint256",
          "name": "referrerReward",
          "type": "uint256"
        },
        {
          "indexed": false,
          "internalType": "uint256",
          "name": "maxReferralsPerUser",
          "type": "uint256"
        }
      ],
      "name": "ReferralSystemConfigUpdated",
      "type": "event"
    },
    {
      "anonymous": false,
      "inputs": [
        {
          "indexed": false,
          "internalType": "uint256",
          "name": "referralReward",
          "type": "uint256"
        },
        {
          "indexed": false,
          "internalType": "uint256",
          "name": "referrerReward",
          "type": "uint256"
        },
        {
          "indexed": false,
          "internalType": "uint256",
          "name": "maxReferralsPerUser",
          "type": "uint256"
        }
      ],
      "name": "ReferralSystemConfigUpdated",
      "type": "event"
    },
    {
      "anonymous": false,
      "inputs": [
        {
          "indexed": true,
          "internalType": "address",
          "name": "referrer",
          "type": "address"
        },
        {
          "indexed": true,
          "internalType": "address",
          "name": "referee",
          "type": "address"
        },
        {
          "indexed": false,
          "internalType": "uint256",
          "name": "reward",
          "type": "uint256"
        }
      ],
      "name": "ReferralValidated",
      "type": "event"
    },
    {
      "anonymous": false,
      "inputs": [
        {
          "indexed": true,
          "internalType": "address",
          "name": "referrer",
          "type": "address"
        },
        {
          "indexed": true,
          "internalType": "address",
          "name": "referee",
          "type": "address"
        },
        {
          "indexed": false,
          "internalType": "uint256",
          "name": "reward",
          "type": "uint256"
        }
      ],
      "name": "ReferralValidated",
      "type": "event"
    },
    {
      "anonymous": false,
      "inputs": [],
      "name": "RegistrationClosed",
      "type": "event"
    },
    {
      "anonymous": false,
      "inputs": [],
      "name": "RegistrationOpened",
      "type": "event"
    },
    {
      "anonymous": false,
      "inputs": [
        {
          "indexed": true,
          "internalType": "address",
          "name": "user",
          "type": "address"
        },
        {
          "indexed": false,
          "internalType": "string",
          "name": "platform",
          "type": "string"
        },
        {
          "indexed": false,
          "internalType": "string",
          "name": "handle",
          "type": "string"
        }
      ],
      "name": "SocialConnected",
      "type": "event"
    },
    {
      "anonymous": false,
      "inputs": [
        {
          "indexed": true,
          "internalType": "address",
          "name": "user",
          "type": "address"
        },
        {
          "indexed": false,
          "internalType": "string",
          "name": "platform",
          "type": "string"
        },
        {
          "indexed": false,
          "internalType": "string",
          "name": "handle",
          "type": "string"
        }
      ],
      "name": "SocialConnected",
      "type": "event"
    },
    {
      "anonymous": false,
      "inputs": [
        {
          "indexed": true,
          "internalType": "address",
          "name": "user",
          "type": "address"
        },
        {
          "indexed": false,
          "internalType": "string",
          "name": "platform",
          "type": "string"
        }
      ],
      "name": "SocialDisconnected",
      "type": "event"
    },
    {
      "anonymous": false,
      "inputs": [
        {
          "indexed": true,
          "internalType": "address",
          "name": "user",
          "type": "address"
        },
        {
          "indexed": false,
          "internalType": "string",
          "name": "platform",
          "type": "string"
        }
      ],
      "name": "SocialDisconnected",
      "type": "event"
    },
    {
      "anonymous": false,
      "inputs": [
        {
          "indexed": true,
          "internalType": "address",
          "name": "user",
          "type": "address"
        },
        {
          "indexed": false,
          "internalType": "string",
          "name": "platform",
          "type": "string"
        },
        {
          "indexed": false,
          "internalType": "bool",
          "name": "verified",
          "type": "bool"
        }
      ],
      "name": "SocialVerified",
      "type": "event"
    },
    {
      "anonymous": false,
      "inputs": [
        {
          "indexed": true,
          "internalType": "address",
          "name": "user",
          "type": "address"
        },
        {
          "indexed": false,
          "internalType": "string",
          "name": "platform",
          "type": "string"
        },
        {
          "indexed": false,
          "internalType": "bool",
          "name": "verified",
          "type": "bool"
        }
      ],
      "name": "SocialVerified",
      "type": "event"
    },
    {
      "anonymous": false,
      "inputs": [
        {
          "indexed": false,
          "internalType": "address",
          "name": "account",
          "type": "address"
        }
      ],
      "name": "Unpaused",
      "type": "event"
    },
    {
      "anonymous": false,
      "inputs": [
        {
          "indexed": true,
          "internalType": "address",
          "name": "user",
          "type": "address"
        },
        {
          "indexed": false,
          "internalType": "uint256",
          "name": "timestamp",
          "type": "uint256"
        },
        {
          "indexed": false,
          "internalType": "string",
          "name": "email",
          "type": "string"
        },
        {
          "indexed": false,
          "internalType": "string",
          "name": "social",
          "type": "string"
        }
      ],
      "name": "UserRegistered",
      "type": "event"
    },
    {
      "anonymous": false,
      "inputs": [
        {
          "indexed": true,
          "internalType": "address",
          "name": "user",
          "type": "address"
        }
      ],
      "name": "UserRemoved",
      "type": "event"
    },
    {
      "anonymous": false,
      "inputs": [
        {
          "indexed": true,
          "internalType": "bytes32",
          "name": "leaf",
          "type": "bytes32"
        },
        {
          "indexed": true,
          "internalType": "bytes32",
          "name": "root",
          "type": "bytes32"
        }
      ],
      "name": "VerificationSuccessful",
      "type": "event"
    },
    {
      "anonymous": false,
      "inputs": [
        {
          "indexed": true,
          "internalType": "address",
          "name": "operator",
          "type": "address"
        },
        {
          "indexed": false,
          "internalType": "uint256",
          "name": "count",
          "type": "uint256"
        }
      ],
      "name": "WishlistExported",
      "type": "event"
    },
    {
      "inputs": [
        {
          "internalType": "address[]",
          "name": "users",
          "type": "address[]"
        },
        {
          "internalType": "string[]",
          "name": "emails",
          "type": "string[]"
        },
        {
          "internalType": "string[]",
          "name": "socials",
          "type": "string[]"
        }
      ],
      "name": "batchRegister",
      "outputs": [],
      "stateMutability": "nonpayable",
      "type": "function"
    },
    {
      "inputs": [],
      "name": "closeRegistration",
      "outputs": [],
      "stateMutability": "nonpayable",
      "type": "function"
    },
    {
      "inputs": [
        {
          "internalType": "uint256",
          "name": "referralReward",
          "type": "uint256"
        },
        {
          "internalType": "uint256",
          "name": "referrerReward",
          "type": "uint256"
        },
        {
          "internalType": "uint256",
          "name": "maxReferralsPerUser",
          "type": "uint256"
        }
      ],
      "name": "configureReferralSystem",
      "outputs": [],
      "stateMutability": "nonpayable",
      "type": "function"
    },
    {
      "inputs": [
        {
          "internalType": "string",
          "name": "platform",
          "type": "string"
        },
        {
          "internalType": "string",
          "name": "handle",
          "type": "string"
        },
        {
          "internalType": "uint256",
          "name": "followers",
          "type": "uint256"
        }
      ],
      "name": "connectSocial",
      "outputs": [],
      "stateMutability": "nonpayable",
      "type": "function"
    },
    {
      "inputs": [],
      "name": "controller",
      "outputs": [
        {
          "internalType": "address",
          "name": "",
          "type": "address"
        }
      ],
      "stateMutability": "view",
      "type": "function"
    },
    {
      "inputs": [
        {
          "internalType": "address",
          "name": "referrer",
          "type": "address"
        }
      ],
      "name": "createReferral",
      "outputs": [],
      "stateMutability": "nonpayable",
      "type": "function"
    },
    {
      "inputs": [
        {
          "internalType": "string",
          "name": "platform",
          "type": "string"
        }
      ],
      "name": "disconnectSocial",
      "outputs": [],
      "stateMutability": "nonpayable",
      "type": "function"
    },
    {
      "inputs": [
        {
          "internalType": "address",
          "name": "user",
          "type": "address"
        }
      ],
      "name": "getActivePlatforms",
      "outputs": [
        {
          "internalType": "string[]",
          "name": "",
          "type": "string[]"
        }
      ],
      "stateMutability": "view",
      "type": "function"
    },
    {
      "inputs": [],
      "name": "getAllRegisteredUsers",
      "outputs": [
        {
          "internalType": "address[]",
          "name": "",
          "type": "address[]"
        }
      ],
      "stateMutability": "view",
      "type": "function"
    },
    {
      "inputs": [
        {
          "internalType": "address",
          "name": "user",
          "type": "address"
        }
      ],
      "name": "getInfluenceScore",
      "outputs": [
        {
          "internalType": "uint256",
          "name": "",
          "type": "uint256"
        }
      ],
      "stateMutability": "view",
      "type": "function"
    },
    {
      "inputs": [
        {
          "internalType": "address",
          "name": "user",
          "type": "address"
        }
      ],
      "name": "getReferral",
      "outputs": [
        {
          "components": [
            {
              "internalType": "address",
              "name": "referrer",
              "type": "address"
            },
            {
              "internalType": "uint256",
              "name": "timestamp",
              "type": "uint256"
            },
            {
              "internalType": "bool",
              "name": "validated",
              "type": "bool"
            },
            {
              "internalType": "uint256",
              "name": "reward",
              "type": "uint256"
            }
          ],
          "internalType": "struct ReferralSystem.Referral",
          "name": "",
          "type": "tuple"
        }
      ],
      "stateMutability": "view",
      "type": "function"
    },
    {
      "inputs": [
        {
          "internalType": "address",
          "name": "referrer",
          "type": "address"
        }
      ],
      "name": "getReferrerInfo",
      "outputs": [
        {
          "components": [
            {
              "internalType": "uint256",
              "name": "totalReferrals",
              "type": "uint256"
            },
            {
              "internalType": "uint256",
              "name": "validatedReferrals",
              "type": "uint256"
            },
            {
              "internalType": "uint256",
              "name": "totalRewards",
              "type": "uint256"
            },
            {
              "internalType": "address[]",
              "name": "referredUsers",
              "type": "address[]"
            }
          ],
          "internalType": "struct ReferralSystem.ReferrerInfo",
          "name": "",
          "type": "tuple"
        }
      ],
      "stateMutability": "view",
      "type": "function"
    },
    {
      "inputs": [
        {
          "internalType": "uint256",
          "name": "startIndex",
          "type": "uint256"
        },
        {
          "internalType": "uint256",
          "name": "count",
          "type": "uint256"
        }
      ],
      "name": "getRegisteredUsersBatch",
      "outputs": [
        {
          "internalType": "address[]",
          "name": "",
          "type": "address[]"
        }
      ],
      "stateMutability": "view",
      "type": "function"
    },
    {
      "inputs": [
        {
          "internalType": "address[]",
          "name": "users",
          "type": "address[]"
        }
      ],
      "name": "getRegistrationDetailsBatch",
      "outputs": [
        {
          "internalType": "uint256[]",
          "name": "timestamps",
          "type": "uint256[]"
        },
        {
          "internalType": "string[]",
          "name": "emails",
          "type": "string[]"
        },
        {
          "internalType": "string[]",
          "name": "socials",
          "type": "string[]"
        },
        {
          "internalType": "bool[]",
          "name": "hasEmailOrSocial",
          "type": "bool[]"
        },
        {
          "internalType": "uint256[]",
          "name": "bonusTokens",
          "type": "uint256[]"
        },
        {
          "internalType": "uint256[]",
          "name": "nftTokenIds",
          "type": "uint256[]"
        }
      ],
      "stateMutability": "view",
      "type": "function"
    },
    {
      "inputs": [
        {
          "internalType": "address",
          "name": "user",
          "type": "address"
        },
        {
          "internalType": "string",
          "name": "platform",
          "type": "string"
        }
      ],
      "name": "getSocialData",
      "outputs": [
        {
          "components": [
            {
              "internalType": "string",
              "name": "handle",
              "type": "string"
            },
            {
              "internalType": "string",
              "name": "platform",
              "type": "string"
            },
            {
              "internalType": "uint256",
              "name": "followers",
              "type": "uint256"
            },
            {
              "internalType": "uint256",
              "name": "lastUpdated",
              "type": "uint256"
            },
            {
              "internalType": "bool",
              "name": "verified",
              "type": "bool"
            }
          ],
          "internalType": "struct SocialTracker.SocialData",
          "name": "",
          "type": "tuple"
        }
      ],
      "stateMutability": "view",
      "type": "function"
    },
    {
      "inputs": [
        {
          "internalType": "address",
          "name": "",
          "type": "address"
        }
      ],
      "name": "isRegistered",
      "outputs": [
        {
          "internalType": "bool",
          "name": "",
          "type": "bool"
        }
      ],
      "stateMutability": "view",
      "type": "function"
    },
    {
      "inputs": [
        {
          "internalType": "uint256",
          "name": "count",
          "type": "uint256"
        }
      ],
      "name": "markExported",
      "outputs": [],
      "stateMutability": "nonpayable",
      "type": "function"
    },
    {
      "inputs": [],
      "name": "merkleRoot",
      "outputs": [
        {
          "internalType": "bytes32",
          "name": "",
          "type": "bytes32"
        }
      ],
      "stateMutability": "view",
      "type": "function"
    },
    {
      "inputs": [],
      "name": "openRegistration",
      "outputs": [],
      "stateMutability": "nonpayable",
      "type": "function"
    },
    {
      "inputs": [],
      "name": "owner",
      "outputs": [
        {
          "internalType": "address",
          "name": "",
          "type": "address"
        }
      ],
      "stateMutability": "view",
      "type": "function"
    },
    {
      "inputs": [],
      "name": "pause",
      "outputs": [],
      "stateMutability": "nonpayable",
      "type": "function"
    },
    {
      "inputs": [],
      "name": "paused",
      "outputs": [
        {
          "internalType": "bool",
          "name": "",
          "type": "bool"
        }
      ],
      "stateMutability": "view",
      "type": "function"
    },
    {
      "inputs": [
        {
          "internalType": "address",
          "name": "user",
          "type": "address"
        },
        {
          "internalType": "uint256",
          "name": "tokenId",
          "type": "uint256"
        }
      ],
      "name": "recordNFT",
      "outputs": [],
      "stateMutability": "nonpayable",
      "type": "function"
    },
    {
      "inputs": [
        {
          "internalType": "string",
          "name": "email",
          "type": "string"
        },
        {
          "internalType": "string",
          "name": "social",
          "type": "string"
        }
      ],
      "name": "register",
      "outputs": [],
      "stateMutability": "nonpayable",
      "type": "function"
    },
    {
      "inputs": [
        {
          "internalType": "uint256",
          "name": "",
          "type": "uint256"
        }
      ],
      "name": "registeredUsers",
      "outputs": [
        {
          "internalType": "address",
          "name": "",
          "type": "address"
        }
      ],
      "stateMutability": "view",
      "type": "function"
    },
    {
      "inputs": [
        {
          "internalType": "address",
          "name": "user",
          "type": "address"
        }
      ],
      "name": "registrationDetails",
      "outputs": [
        {
          "components": [
            {
              "internalType": "uint256",
              "name": "timestamp",
              "type": "uint256"
            },
            {
              "internalType": "string",
              "name": "email",
              "type": "string"
            },
            {
              "internalType": "string",
              "name": "social",
              "type": "string"
            },
            {
              "internalType": "bool",
              "name": "hasEmailOrSocial",
              "type": "bool"
            },
            {
              "internalType": "uint256",
              "name": "bonusTokens",
              "type": "uint256"
            },
            {
              "internalType": "uint256",
              "name": "nftTokenId",
              "type": "uint256"
            }
          ],
          "internalType": "struct IWishlistRegistry.RegistrationInfo",
          "name": "",
          "type": "tuple"
        }
      ],
      "stateMutability": "view",
      "type": "function"
    },
    {
      "inputs": [],
      "name": "registrationOpen",
      "outputs": [
        {
          "internalType": "bool",
          "name": "",
          "type": "bool"
        }
      ],
      "stateMutability": "view",
      "type": "function"
    },
    {
      "inputs": [
        {
          "internalType": "address",
          "name": "user",
          "type": "address"
        }
      ],
      "name": "removeUser",
      "outputs": [],
      "stateMutability": "nonpayable",
      "type": "function"
    },
    {
      "inputs": [],
      "name": "renounceOwnership",
      "outputs": [],
      "stateMutability": "nonpayable",
      "type": "function"
    },
    {
      "inputs": [
        {
          "internalType": "address",
          "name": "referee",
          "type": "address"
        }
      ],
      "name": "rewardReferral",
      "outputs": [
        {
          "internalType": "uint256",
          "name": "referrerReward",
          "type": "uint256"
        },
        {
          "internalType": "uint256",
          "name": "refereeReward",
          "type": "uint256"
        }
      ],
      "stateMutability": "nonpayable",
      "type": "function"
    },
    {
      "inputs": [
        {
          "internalType": "address",
          "name": "_controller",
          "type": "address"
        }
      ],
      "name": "setController",
      "outputs": [],
      "stateMutability": "nonpayable",
      "type": "function"
    },
    {
      "inputs": [
        {
          "internalType": "bytes32",
          "name": "root",
          "type": "bytes32"
        }
      ],
      "name": "setMerkleRoot",
      "outputs": [],
      "stateMutability": "nonpayable",
      "type": "function"
    },
    {
      "inputs": [
        {
          "internalType": "string",
          "name": "platform",
          "type": "string"
        },
        {
          "internalType": "uint256",
          "name": "weight",
          "type": "uint256"
        }
      ],
      "name": "setPlatformWeight",
      "outputs": [],
      "stateMutability": "nonpayable",
      "type": "function"
    },
    {
      "inputs": [
        {
          "internalType": "bool",
          "name": "enabled",
          "type": "bool"
        }
      ],
      "name": "setReferralsEnabled",
      "outputs": [],
      "stateMutability": "nonpayable",
      "type": "function"
    },
    {
      "inputs": [],
      "name": "totalRegistered",
      "outputs": [
        {
          "internalType": "uint256",
          "name": "",
          "type": "uint256"
        }
      ],
      "stateMutability": "view",
      "type": "function"
    },
    {
      "inputs": [
        {
          "internalType": "address",
          "name": "newOwner",
          "type": "address"
        }
      ],
      "name": "transferOwnership",
      "outputs": [],
      "stateMutability": "nonpayable",
      "type": "function"
    },
    {
      "inputs": [],
      "name": "unpause",
      "outputs": [],
      "stateMutability": "nonpayable",
      "type": "function"
    },
    {
      "inputs": [
        {
          "internalType": "address",
          "name": "user",
          "type": "address"
        },
        {
          "internalType": "string",
          "name": "platform",
          "type": "string"
        },
        {
          "internalType": "uint256",
          "name": "followers",
          "type": "uint256"
        }
      ],
      "name": "updateFollowers",
      "outputs": [],
      "stateMutability": "nonpayable",
      "type": "function"
    },
    {
      "inputs": [
        {
          "internalType": "address",
          "name": "referee",
          "type": "address"
        }
      ],
      "name": "validateReferral",
      "outputs": [],
      "stateMutability": "nonpayable",
      "type": "function"
    },
    {
      "inputs": [
        {
          "internalType": "bytes32",
          "name": "leaf",
          "type": "bytes32"
        },
        {
          "internalType": "bytes32[]",
          "name": "proof",
          "type": "bytes32[]"
        }
      ],
      "name": "verifyMerkleProof",
      "outputs": [
        {
          "internalType": "bool",
          "name": "",
          "type": "bool"
        }
      ],
      "stateMutability": "view",
      "type": "function"
    },
    {
      "inputs": [
        {
          "internalType": "bytes32[]",
          "name": "leaves",
          "type": "bytes32[]"
        },
        {
          "internalType": "bytes32[][]",
          "name": "proofs",
          "type": "bytes32[][]"
        }
      ],
      "name": "verifyMultipleMerkleProofs",
      "outputs": [
        {
          "internalType": "bool[]",
          "name": "",
          "type": "bool[]"
        }
      ],
      "stateMutability": "view",
      "type": "function"
    },
    {
      "inputs": [
        {
          "internalType": "address",
          "name": "user",
          "type": "address"
        },
        {
          "internalType": "string",
          "name": "platform",
          "type": "string"
        },
        {
          "internalType": "bool",
          "name": "verified",
          "type": "bool"
        }
      ],
      "name": "verifySocial",
      "outputs": [],
      "stateMutability": "nonpayable",
      "type": "function"
    }
  ],
  "bytecode": "0x608034620002b157601f620033c938819003918201601f1916830192916001600160401b03841183851017620002b65780839260409586528339602092839181010312620002b157516001600160a01b0380821691829003620002b15781156200029957600080546001600160a01b0319811684178255855191939192167f8be0079c531659141344cd1fd0a4f28419497f9722a3daafe3b4186f6b6457e08480a360018055600160ff198060025416600255818160045416176004557feeab9c2a28e7e0513e3915bc617c01d9dce35efe416819062aa789eba790f2a56060600a948560125560056013556064601455858152600588820152606489820152a1601554161760155562000112620002cc565b9281600794858152663a3bb4ba3a32b960c91b8382015286519083865b8881106200028357505050808287602793015220556200014e620002cc565b84815266191a5cd8dbdc9960ca1b82820152855190845b868110620002715750509081838660279401526008928391205562000189620002cc565b8281526774656c656772616d60c01b8282015286519082865b8581106200025e57505050602881858560069401522055620001c3620002cc565b600980825268696e7374616772616d60b81b8383015287519183875b8381106200024b575050505060298185600980940152205562000201620002cc565b8281526766616365626f6f6b60c01b828201528651945b83811062000239575050508201526028902055516130dc9081620002ed8239f35b81810183015186820152820162000218565b81818401015181860152018490620001df565b81818401015181850152018390620001a2565b81810184015183820152830162000165565b828101820151848201528694508591016200012f565b8351631e4fbdf760e01b815260006004820152602490fd5b600080fd5b634e487b7160e01b600052604160045260246000fd5b60408051919082016001600160401b03811183821017620002b65760405256fe6080604052600436101561001257600080fd5b60003560e01c80630218a81b146120ed5780631584689014611fd2578063193044ef14611de55780632c2bbeba14611dac5780632eb4a7ab14611d8e578063324ab2f214611c425780633768a94c14611ba6578063397388af14611b105780633b0f0f2f14611a7c5780633f4ba83a14611a125780633f90a2ad146119a35780633ffbd47f1461172e578063470de4f6146116e55780635274436f146116a8578063590e8696146115f85780635c975abb146115d557806366e7b6061461129b5780636d47329514610fef578063715018a614610f965780637259e0f814610f545780637266b24214610f29578063736f88cd14610f065780637cb6475914610eba5780637dc673bc14610e705780638456cb5914610e16578063868720a714610db25780638da5cb5b14610d89578063927416c014610d6b57806392eefe9b14610d285780639857518814610b9b578063a683dfab14610a9c578063ab8bb8391461080b578063b5a504ff1461076d578063c38dfa801461063f578063c3c5a54714610600578063d06e4ee7146105b3578063e8e050991461055a578063e918032314610471578063ed2bc4f8146103c2578063f2fde38b1461033c578063f77c4791146103135763fd6892f0146101ea57600080fd5b3461030e57606036600319011261030e57610203612314565b6024356001600160401b03811161030e576102229036906004016122e7565b919060443580151580820361030e57610239612ada565b6001600160a01b03841660008181526005602052604090205490959060ff16156102fc577fd73cbe4563fbd82a3373d12a59984c4f886a11bcfb25460d3ab7b4ad636fe3b3946102d86102946102f1966102dd9436916125ca565b9460046102c66102a3856124ef565b6102c06102b96102b3838c612ab4565b546126f4565b1515612cfc565b88612ab4565b019060ff801983541691151516179055565b612f42565b60405192839260408452604084019061234d565b9060208301520390a2005b60405163aba4733960e01b8152600490fd5b600080fd5b3461030e57600036600319011261030e576008546040516001600160a01b039091168152602090f35b3461030e57602036600319011261030e57610355612314565b61035d612ada565b6001600160a01b039081169081156103a9576000548260018060a01b0319821617600055167f8be0079c531659141344cd1fd0a4f28419497f9722a3daafe3b4186f6b6457e0600080a3005b604051631e4fbdf760e01b815260006004820152602490fd5b3461030e57604036600319011261030e576103db612314565b600854602435916001600160a01b0391821633141580610463575b61045257169081600052600560205260ff60406000205416156102fc5760207f11e6a9d6ee5a30c282ceadf563f9d424cdde462754baac2fc8bbc5134eacb42c91836000526006825280600560406000200155604051908152a2005b6040516282b42960e81b8152600490fd5b5081600054163314156103f6565b3461030e5760208060031936011261030e576104a561048e612314565b610496612a6f565b5061049f612a6f565b50612523565b604051906104b282612573565b805482526001906001810154848401908152600360028301549260408601938452016040518094878354928381520192600052876000209160005b8982821061053e578961053a8a8a8a610508838c03846125a9565b6060850192835260405195869581875251908601525160408501525160608401525160808084015260a0830190612469565b0390f35b84546001600160a01b03168652909401939282019282016104ed565b3461030e57604036600319011261030e576024356001600160401b03811161030e576105a961059f6105926020933690600401612372565b91906016549236916127d8565b9060043590612ec6565b6040519015158152f35b3461030e57600036600319011261030e576105cc612ada565b600160ff1960045416176004557f0426b321a943b20e0f1718597ec8225b2004af63f1de22ca0d09689460c28667600080a1005b3461030e57602036600319011261030e576001600160a01b03610621612314565b166000526005602052602060ff604060002054166040519015158152f35b3461030e5760208060031936011261030e57610659612314565b600060a060405161066981612558565b82815260608582015260606040820152826060820152826080820152015260018060a01b0316600052600681526040600020604051906106a882612558565b805482526040516106c7816106c0816001860161272e565b03826125a9565b838301908152604051916106e9836106e2816002850161272e565b03846125a9565b6040840192835261075460ff6003830154169360608601941515855261074160056004850154946080890195865201549460a08801958652604051988998818a5251908901525160c0604089015260e088019061234d565b9051868203601f1901606088015261234d565b9251151560808501525160a08401525160c08301520390f35b3461030e5760208060031936011261030e576001600160a01b0361078f612314565b166000526009815260019060016040600020019182546107ae8161263d565b936107bc60405195866125a9565b8185526000908152838120848087015b8484106107e6576040518281528061053a8185018b6123d6565b859182916040516107fb816106c0818961272e565b81520192019201919085906107cc565b3461030e5760208060031936011261030e576004356001600160401b03811161030e5761083c9036906004016122e7565b336000526005916005845260ff60406000205416156102fc576108609136916125ca565b610869336124ef565b6108796102b96102b38385612ab4565b818401926001908282016000835b610936575b505050507f5b0be80fe3a6470b16ac62e8bdca11fe31ea2952f2b3b0723c8bd337d9e2ead9925090600282600060046108c861091e9686612ab4565b6108d181612a19565b6108dd60018201612a19565b82858201558260038201550155016108f58154612a62565b80915515610923575b61090733612f42565b42600c55604051918291858352339583019061234d565b0390a2005b61092e600b54612a62565b600b556108fe565b815480821015610a96576106c061095d61095084866124d7565b506040519283809261272e565b89815191012087518920146109755750830183610887565b91959492965060001991828101908111610a805761099661099e91886124d7565b5091876124d7565b919091610a54576109ae91612de8565b84548015610a6a57016109c181866124d7565b959095610a54577f5b0be80fe3a6470b16ac62e8bdca11fe31ea2952f2b3b0723c8bd337d9e2ead996866002956109fb61091e99546126f4565b9081610a10575b50505050559192868061088c565b600093601f8d818511600114610a30575050505050555b88808080610a02565b91859391610a4d93889697875286209601901c8501908501612858565b5555610a27565b634e487b7160e01b600052600060045260246000fd5b634e487b7160e01b600052603160045260246000fd5b634e487b7160e01b600052601160045260246000fd5b5061088c565b3461030e57602036600319011261030e57610ab5612314565b610abd612ada565b610ac681612509565b80546001600160a01b039190821615610b895760409260ff60028301541615610b7b575b838060135494806012549586600382015554166002610b0882612523565b01610b14888254612826565b9055610b2b610b238789612826565b601154612826565b6011558251878152600160208201527f1655a98b71e9787e10f05700ac04ccd195b4d4d0d5b4ef4c22d8bfb9a07e823b948591a2815193858552600060208601521692a282519182526020820152f35b610b8481612d41565b610aea565b6040516306b3fb6160e51b8152600490fd5b3461030e57602036600319011261030e57610bb4612314565b610bbc612ada565b610bc4612b06565b6001600160a01b0390811660008181526005602052604090205490919060ff16156102fc57816000526005602052604060002060ff1981541690556006602052604060002090600082556001610c1c60018401612a19565b610c2860028401612a19565b6000600560039482868201558260048201550155806000905b610c80575b505050610c538154612a62565b90557fe9dce8c992623ce791725b21e857e33248d1f190a25b5168313420eebdaae99d600080a260018055005b6007805480831015610d21578685610c97856124a6565b905490891b1c1614610cad575050810181610c41565b90925060001991828201918211610a8057610cdb85610cce610cf9946124a6565b905490891b1c16916124a6565b90919060018060a01b038084549260031b9316831b921b1916179055565b81548015610a6a570191610d0c836124a6565b9091825491861b1b1916905555828080610c46565b5050610c46565b3461030e57602036600319011261030e57610d41612314565b610d49612ada565b600880546001600160a01b0319166001600160a01b0392909216919091179055005b3461030e57600036600319011261030e576020600354604051908152f35b3461030e57600036600319011261030e576000546040516001600160a01b039091168152602090f35b3461030e57606036600319011261030e577feeab9c2a28e7e0513e3915bc617c01d9dce35efe416819062aa789eba790f2a56060600435604435602435610df7612ada565b82601255806013558160145560405192835260208301526040820152a1005b3461030e57600036600319011261030e57610e2f612ada565b610e37612a96565b600160ff1960025416176002557f62e78cea01bee320cd4e420270b5ea74000d11b0c9f74754ebdbfc544b05a2586020604051338152a1005b3461030e57600036600319011261030e57610e89612ada565b60ff19600454166004557f2fc209f3df2fb10c5fcb1620d3e5f067b9ef99813ca8fa6b24de0418bdac5420600080a1005b3461030e57602036600319011261030e577f42cbc405e4dbf1b691e85b9a34b08ecfcf7a9ad9078bf4d645ccfa1fac11c10b6020600435610ef9612ada565b80601655604051908152a1005b3461030e57600036600319011261030e57602060ff600454166040519015158152f35b3461030e57602036600319011261030e57610f52610f45612314565b610f4d612ada565b612d41565b005b3461030e57602036600319011261030e5760043560075481101561030e57610f7d6020916124a6565b905460405160039290921b1c6001600160a01b03168152f35b3461030e57600036600319011261030e57610faf612ada565b600080546001600160a01b0319811682556001600160a01b03167f8be0079c531659141344cd1fd0a4f28419497f9722a3daafe3b4186f6b6457e08280a3005b3461030e5760208060031936011261030e57611009612314565b611011612a96565b336000526005825260ff60406000205416156102fc5760ff6015541615611289576001600160a01b038181169190338314611277578061105033612509565b54166112655761105f82612523565b54158061125c575b6111c0575b61107582612523565b546014548091101590816111b6575b506111a45760039161111291836040519161109e83612573565b8683526110f48884014281526040850190600082526060860193600085526110c533612509565b96511660018060a01b0319875416178655516001860155511515600285019060ff801983541691151516179055565b5191015561110181612523565b61110b81546129a8565b9055612523565b01805490600160401b82101561118e5781611135916001611153940181556124d7565b81546001600160a01b0360039290921b91821b19163390911b179055565b61115e600f546129a8565b600f557f59401499203519cc0aa58c644591c8538c041ff58fa97c7d2f767b945e5dd3fd604051924284523393a3005b634e487b7160e01b600052604160045260246000fd5b6040516305e557c360e41b8152600490fd5b9050151585611084565b6040516001600160401b03908581018281118282101761118e57806040526000825260036111ed86612523565b01915192831161118e57600160401b831161118e57815483835580841061123f575b50906000528560002060005b83811061122b575050505061106c565b82518516828201559187019160010161121b565b611256908360005284896000209182019101612858565b8761120f565b50821515611067565b604051637aabdfe360e01b8152600490fd5b6040516341a31fa560e11b8152600490fd5b60405163238708d560e11b8152600490fd5b3461030e57606036600319011261030e576001600160401b0360043581811161030e576112cc903690600401612372565b919060243582811161030e576112e6903690600401612372565b91909260443590811161030e57611301903690600401612372565b61130c959195612ada565b611314612b06565b8382148015906115cb575b6115b9576101f482116115a75760039561138861133e84600354612826565b116115955792859287926000956000975b83881061139b577fafd0b5ee0a60bf06063a02eefe4f229a1504a5c92ccfa919d6b0d6f4cb8a243260408a61138681600354612826565b6003558151908152426020820152a160018055005b909192939495969760018060a01b036113bd6113b88b888a6126d0565b6126e0565b161561158b576001600160a01b036113d96113b88b888a6126d0565b16600052600560205260ff6040600020541661158b576113fa89838a6129d8565b1580159150611576575b801561156e5789600a5b6001600160a01b03611421838a8c6126d0565b61142a906126e0565b166000526005602052604060002060ff19815416600117905561144e82868d6129d8565b939061145b848a8a6129d8565b916040519661146988612558565b4288523690611477926125ca565b9160208701928352369061148a926125ca565b9060408601918252606086019215158352608086019384528a8c60a088019660008852600160a01b60019003926114c0926126d0565b6114c9906126e0565b1660005260066020526040600020955186555160018601906114ea916128b6565b516114f890600286016128b6565b5115158a840190611514919060ff801983541691151516179055565b51600483015551906005015561152b8986886126d0565b611534906126e0565b61153d90612985565b611546906129a8565b976115528186886126d0565b61155b906126e0565b50600101955b949392919096959661134f565b89600061140e565b506115828985856129d8565b90501515611404565b9760010195611561565b60405163d9fda74960e01b8152600490fd5b604051631e80759560e21b8152600490fd5b60405163a9854bc960e01b8152600490fd5b508082141561131f565b3461030e57600036600319011261030e57602060ff600254166040519015158152f35b3461030e57606036600319011261030e57611611612314565b6024356001600160401b03811161030e576116309036906004016122e7565b61163b929192612ada565b6001600160a01b03821660009081526005602052604090205460ff16156102fc57610f529261166b9136916125ca565b60036116a1611679846124ef565b6116896102b96102b38387612ab4565b60443560026116988387612ab4565b01554293612ab4565b0155612f42565b3461030e57602036600319011261030e576001600160a01b036116c9612314565b1660005260096020526020600360406000200154604051908152f35b3461030e57602036600319011261030e576116fe612ada565b60405160043581527f20b53633224d22af8822f0fb062340ebba1da87750f7c5c93c2db80bae3b96ed60203392a2005b3461030e57604036600319011261030e576001600160401b0360043581811161030e5761175f9036906004016122e7565b9160243590811161030e576117789036906004016122e7565b919092611783612b06565b61178b612a96565b60ff60045416156119915761138860035410156115955733600052600560205260ff6040600020541661197f578015928315908180611965575b61195357801515948580611939575b611927577fd26e1f23de0ec990e6830acd7467dd8d67c062bff02251f8d836bcc3ce62479f9561190c939161191f575b508015611915576005600a915b33600052816020526040600020600160ff198254161790556040519261183684612558565b4284526118be61184736898b6125ca565b60208601908152926118a661185d36898f6125ca565b604088019081526060880192151583526080880194855261189c60a089019660008852336000526006602052604060002099518a555160018a016128b6565b51600288016128b6565b511515600386019060ff801983541691151516179055565b516004840155519101556118d133612985565b6118dc6003546129a8565b6003556118fc6040519485944286526060602087015260608601916129b7565b90838203604085015233966129b7565b0390a260018055005b6005600091611811565b905087611804565b604051634a70f44b60e01b8152600490fd5b5061194d61194836848a6125ca565b612c17565b156117d4565b604051631c769cfd60e11b8152600490fd5b506119796119743685876125ca565b612b3a565b156117c5565b604051630ea075bf60e21b8152600490fd5b60405163153745d360e01b8152600490fd5b3461030e57604036600319011261030e576004356001600160401b03811161030e576119d66119e59136906004016122e7565b6119de612ada565b36916125ca565b60206119fa604051928381519384920161232a565b810190600a8252602081602435930301902055600080f35b3461030e57600036600319011261030e57611a2b612ada565b60025460ff811615611a6a5760ff19166002557f5db9ee0a495bf2e6ff9c91a7834c1ba4fdd244a5e8aa4e537bd38aeae4b073aa6020604051338152a1005b604051638dfc202b60e01b8152600490fd5b3461030e57602036600319011261030e576080611ab1611a9a612314565b611aa2612833565b50611aab612833565b50612509565b604051611abd81612573565b60018060a01b03825416918282526001810154602083019081526060600360ff60028501541693604086019415158552015493019283526040519384525160208401525115156040830152516060820152f35b3461030e57600036600319011261030e57604051600780548083526000918252602080840193927fa66cc928b5edb82af9bd49922954155ab7b0942694bea4ce44661d9a8736c68892915b828210611b865761053a85611b72818903826125a9565b604051918291602083526020830190612469565b83546001600160a01b031686529485019460019384019390910190611b5b565b3461030e57604036600319011261030e57600435611bc660243582612826565b600754808211611c3a575b50818103908111610a8057611be581612654565b9160005b828110611c06576040516020808252819061053a90820187612469565b80611c1b611c1660019385612826565b6124a6565b838060a01b0391549060031b1c16611c3382876127c4565b5201611be9565b905082611bd1565b3461030e57604036600319011261030e576001600160401b0360043581811161030e57611c73903690600401612372565b60249291923582811161030e57611c91611c9f913690600401612372565b9190946016549336916127d8565b93611ca98261263d565b91611cb760405193846125a9565b8083526020948584019160051b83019236841161030e5780925b848410611d5a5750505050508351815103611d4857611cf08451612654565b9360005b8151811015611d355780611d20611d0d600193856127c4565b51611d1883876127c4565b519087612ec6565b611d2a82896127c4565b901515905201611cf4565b6040518581528061053a81880189612433565b6040516309bde33960e01b8152600490fd5b833583811161030e57820136601f8201121561030e578891611d838392369084813591016127d8565b815201930192611cd1565b3461030e57600036600319011261030e576020601654604051908152f35b3461030e57602036600319011261030e5760043580151580910361030e57611dd2612ada565b60ff801960155416911617601555600080f35b3461030e57602036600319011261030e576004356001600160401b03811161030e57611e15903690600401612372565b611e1e81612654565b90611e2881612686565b611e3182612686565b611e3a83612654565b90611e4484612654565b92611e4e85612654565b9460005b818110611ecb57611e858861053a89611ebd8a611eaf8b611ea18c611e938d6040519b8c9b60c08d5260c08d01906123a2565b908b820360208d01526123d6565b9089820360408b01526123d6565b908782036060890152612433565b9085820360808701526123a2565b9083820360a08501526123a2565b6001906001600160a01b03611ee46113b883868e6126d0565b16600052600660205260a0604060002060405190611f0182612558565b805482528b604051611f19816106c0818a870161272e565b6020840190815260405190611f3c82611f35816002880161272e565b03836125a9565b6040850191825260ff60038501541692606086019315158452600560048601549560808801968752015487870152611f76888751926127c4565b5251611f82878b6127c4565b52611f8d868a6127c4565b5051611f99868b6127c4565b52611fa4858a6127c4565b50511515611fb2858b6127c4565b5251611fbe848b6127c4565b520151611fcb828a6127c4565b5201611e52565b3461030e57604036600319011261030e57611feb612314565b6024356001600160401b03811161030e576120c19161203661202761201761203c9436906004016122e7565b61201f612610565b5036916125ca565b91612030612610565b506124ef565b90612ab4565b604051906120498261253d565b60405161205a816106c0818561272e565b8252604051612070816106c0816001860161272e565b60208301908152600282015491604084019283526120d460ff60046003840154936060880194855201541692608086019315158452604051968796602088525160a0602089015260c088019061234d565b9051868203601f1901604088015261234d565b9251606085015251608084015251151560a08301520390f35b3461030e57606036600319011261030e576001600160401b0360043581811161030e5761211e9036906004016122e7565b9160243590811161030e576121379036906004016122e7565b92612140612a96565b33600052600560205260ff60406000205416156102fc5761216e926121669136916125ca565b9236916125ca565b90612178336124ef565b6121856102b38284612ab4565b156121ff6040516121958161253d565b85815260046020820186815260408301604435815260608401904282526121dd6080860193600085526121d36121cb8b8d612ab4565b9751886128b6565b51600187016128b6565b51600285015551600384015551151591019060ff801983541691151516179055565b61225d575b5061224e7fb2ee73870ce3da34180ffebe894d981ed3d4560bcee31ac1100084b08a84d5ea9161223333612f42565b42600c5561091e60405192839260408452604084019061234d565b8281036020840152339561234d565b90600182018054600160401b81101561118e5761227f916001820181556124d7565b919091610a5457600160027fb2ee73870ce3da34180ffebe894d981ed3d4560bcee31ac1100084b08a84d5ea946122b98461224e966128b6565b016122c481546129a8565b809155146122d4575b9150612204565b6122df600b546129a8565b600b556122cd565b9181601f8401121561030e578235916001600160401b03831161030e576020838186019501011161030e57565b600435906001600160a01b038216820361030e57565b60005b83811061233d5750506000910152565b818101518382015260200161232d565b906020916123668151809281855285808601910161232a565b601f01601f1916010190565b9181601f8401121561030e578235916001600160401b03831161030e576020808501948460051b01011161030e57565b90815180825260208080930193019160005b8281106123c2575050505090565b8351855293810193928101926001016123b4565b90808251908181526020809101926020808460051b8301019501936000915b8483106124055750505050505090565b9091929394958480612423600193601f198682030187528a5161234d565b98019301930191949392906123f5565b90815180825260208080930193019160005b828110612453575050505090565b8351151585529381019392810192600101612445565b90815180825260208080930193019160005b828110612489575050505090565b83516001600160a01b03168552938101939281019260010161247b565b6007548110156124c157600760005260206000200190600090565b634e487b7160e01b600052603260045260246000fd5b80548210156124c15760005260206000200190600090565b6001600160a01b0316600090815260096020526040902090565b6001600160a01b03166000908152600d6020526040902090565b6001600160a01b03166000908152600e6020526040902090565b60a081019081106001600160401b0382111761118e57604052565b60c081019081106001600160401b0382111761118e57604052565b608081019081106001600160401b0382111761118e57604052565b606081019081106001600160401b0382111761118e57604052565b90601f801991011681019081106001600160401b0382111761118e57604052565b9291926001600160401b03821161118e57604051916125f3601f8201601f1916602001846125a9565b82948184528183011161030e578281602093846000960137010152565b6040519061261d8261253d565b600060808360608152606060208201528260408201528260608201520152565b6001600160401b03811161118e5760051b60200190565b9061265e8261263d565b61266b60405191826125a9565b828152809261267c601f199161263d565b0190602036910137565b906126908261263d565b61269d60405191826125a9565b82815280926126ae601f199161263d565b019060005b8281106126bf57505050565b8060606020809385010152016126b3565b91908110156124c15760051b0190565b356001600160a01b038116810361030e5790565b90600182811c92168015612724575b602083101461270e57565b634e487b7160e01b600052602260045260246000fd5b91607f1691612703565b80546000939261273d826126f4565b918282526020936001916001811690816000146127a55750600114612764575b5050505050565b90939495506000929192528360002092846000945b8386106127915750505050010190388080808061275d565b805485870183015294019385908201612779565b60ff19168685015250505090151560051b01019150388080808061275d565b80518210156124c15760209160051b010190565b92916127e38261263d565b916127f160405193846125a9565b829481845260208094019160051b810192831161030e57905b8282106128175750505050565b8135815290830190830161280a565b91908201809211610a8057565b6040519061284082612573565b60006060838281528260208201528260408201520152565b818110612863575050565b60008155600101612858565b9190601f811161287e57505050565b6128aa926000526020600020906020601f840160051c830193106128ac575b601f0160051c0190612858565b565b909150819061289d565b91909182516001600160401b03811161118e576128dd816128d784546126f4565b8461286f565b602080601f831160011461292057508190612911939495600092612915575b50508160011b916000199060031b1c19161790565b9055565b0151905038806128fc565b90601f19831695846000526020600020926000905b88821061296d57505083600195969710612954575b505050811b019055565b015160001960f88460031b161c1916905538808061294a565b80600185968294968601518155019501930190612935565b60075490600160401b82101561118e57610cdb8260016128aa94016007556124a6565b6000198114610a805760010190565b908060209392818452848401376000828201840152601f01601f1916010190565b91908110156124c15760051b81013590601e198136030182121561030e5701908135916001600160401b03831161030e57602001823603811361030e579190565b612a2381546126f4565b9081612a2d575050565b81601f60009311600114612a3f575055565b908083918252612a5e601f60208420940160051c840160018501612858565b5555565b8015610a80576000190190565b60405190612a7c82612573565b606080836000815260006020820152600060408201520152565b60ff60025416612aa257565b60405163d93c066560e01b8152600490fd5b602090612ace92826040519483868095519384920161232a565b82019081520301902090565b6000546001600160a01b03163303612aee57565b60405163118cdaa760e01b8152336004820152602490fd5b600260015414612b17576002600155565b604051633ee5aeb560e01b8152600490fd5b9081518110156124c1570160200190565b6003815110612c115760009081805b8251811015612bff576001600160f81b0319600160fe1b81612b6b8487612b29565b511614612bc9575b829081612baf575b50612b89575b600101612b49565b925081516000198101908111610a80578314612ba757600192612b81565b505050600090565b601760f91b9150612bc08386612b29565b51161438612b7b565b915080158015612be9575b612be057600191612b73565b50505050600090565b5082516000198101908111610a80578114612bd4565b5091905081612c0c575090565b905090565b50600090565b6002815110612c11576000805b8251811015612cf4576001600160f81b0319612c408285612b29565b5116600360fc1b8110159081612ce5575b8115612cc1575b8115612c9d575b8115612c8f575b8115612c81575b5015612c7b57600101612c24565b50905090565b601760f91b14905038612c6d565b605f60f81b81149150612c66565b9050606160f81b81101580612cb3575b90612c5f565b50603d60f91b811115612cad565b9050604160f81b81101580612cd7575b90612c58565b50602d60f91b811115612cd1565b603960f81b8111159150612c51565b505050600190565b15612d0357565b60405162461bcd60e51b8152602060048201526016602482015275141b185d199bdc9b481b9bdd0818dbdb9b9958dd195960521b6044820152606490fd5b60018060a01b038091169081600052600d602052604060002090815416908115610b8957600201805460ff8116612dd65760019060ff191617905580600052600e6020526001604060002001612d9781546129a8565b9055612da46010546129a8565b6010557ffd4c2cc46981f58970748e9a401aeb9ae66b1926e762dc443e63bcac911e032e6020601254604051908152a3565b6040516305c1ace960e11b8152600490fd5b90808214612ec257612dfa81546126f4565b906001600160401b03821161118e57612e1d82612e1785546126f4565b8561286f565b600090601f8311600114612e5857612911929160009183612e4d5750508160011b916000199060031b1c19161790565b0154905038806128fc565b815260208082208483528183209291601f1985169083905b828210612ea9575050908460019594939210612e9057505050811b019055565b015460001960f88460031b161c1916905538808061294a565b8495819295850154815560018091019601940190612e70565b5050565b91926000906000925b8551841015612f3957600190612ee585886127c4565b5180821015612f1557604080519160208301938452818301528152612f098161258e565b5190205b930192612ecf565b90604080519160208301938452818301528152612f318161258e565b519020612f0d565b92509350501490565b6001600160a01b031660008181526009602090815260408083206001818101805492948694939185905b838710612fad5750505050505050817faed80aea27414e4c3ebb80eb855bf49e811dbd81924de05270d87dc8aaed01fe9260036020930155604051908152a2565b90919293611f358799612fd1612fc584999a866124d7565b508a519384809261272e565b612fdb8a83612ab4565b86612fee8b51948581519384920161232a565b8301928781600a9586815203019020549283156130c7575b83600283015480613067575b50505060ff6004809201541661303b575b509061302e91612826565b9801959493929190612f6c565b909250603282018092116130545750869161302e613023565b634e487b7160e01b855260119052602484fd5b92955092935091908683825b6130b2578102938115918504141715905061309e578893929161309591612826565b91388080613012565b634e487b7160e01b86526011600452602486fd5b6130bf92049182916129a8565b908490613073565b84935061300656fea164736f6c6343000818000a",
  "linkReferences": {},
  "deployedLinkReferences": {}
}