{
  "_format": "hh-sol-artifact-1",
  "contractName": "TokenFactory",
  "sourceName": "contracts/TokenFactory.sol",
  "abi": [
    {
      "inputs": [
        {
          "internalType": "address",
          "name": "_tokenImplementation",
          "type": "address"
        }
      ],
      "stateMutability": "nonpayable",
      "type": "constructor"
    },
    {
      "inputs": [
        {
          "internalType": "address",
          "name": "owner",
          "type": "address"
        }
      ],
      "name": "OwnableInvalidOwner",
      "type": "error"
    },
    {
      "inputs": [
        {
          "internalType": "address",
          "name": "account",
          "type": "address"
        }
      ],
      "name": "OwnableUnauthorizedAccount",
      "type": "error"
    },
    {
      "anonymous": false,
      "inputs": [
        {
          "indexed": true,
          "internalType": "address",
          "name": "oldImplementation",
          "type": "address"
        },
        {
          "indexed": true,
          "internalType": "address",
          "name": "newImplementation",
          "type": "address"
        }
      ],
      "name": "ImplementationUpgraded",
      "type": "event"
    },
    {
      "anonymous": false,
      "inputs": [
        {
          "indexed": true,
          "internalType": "address",
          "name": "previousOwner",
          "type": "address"
        },
        {
          "indexed": true,
          "internalType": "address",
          "name": "newOwner",
          "type": "address"
        }
      ],
      "name": "OwnershipTransferred",
      "type": "event"
    },
    {
      "anonymous": false,
      "inputs": [
        {
          "indexed": true,
          "internalType": "address",
          "name": "tokenAddress",
          "type": "address"
        },
        {
          "indexed": false,
          "internalType": "string",
          "name": "name",
          "type": "string"
        },
        {
          "indexed": false,
          "internalType": "string",
          "name": "symbol",
          "type": "string"
        },
        {
          "indexed": false,
          "internalType": "uint8",
          "name": "decimals",
          "type": "uint8"
        },
        {
          "indexed": false,
          "internalType": "address",
          "name": "owner",
          "type": "address"
        }
      ],
      "name": "TokenCreated",
      "type": "event"
    },
    {
      "inputs": [
        {
          "internalType": "uint256",
          "name": "",
          "type": "uint256"
        }
      ],
      "name": "allTokens",
      "outputs": [
        {
          "internalType": "address",
          "name": "",
          "type": "address"
        }
      ],
      "stateMutability": "view",
      "type": "function"
    },
    {
      "inputs": [
        {
          "internalType": "string",
          "name": "name",
          "type": "string"
        },
        {
          "internalType": "string",
          "name": "symbol",
          "type": "string"
        },
        {
          "internalType": "uint8",
          "name": "decimals",
          "type": "uint8"
        },
        {
          "internalType": "uint256",
          "name": "initialSupply",
          "type": "uint256"
        },
        {
          "internalType": "address",
          "name": "tokenOwner",
          "type": "address"
        }
      ],
      "name": "createToken",
      "outputs": [
        {
          "internalType": "address",
          "name": "tokenAddress",
          "type": "address"
        }
      ],
      "stateMutability": "nonpayable",
      "type": "function"
    },
    {
      "inputs": [],
      "name": "getTokenCount",
      "outputs": [
        {
          "internalType": "uint256",
          "name": "",
          "type": "uint256"
        }
      ],
      "stateMutability": "view",
      "type": "function"
    },
    {
      "inputs": [
        {
          "internalType": "address",
          "name": "tokenAddress",
          "type": "address"
        }
      ],
      "name": "isTokenFromFactory",
      "outputs": [
        {
          "internalType": "bool",
          "name": "",
          "type": "bool"
        }
      ],
      "stateMutability": "view",
      "type": "function"
    },
    {
      "inputs": [],
      "name": "owner",
      "outputs": [
        {
          "internalType": "address",
          "name": "",
          "type": "address"
        }
      ],
      "stateMutability": "view",
      "type": "function"
    },
    {
      "inputs": [],
      "name": "renounceOwnership",
      "outputs": [],
      "stateMutability": "nonpayable",
      "type": "function"
    },
    {
      "inputs": [],
      "name": "tokenImplementation",
      "outputs": [
        {
          "internalType": "address",
          "name": "",
          "type": "address"
        }
      ],
      "stateMutability": "view",
      "type": "function"
    },
    {
      "inputs": [
        {
          "internalType": "address",
          "name": "",
          "type": "address"
        }
      ],
      "name": "tokens",
      "outputs": [
        {
          "internalType": "string",
          "name": "name",
          "type": "string"
        },
        {
          "internalType": "string",
          "name": "symbol",
          "type": "string"
        },
        {
          "internalType": "uint8",
          "name": "decimals",
          "type": "uint8"
        },
        {
          "internalType": "address",
          "name": "owner",
          "type": "address"
        },
        {
          "internalType": "bool",
          "name": "exists",
          "type": "bool"
        }
      ],
      "stateMutability": "view",
      "type": "function"
    },
    {
      "inputs": [
        {
          "internalType": "address",
          "name": "newOwner",
          "type": "address"
        }
      ],
      "name": "transferOwnership",
      "outputs": [],
      "stateMutability": "nonpayable",
      "type": "function"
    },
    {
      "inputs": [
        {
          "internalType": "address",
          "name": "newImplementation",
          "type": "address"
        }
      ],
      "name": "upgradeImplementation",
      "outputs": [],
      "stateMutability": "nonpayable",
      "type": "function"
    }
  ],
  "bytecode": "0x608060405234801561001057600080fd5b5060405161128438038061128483398101604081905261002f91610151565b338061005657604051631e4fbdf760e01b8152600060048201526024015b60405180910390fd5b61005f81610101565b506001600160a01b0381166100dc5760405162461bcd60e51b815260206004820152603360248201527f546f6b656e466163746f72793a20696d706c656d656e746174696f6e2063616e60448201527f6e6f74206265207a65726f206164647265737300000000000000000000000000606482015260840161004d565b600180546001600160a01b0319166001600160a01b0392909216919091179055610181565b600080546001600160a01b038381166001600160a01b0319831681178455604051919092169283917f8be0079c531659141344cd1fd0a4f28419497f9722a3daafe3b4186f6b6457e09190a35050565b60006020828403121561016357600080fd5b81516001600160a01b038116811461017a57600080fd5b9392505050565b6110f4806101906000396000f3fe608060405234801561001057600080fd5b506004361061009e5760003560e01c806383f94db71161006657806383f94db7146101145780638da5cb5b14610127578063dbd5930614610138578063e48603391461017f578063f2fde38b146101a357600080fd5b80632f3a3d5d146100a35780635165749e146100d3578063634282af146100e6578063715018a6146100f957806378a8956714610103575b600080fd5b6001546100b6906001600160a01b031681565b6040516001600160a01b0390911681526020015b60405180910390f35b6100b66100e1366004610933565b6101b6565b6100b66100f43660046109cf565b6104cd565b6101016104f7565b005b6003546040519081526020016100ca565b6101016101223660046109e8565b61050b565b6000546001600160a01b03166100b6565b61016f6101463660046109e8565b6001600160a01b031660009081526002602081905260409091200154600160a81b900460ff1690565b60405190151581526020016100ca565b61019261018d3660046109e8565b61065a565b6040516100ca959493929190610a50565b6101016101b13660046109e8565b6107aa565b6000808651116102185760405162461bcd60e51b815260206004820152602260248201527f546f6b656e466163746f72793a206e616d652063616e6e6f7420626520656d70604482015261747960f01b60648201526084015b60405180910390fd5b60008551116102755760405162461bcd60e51b8152602060048201526024808201527f546f6b656e466163746f72793a2073796d626f6c2063616e6e6f7420626520656044820152636d70747960e01b606482015260840161020f565b6001600160a01b0382166102de5760405162461bcd60e51b815260206004820152602a60248201527f546f6b656e466163746f72793a206f776e65722063616e6e6f74206265207a65604482015269726f206164647265737360b01b606482015260840161020f565b600063f357181960e01b8787878787604051602401610301959493929190610aa1565b60408051601f198184030181529181526020820180516001600160e01b03166001600160e01b03199094169390931790925260015491519092506000916001600160a01b031690839061035390610865565b61035e929190610af0565b604051809103906000f08015801561037a573d6000803e3d6000fd5b506040805160a0810182528a815260208082018b905260ff8a16828401526001600160a01b03808916606084015260016080840152841660009081526002909152919091208151929550859350909181906103d59082610ba5565b50602082015160018201906103ea9082610ba5565b506040828101516002929092018054606085015160809095015160ff9094166001600160a81b0319909116176101006001600160a01b03958616021760ff60a81b1916600160a81b9315159390930292909217909155600380546001810182556000919091527fc2575a0e9e593c00f959f8c92f12db2869c3395a3b0502d05e2516446f71f85b0180546001600160a01b0319169286169283179055517f8fb1ffd0ab3f6379154037519ff749b01e1fa060a331f5394175f393c3db596b906104ba908b908b908b908a90610c64565b60405180910390a2505095945050505050565b600381815481106104dd57600080fd5b6000918252602090912001546001600160a01b0316905081565b6104ff6107e8565b6105096000610815565b565b6105136107e8565b6001600160a01b03811661058f5760405162461bcd60e51b815260206004820152603760248201527f546f6b656e466163746f72793a206e657720696d706c656d656e746174696f6e60448201527f2063616e6e6f74206265207a65726f2061646472657373000000000000000000606482015260840161020f565b6001546001600160a01b03908116908216036106085760405162461bcd60e51b815260206004820152603260248201527f546f6b656e466163746f72793a206e657720696d706c656d656e746174696f6e604482015271081b5d5cdd08189948191a5999995c995b9d60721b606482015260840161020f565b600180546001600160a01b038381166001600160a01b0319831681179093556040519116919082907f1a5ca99a64512489fd9455e8da426740174107a69292fca0a8b80b08f6f6789290600090a35050565b60026020526000908152604090208054819061067590610b1c565b80601f01602080910402602001604051908101604052809291908181526020018280546106a190610b1c565b80156106ee5780601f106106c3576101008083540402835291602001916106ee565b820191906000526020600020905b8154815290600101906020018083116106d157829003601f168201915b50505050509080600101805461070390610b1c565b80601f016020809104026020016040519081016040528092919081815260200182805461072f90610b1c565b801561077c5780601f106107515761010080835404028352916020019161077c565b820191906000526020600020905b81548152906001019060200180831161075f57829003601f168201915b5050506002909301549192505060ff808216916001600160a01b0361010082041691600160a81b9091041685565b6107b26107e8565b6001600160a01b0381166107dc57604051631e4fbdf760e01b81526000600482015260240161020f565b6107e581610815565b50565b6000546001600160a01b031633146105095760405163118cdaa760e01b815233600482015260240161020f565b600080546001600160a01b038381166001600160a01b0319831681178455604051919092169283917f8be0079c531659141344cd1fd0a4f28419497f9722a3daafe3b4186f6b6457e09190a35050565b61041080610caf83390190565b634e487b7160e01b600052604160045260246000fd5b600082601f83011261089957600080fd5b813567ffffffffffffffff8111156108b3576108b3610872565b604051601f8201601f19908116603f0116810167ffffffffffffffff811182821017156108e2576108e2610872565b6040528181528382016020018510156108fa57600080fd5b816020850160208301376000918101602001919091529392505050565b80356001600160a01b038116811461092e57600080fd5b919050565b600080600080600060a0868803121561094b57600080fd5b853567ffffffffffffffff81111561096257600080fd5b61096e88828901610888565b955050602086013567ffffffffffffffff81111561098b57600080fd5b61099788828901610888565b945050604086013560ff811681146109ae57600080fd5b9250606086013591506109c360808701610917565b90509295509295909350565b6000602082840312156109e157600080fd5b5035919050565b6000602082840312156109fa57600080fd5b610a0382610917565b9392505050565b6000815180845260005b81811015610a3057602081850181015186830182015201610a14565b506000602082860101526020601f19601f83011685010191505092915050565b60a081526000610a6360a0830188610a0a565b8281036020840152610a758188610a0a565b60ff96909616604084015250506001600160a01b03929092166060830152151560809091015292915050565b60a081526000610ab460a0830188610a0a565b8281036020840152610ac68188610a0a565b60ff969096166040840152505060608101929092526001600160a01b031660809091015292915050565b6001600160a01b0383168152604060208201819052600090610b1490830184610a0a565b949350505050565b600181811c90821680610b3057607f821691505b602082108103610b5057634e487b7160e01b600052602260045260246000fd5b50919050565b601f821115610ba057806000526020600020601f840160051c81016020851015610b7d5750805b601f840160051c820191505b81811015610b9d5760008155600101610b89565b50505b505050565b815167ffffffffffffffff811115610bbf57610bbf610872565b610bd381610bcd8454610b1c565b84610b56565b6020601f821160018114610c075760008315610bef5750848201515b600019600385901b1c1916600184901b178455610b9d565b600084815260208120601f198516915b82811015610c375787850151825560209485019460019092019101610c17565b5084821015610c555786840151600019600387901b60f8161c191681555b50505050600190811b01905550565b608081526000610c776080830187610a0a565b8281036020840152610c898187610a0a565b60ff95909516604084015250506001600160a01b03919091166060909101529291505056fe608060405260405161041038038061041083398101604081905261002291610268565b61002c8282610033565b5050610358565b61003c82610092565b6040516001600160a01b038316907fbc7cd75a20ee27fd9adebab32041f755214dbc6bffa90cc0225b39da2e5c2d3b90600090a280511561008657610081828261010e565b505050565b61008e610185565b5050565b806001600160a01b03163b6000036100cd57604051634c9c8ce360e01b81526001600160a01b03821660048201526024015b60405180910390fd5b7f360894a13ba1a3210667c828492db98dca3e2076cc3735a920a3ca505d382bbc80546001600160a01b0319166001600160a01b0392909216919091179055565b6060600080846001600160a01b03168460405161012b919061033c565b600060405180830381855af49150503d8060008114610166576040519150601f19603f3d011682016040523d82523d6000602084013e61016b565b606091505b50909250905061017c8583836101a6565b95945050505050565b34156101a45760405163b398979f60e01b815260040160405180910390fd5b565b6060826101bb576101b682610205565b6101fe565b81511580156101d257506001600160a01b0384163b155b156101fb57604051639996b31560e01b81526001600160a01b03851660048201526024016100c4565b50805b9392505050565b8051156102155780518082602001fd5b60405163d6bda27560e01b815260040160405180910390fd5b634e487b7160e01b600052604160045260246000fd5b60005b8381101561025f578181015183820152602001610247565b50506000910152565b6000806040838503121561027b57600080fd5b82516001600160a01b038116811461029257600080fd5b60208401519092506001600160401b038111156102ae57600080fd5b8301601f810185136102bf57600080fd5b80516001600160401b038111156102d8576102d861022e565b604051601f8201601f19908116603f011681016001600160401b03811182821017156103065761030661022e565b60405281815282820160200187101561031e57600080fd5b61032f826020830160208601610244565b8093505050509250929050565b6000825161034e818460208701610244565b9190910192915050565b60aa806103666000396000f3fe6080604052600a600c565b005b60186014601a565b6051565b565b6000604c7f360894a13ba1a3210667c828492db98dca3e2076cc3735a920a3ca505d382bbc546001600160a01b031690565b905090565b3660008037600080366000845af43d6000803e808015606f573d6000f35b3d6000fdfea264697066735822122051da5b51f2e43cd956e2b3e18d302642bb371a72f196cc4a9776ab84ef5e725a64736f6c634300081d0033a264697066735822122093dc4c5a75cb6c4cc871dfcb82dda4640229a3fb3f1ea01c00f696ae5a2d24b964736f6c634300081d0033",
  "linkReferences": {},
  "deployedLinkReferences": {}
}