{
  "_format": "hh-sol-artifact-1",
  "contractName": "TokenImplementationV2",
  "sourceName": "contracts/TokenImplementationV2.sol",
  "abi": [
    {
      "inputs": [
        {
          "internalType": "address",
          "name": "target",
          "type": "address"
        }
      ],
      "name": "AddressEmptyCode",
      "type": "error"
    },
    {
      "inputs": [
        {
          "internalType": "address",
          "name": "implementation",
          "type": "address"
        }
      ],
      "name": "ERC1967InvalidImplementation",
      "type": "error"
    },
    {
      "inputs": [],
      "name": "ERC1967NonPayable",
      "type": "error"
    },
    {
      "inputs": [
        {
          "internalType": "address",
          "name": "spender",
          "type": "address"
        },
        {
          "internalType": "uint256",
          "name": "allowance",
          "type": "uint256"
        },
        {
          "internalType": "uint256",
          "name": "needed",
          "type": "uint256"
        }
      ],
      "name": "ERC20InsufficientAllowance",
      "type": "error"
    },
    {
      "inputs": [
        {
          "internalType": "address",
          "name": "sender",
          "type": "address"
        },
        {
          "internalType": "uint256",
          "name": "balance",
          "type": "uint256"
        },
        {
          "internalType": "uint256",
          "name": "needed",
          "type": "uint256"
        }
      ],
      "name": "ERC20InsufficientBalance",
      "type": "error"
    },
    {
      "inputs": [
        {
          "internalType": "address",
          "name": "approver",
          "type": "address"
        }
      ],
      "name": "ERC20InvalidApprover",
      "type": "error"
    },
    {
      "inputs": [
        {
          "internalType": "address",
          "name": "receiver",
          "type": "address"
        }
      ],
      "name": "ERC20InvalidReceiver",
      "type": "error"
    },
    {
      "inputs": [
        {
          "internalType": "address",
          "name": "sender",
          "type": "address"
        }
      ],
      "name": "ERC20InvalidSender",
      "type": "error"
    },
    {
      "inputs": [
        {
          "internalType": "address",
          "name": "spender",
          "type": "address"
        }
      ],
      "name": "ERC20InvalidSpender",
      "type": "error"
    },
    {
      "inputs": [],
      "name": "FailedCall",
      "type": "error"
    },
    {
      "inputs": [],
      "name": "InvalidInitialization",
      "type": "error"
    },
    {
      "inputs": [],
      "name": "NotInitializing",
      "type": "error"
    },
    {
      "inputs": [
        {
          "internalType": "address",
          "name": "owner",
          "type": "address"
        }
      ],
      "name": "OwnableInvalidOwner",
      "type": "error"
    },
    {
      "inputs": [
        {
          "internalType": "address",
          "name": "account",
          "type": "address"
        }
      ],
      "name": "OwnableUnauthorizedAccount",
      "type": "error"
    },
    {
      "inputs": [],
      "name": "UUPSUnauthorizedCallContext",
      "type": "error"
    },
    {
      "inputs": [
        {
          "internalType": "bytes32",
          "name": "slot",
          "type": "bytes32"
        }
      ],
      "name": "UUPSUnsupportedProxiableUUID",
      "type": "error"
    },
    {
      "anonymous": false,
      "inputs": [
        {
          "indexed": true,
          "internalType": "address",
          "name": "owner",
          "type": "address"
        },
        {
          "indexed": true,
          "internalType": "address",
          "name": "spender",
          "type": "address"
        },
        {
          "indexed": false,
          "internalType": "uint256",
          "name": "value",
          "type": "uint256"
        }
      ],
      "name": "Approval",
      "type": "event"
    },
    {
      "anonymous": false,
      "inputs": [
        {
          "indexed": false,
          "internalType": "uint64",
          "name": "version",
          "type": "uint64"
        }
      ],
      "name": "Initialized",
      "type": "event"
    },
    {
      "anonymous": false,
      "inputs": [
        {
          "indexed": true,
          "internalType": "address",
          "name": "previousOwner",
          "type": "address"
        },
        {
          "indexed": true,
          "internalType": "address",
          "name": "newOwner",
          "type": "address"
        }
      ],
      "name": "OwnershipTransferred",
      "type": "event"
    },
    {
      "anonymous": false,
      "inputs": [
        {
          "indexed": true,
          "internalType": "address",
          "name": "from",
          "type": "address"
        },
        {
          "indexed": true,
          "internalType": "address",
          "name": "to",
          "type": "address"
        },
        {
          "indexed": false,
          "internalType": "uint256",
          "name": "value",
          "type": "uint256"
        }
      ],
      "name": "Transfer",
      "type": "event"
    },
    {
      "anonymous": false,
      "inputs": [
        {
          "indexed": true,
          "internalType": "address",
          "name": "implementation",
          "type": "address"
        }
      ],
      "name": "Upgraded",
      "type": "event"
    },
    {
      "inputs": [],
      "name": "UPGRADE_INTERFACE_VERSION",
      "outputs": [
        {
          "internalType": "string",
          "name": "",
          "type": "string"
        }
      ],
      "stateMutability": "view",
      "type": "function"
    },
    {
      "inputs": [
        {
          "internalType": "address",
          "name": "owner",
          "type": "address"
        },
        {
          "internalType": "address",
          "name": "spender",
          "type": "address"
        }
      ],
      "name": "allowance",
      "outputs": [
        {
          "internalType": "uint256",
          "name": "",
          "type": "uint256"
        }
      ],
      "stateMutability": "view",
      "type": "function"
    },
    {
      "inputs": [
        {
          "internalType": "address",
          "name": "spender",
          "type": "address"
        },
        {
          "internalType": "uint256",
          "name": "value",
          "type": "uint256"
        }
      ],
      "name": "approve",
      "outputs": [
        {
          "internalType": "bool",
          "name": "",
          "type": "bool"
        }
      ],
      "stateMutability": "nonpayable",
      "type": "function"
    },
    {
      "inputs": [
        {
          "internalType": "address",
          "name": "account",
          "type": "address"
        }
      ],
      "name": "balanceOf",
      "outputs": [
        {
          "internalType": "uint256",
          "name": "",
          "type": "uint256"
        }
      ],
      "stateMutability": "view",
      "type": "function"
    },
    {
      "inputs": [
        {
          "internalType": "address",
          "name": "account",
          "type": "address"
        }
      ],
      "name": "blacklist",
      "outputs": [],
      "stateMutability": "nonpayable",
      "type": "function"
    },
    {
      "inputs": [
        {
          "internalType": "address",
          "name": "",
          "type": "address"
        }
      ],
      "name": "blacklisted",
      "outputs": [
        {
          "internalType": "bool",
          "name": "",
          "type": "bool"
        }
      ],
      "stateMutability": "view",
      "type": "function"
    },
    {
      "inputs": [
        {
          "internalType": "uint256",
          "name": "amount",
          "type": "uint256"
        }
      ],
      "name": "burn",
      "outputs": [],
      "stateMutability": "nonpayable",
      "type": "function"
    },
    {
      "inputs": [
        {
          "internalType": "address",
          "name": "account",
          "type": "address"
        },
        {
          "internalType": "uint256",
          "name": "amount",
          "type": "uint256"
        }
      ],
      "name": "burnFrom",
      "outputs": [],
      "stateMutability": "nonpayable",
      "type": "function"
    },
    {
      "inputs": [],
      "name": "decimals",
      "outputs": [
        {
          "internalType": "uint8",
          "name": "",
          "type": "uint8"
        }
      ],
      "stateMutability": "view",
      "type": "function"
    },
    {
      "inputs": [
        {
          "internalType": "string",
          "name": "name_",
          "type": "string"
        },
        {
          "internalType": "string",
          "name": "symbol_",
          "type": "string"
        },
        {
          "internalType": "uint8",
          "name": "decimals_",
          "type": "uint8"
        },
        {
          "internalType": "uint256",
          "name": "initialSupply",
          "type": "uint256"
        },
        {
          "internalType": "address",
          "name": "owner",
          "type": "address"
        }
      ],
      "name": "initialize",
      "outputs": [],
      "stateMutability": "nonpayable",
      "type": "function"
    },
    {
      "inputs": [
        {
          "internalType": "uint256",
          "name": "_maxTransferAmount",
          "type": "uint256"
        }
      ],
      "name": "initializeV2",
      "outputs": [],
      "stateMutability": "nonpayable",
      "type": "function"
    },
    {
      "inputs": [],
      "name": "maxTransferAmount",
      "outputs": [
        {
          "internalType": "uint256",
          "name": "",
          "type": "uint256"
        }
      ],
      "stateMutability": "view",
      "type": "function"
    },
    {
      "inputs": [
        {
          "internalType": "address",
          "name": "to",
          "type": "address"
        },
        {
          "internalType": "uint256",
          "name": "amount",
          "type": "uint256"
        }
      ],
      "name": "mint",
      "outputs": [],
      "stateMutability": "nonpayable",
      "type": "function"
    },
    {
      "inputs": [],
      "name": "name",
      "outputs": [
        {
          "internalType": "string",
          "name": "",
          "type": "string"
        }
      ],
      "stateMutability": "view",
      "type": "function"
    },
    {
      "inputs": [],
      "name": "owner",
      "outputs": [
        {
          "internalType": "address",
          "name": "",
          "type": "address"
        }
      ],
      "stateMutability": "view",
      "type": "function"
    },
    {
      "inputs": [],
      "name": "pause",
      "outputs": [],
      "stateMutability": "nonpayable",
      "type": "function"
    },
    {
      "inputs": [],
      "name": "paused",
      "outputs": [
        {
          "internalType": "bool",
          "name": "",
          "type": "bool"
        }
      ],
      "stateMutability": "view",
      "type": "function"
    },
    {
      "inputs": [],
      "name": "proxiableUUID",
      "outputs": [
        {
          "internalType": "bytes32",
          "name": "",
          "type": "bytes32"
        }
      ],
      "stateMutability": "view",
      "type": "function"
    },
    {
      "inputs": [],
      "name": "renounceOwnership",
      "outputs": [],
      "stateMutability": "nonpayable",
      "type": "function"
    },
    {
      "inputs": [
        {
          "internalType": "uint256",
          "name": "amount",
          "type": "uint256"
        }
      ],
      "name": "setMaxTransferAmount",
      "outputs": [],
      "stateMutability": "nonpayable",
      "type": "function"
    },
    {
      "inputs": [],
      "name": "symbol",
      "outputs": [
        {
          "internalType": "string",
          "name": "",
          "type": "string"
        }
      ],
      "stateMutability": "view",
      "type": "function"
    },
    {
      "inputs": [],
      "name": "totalSupply",
      "outputs": [
        {
          "internalType": "uint256",
          "name": "",
          "type": "uint256"
        }
      ],
      "stateMutability": "view",
      "type": "function"
    },
    {
      "inputs": [
        {
          "internalType": "address",
          "name": "to",
          "type": "address"
        },
        {
          "internalType": "uint256",
          "name": "value",
          "type": "uint256"
        }
      ],
      "name": "transfer",
      "outputs": [
        {
          "internalType": "bool",
          "name": "",
          "type": "bool"
        }
      ],
      "stateMutability": "nonpayable",
      "type": "function"
    },
    {
      "inputs": [
        {
          "internalType": "address",
          "name": "from",
          "type": "address"
        },
        {
          "internalType": "address",
          "name": "to",
          "type": "address"
        },
        {
          "internalType": "uint256",
          "name": "value",
          "type": "uint256"
        }
      ],
      "name": "transferFrom",
      "outputs": [
        {
          "internalType": "bool",
          "name": "",
          "type": "bool"
        }
      ],
      "stateMutability": "nonpayable",
      "type": "function"
    },
    {
      "inputs": [
        {
          "internalType": "address",
          "name": "newOwner",
          "type": "address"
        }
      ],
      "name": "transferOwnership",
      "outputs": [],
      "stateMutability": "nonpayable",
      "type": "function"
    },
    {
      "inputs": [
        {
          "internalType": "address",
          "name": "account",
          "type": "address"
        }
      ],
      "name": "unblacklist",
      "outputs": [],
      "stateMutability": "nonpayable",
      "type": "function"
    },
    {
      "inputs": [],
      "name": "unpause",
      "outputs": [],
      "stateMutability": "nonpayable",
      "type": "function"
    },
    {
      "inputs": [
        {
          "internalType": "address",
          "name": "newImplementation",
          "type": "address"
        },
        {
          "internalType": "bytes",
          "name": "data",
          "type": "bytes"
        }
      ],
      "name": "upgradeToAndCall",
      "outputs": [],
      "stateMutability": "payable",
      "type": "function"
    }
  ],
  "bytecode": "0x60a06040523060805234801561001457600080fd5b5061001d610022565b6100d4565b7ff0c57e16840df040f15088dc2f81fe391c3923bec73e23a9662efc9c229c6a00805468010000000000000000900460ff16156100725760405163f92ee8a960e01b815260040160405180910390fd5b80546001600160401b03908116146100d15780546001600160401b0319166001600160401b0390811782556040519081527fc7f505b2f371ae2175ee4913f4499e1f2633a7b5936321eed1cdaeb6115181d29060200160405180910390a15b50565b608051611a0a6100fd60003960008181610c1e01528181610c470152610d880152611a0a6000f3fe6080604052600436106101b75760003560e01c806375e3661e116100ec578063a9e757231161008a578063dd62ed3e11610064578063dd62ed3e14610510578063f2fde38b14610530578063f357181914610550578063f9f92be41461057057600080fd5b8063a9e7572314610499578063ad3cb1cc146104af578063dbac26e9146104e057600080fd5b80638bf55409116100c65780638bf55409146103fd5780638da5cb5b1461041d57806395d89b4114610464578063a9059cbb1461047957600080fd5b806375e3661e146103a857806379cc6790146103c85780638456cb59146103e857600080fd5b806342966c68116101595780635b4e128c116101335780635b4e128c146103165780635c975abb1461033657806370a0823114610350578063715018a61461039357600080fd5b806342966c68146102ce5780634f1ef286146102ee57806352d1902d1461030157600080fd5b806323b872dd1161019557806323b872dd14610255578063313ce567146102755780633f4ba83a1461029757806340c10f19146102ae57600080fd5b806306fdde03146101bc578063095ea7b3146101e757806318160ddd14610217575b600080fd5b3480156101c857600080fd5b506101d1610590565b6040516101de9190611533565b60405180910390f35b3480156101f357600080fd5b50610207610202366004611582565b610653565b60405190151581526020016101de565b34801561022357600080fd5b507f52c63247e1f47db19d5ce0460030c497f067ca4cebf71ba98eeadabe20bace02545b6040519081526020016101de565b34801561026157600080fd5b506102076102703660046115ac565b61066d565b34801561028157600080fd5b5060005460405160ff90911681526020016101de565b3480156102a357600080fd5b506102ac610693565b005b3480156102ba57600080fd5b506102ac6102c9366004611582565b6106a7565b3480156102da57600080fd5b506102ac6102e93660046115e9565b6106bd565b6102ac6102fc366004611692565b6106ca565b34801561030d57600080fd5b506102476106e5565b34801561032257600080fd5b506102ac6103313660046115e9565b610702565b34801561034257600080fd5b506032546102079060ff1681565b34801561035c57600080fd5b5061024761036b3660046116f4565b6001600160a01b03166000908152600080516020611995833981519152602052604090205490565b34801561039f57600080fd5b506102ac6107ca565b3480156103b457600080fd5b506102ac6103c33660046116f4565b6107de565b3480156103d457600080fd5b506102ac6103e3366004611582565b610807565b3480156103f457600080fd5b506102ac61081c565b34801561040957600080fd5b506102ac6104183660046115e9565b610833565b34801561042957600080fd5b507f9016d09d72d40fdae2fd8ceac6b6234c7706214fd39c1cd1e609a0528c199300546040516001600160a01b0390911681526020016101de565b34801561047057600080fd5b506101d1610840565b34801561048557600080fd5b50610207610494366004611582565b61087f565b3480156104a557600080fd5b5061024760345481565b3480156104bb57600080fd5b506101d1604051806040016040528060058152602001640352e302e360dc1b81525081565b3480156104ec57600080fd5b506102076104fb3660046116f4565b60336020526000908152604090205460ff1681565b34801561051c57600080fd5b5061024761052b36600461170f565b61088d565b34801561053c57600080fd5b506102ac61054b3660046116f4565b6108d7565b34801561055c57600080fd5b506102ac61056b366004611762565b610917565b34801561057c57600080fd5b506102ac61058b3660046116f4565b610a48565b7f52c63247e1f47db19d5ce0460030c497f067ca4cebf71ba98eeadabe20bace038054606091600080516020611995833981519152916105cf906117fe565b80601f01602080910402602001604051908101604052809291908181526020018280546105fb906117fe565b80156106485780601f1061061d57610100808354040283529160200191610648565b820191906000526020600020905b81548152906001019060200180831161062b57829003601f168201915b505050505091505090565b600033610661818585610a74565b60019150505b92915050565b60003361067b858285610a86565b610686858585610aed565b60019150505b9392505050565b61069b610b4c565b6032805460ff19169055565b6106af610b4c565b6106b98282610ba7565b5050565b6106c73382610bdd565b50565b6106d2610c13565b6106db82610cb8565b6106b98282610cc0565b60006106ef610d7d565b506000805160206119b583398151915290565b6002600061070e610dc6565b8054909150600160401b900460ff16806107365750805467ffffffffffffffff808416911610155b156107545760405163f92ee8a960e01b815260040160405180910390fd5b805468ffffffffffffffffff191667ffffffffffffffff8316908117600160401b17825560348490556032805460ff19169055815460ff60401b191682556040519081527fc7f505b2f371ae2175ee4913f4499e1f2633a7b5936321eed1cdaeb6115181d29060200160405180910390a1505050565b6107d2610b4c565b6107dc6000610def565b565b6107e6610b4c565b6001600160a01b03166000908152603360205260409020805460ff19169055565b610812823383610a86565b6106b98282610bdd565b610824610b4c565b6032805460ff19166001179055565b61083b610b4c565b603455565b7f52c63247e1f47db19d5ce0460030c497f067ca4cebf71ba98eeadabe20bace048054606091600080516020611995833981519152916105cf906117fe565b600033610661818585610aed565b6001600160a01b0391821660009081527f52c63247e1f47db19d5ce0460030c497f067ca4cebf71ba98eeadabe20bace016020908152604080832093909416825291909152205490565b6108df610b4c565b6001600160a01b03811661090e57604051631e4fbdf760e01b8152600060048201526024015b60405180910390fd5b6106c781610def565b6000610921610dc6565b805490915060ff600160401b820416159067ffffffffffffffff166000811580156109495750825b905060008267ffffffffffffffff1660011480156109665750303b155b905081158015610974575080155b156109925760405163f92ee8a960e01b815260040160405180910390fd5b845467ffffffffffffffff1916600117855583156109bc57845460ff60401b1916600160401b1785555b6109c68a8a610e60565b6109cf86610e72565b6109d7610e83565b6000805460ff191660ff8a1617905586156109f6576109f68688610ba7565b8315610a3c57845460ff60401b19168555604051600181527fc7f505b2f371ae2175ee4913f4499e1f2633a7b5936321eed1cdaeb6115181d29060200160405180910390a15b50505050505050505050565b610a50610b4c565b6001600160a01b03166000908152603360205260409020805460ff19166001179055565b610a818383836001610e8b565b505050565b6000610a92848461088d565b9050600019811015610ae75781811015610ad857604051637dc7a0d960e11b81526001600160a01b03841660048201526024810182905260448101839052606401610905565b610ae784848484036000610e8b565b50505050565b6001600160a01b038316610b1757604051634b637e8f60e11b815260006004820152602401610905565b6001600160a01b038216610b415760405163ec442f0560e01b815260006004820152602401610905565b610a81838383610f73565b33610b7e7f9016d09d72d40fdae2fd8ceac6b6234c7706214fd39c1cd1e609a0528c199300546001600160a01b031690565b6001600160a01b0316146107dc5760405163118cdaa760e01b8152336004820152602401610905565b6001600160a01b038216610bd15760405163ec442f0560e01b815260006004820152602401610905565b6106b960008383610f73565b6001600160a01b038216610c0757604051634b637e8f60e11b815260006004820152602401610905565b6106b982600083610f73565b306001600160a01b037f0000000000000000000000000000000000000000000000000000000000000000161480610c9a57507f00000000000000000000000000000000000000000000000000000000000000006001600160a01b0316610c8e6000805160206119b5833981519152546001600160a01b031690565b6001600160a01b031614155b156107dc5760405163703e46dd60e11b815260040160405180910390fd5b6106c7610b4c565b816001600160a01b03166352d1902d6040518163ffffffff1660e01b8152600401602060405180830381865afa925050508015610d1a575060408051601f3d908101601f19168201909252610d1791810190611838565b60015b610d4257604051634c9c8ce360e01b81526001600160a01b0383166004820152602401610905565b6000805160206119b58339815191528114610d7357604051632a87526960e21b815260048101829052602401610905565b610a818383611164565b306001600160a01b037f000000000000000000000000000000000000000000000000000000000000000016146107dc5760405163703e46dd60e11b815260040160405180910390fd5b6000807ff0c57e16840df040f15088dc2f81fe391c3923bec73e23a9662efc9c229c6a00610667565b7f9016d09d72d40fdae2fd8ceac6b6234c7706214fd39c1cd1e609a0528c19930080546001600160a01b031981166001600160a01b03848116918217845560405192169182907f8be0079c531659141344cd1fd0a4f28419497f9722a3daafe3b4186f6b6457e090600090a3505050565b610e686111ba565b6106b982826111df565b610e7a6111ba565b6106c781611230565b6107dc6111ba565b6000805160206119958339815191526001600160a01b038516610ec45760405163e602df0560e01b815260006004820152602401610905565b6001600160a01b038416610eee57604051634a1406b160e11b815260006004820152602401610905565b6001600160a01b03808616600090815260018301602090815260408083209388168352929052208390558115610f6c57836001600160a01b0316856001600160a01b03167f8c5be1e5ebec7d5bd14f71427d1e84f3dd0314c0f7b2291e5b200ac8c7c3b92585604051610f6391815260200190565b60405180910390a35b5050505050565b60325460ff1615610fe15760405162461bcd60e51b815260206004820152603260248201527f546f6b656e496d706c656d656e746174696f6e56323a20746f6b656e207472616044820152711b9cd9995c881dda1a5b19481c185d5cd95960721b6064820152608401610905565b6001600160a01b03831660009081526033602052604090205460ff161561105f5760405162461bcd60e51b815260206004820152602c60248201527f546f6b656e496d706c656d656e746174696f6e56323a2073656e64657220697360448201526b08189b1858dadb1a5cdd195960a21b6064820152608401610905565b6001600160a01b03821660009081526033602052604090205460ff16156110e05760405162461bcd60e51b815260206004820152602f60248201527f546f6b656e496d706c656d656e746174696f6e56323a20726563697069656e7460448201526e081a5cc8189b1858dadb1a5cdd1959608a1b6064820152608401610905565b60345415611159576034548111156111595760405162461bcd60e51b815260206004820152603660248201527f546f6b656e496d706c656d656e746174696f6e56323a207472616e7366657220604482015275616d6f756e742065786365656473206d6178696d756d60501b6064820152608401610905565b610a81838383611238565b61116d82611376565b6040516001600160a01b038316907fbc7cd75a20ee27fd9adebab32041f755214dbc6bffa90cc0225b39da2e5c2d3b90600090a28051156111b257610a8182826113db565b6106b9611451565b6111c2611470565b6107dc57604051631afcd79f60e31b815260040160405180910390fd5b6111e76111ba565b6000805160206119958339815191527f52c63247e1f47db19d5ce0460030c497f067ca4cebf71ba98eeadabe20bace036112218482611898565b5060048101610ae78382611898565b6108df6111ba565b6000805160206119958339815191526001600160a01b03841661127457818160020160008282546112699190611957565b909155506112e69050565b6001600160a01b038416600090815260208290526040902054828110156112c75760405163391434e360e21b81526001600160a01b03861660048201526024810182905260448101849052606401610905565b6001600160a01b03851660009081526020839052604090209083900390555b6001600160a01b038316611304576002810180548390039055611323565b6001600160a01b03831660009081526020829052604090208054830190555b826001600160a01b0316846001600160a01b03167fddf252ad1be2c89b69c2b068fc378daa952ba7f163c4a11628f55a4df523b3ef8460405161136891815260200190565b60405180910390a350505050565b806001600160a01b03163b6000036113ac57604051634c9c8ce360e01b81526001600160a01b0382166004820152602401610905565b6000805160206119b583398151915280546001600160a01b0319166001600160a01b0392909216919091179055565b6060600080846001600160a01b0316846040516113f89190611978565b600060405180830381855af49150503d8060008114611433576040519150601f19603f3d011682016040523d82523d6000602084013e611438565b606091505b509150915061144885838361148a565b95945050505050565b34156107dc5760405163b398979f60e01b815260040160405180910390fd5b600061147a610dc6565b54600160401b900460ff16919050565b60608261149f5761149a826114e6565b61068c565b81511580156114b657506001600160a01b0384163b155b156114df57604051639996b31560e01b81526001600160a01b0385166004820152602401610905565b508061068c565b8051156114f65780518082602001fd5b60405163d6bda27560e01b815260040160405180910390fd5b60005b8381101561152a578181015183820152602001611512565b50506000910152565b602081526000825180602084015261155281604085016020870161150f565b601f01601f19169190910160400192915050565b80356001600160a01b038116811461157d57600080fd5b919050565b6000806040838503121561159557600080fd5b61159e83611566565b946020939093013593505050565b6000806000606084860312156115c157600080fd5b6115ca84611566565b92506115d860208501611566565b929592945050506040919091013590565b6000602082840312156115fb57600080fd5b5035919050565b634e487b7160e01b600052604160045260246000fd5b60008067ffffffffffffffff84111561163357611633611602565b50604051601f19601f85018116603f0116810181811067ffffffffffffffff8211171561166257611662611602565b60405283815290508082840185101561167a57600080fd5b83836020830137600060208583010152509392505050565b600080604083850312156116a557600080fd5b6116ae83611566565b9150602083013567ffffffffffffffff8111156116ca57600080fd5b8301601f810185136116db57600080fd5b6116ea85823560208401611618565b9150509250929050565b60006020828403121561170657600080fd5b61068c82611566565b6000806040838503121561172257600080fd5b61172b83611566565b915061173960208401611566565b90509250929050565b600082601f83011261175357600080fd5b61068c83833560208501611618565b600080600080600060a0868803121561177a57600080fd5b853567ffffffffffffffff81111561179157600080fd5b61179d88828901611742565b955050602086013567ffffffffffffffff8111156117ba57600080fd5b6117c688828901611742565b945050604086013560ff811681146117dd57600080fd5b9250606086013591506117f260808701611566565b90509295509295909350565b600181811c9082168061181257607f821691505b60208210810361183257634e487b7160e01b600052602260045260246000fd5b50919050565b60006020828403121561184a57600080fd5b5051919050565b601f821115610a8157806000526020600020601f840160051c810160208510156118785750805b601f840160051c820191505b81811015610f6c5760008155600101611884565b815167ffffffffffffffff8111156118b2576118b2611602565b6118c6816118c084546117fe565b84611851565b6020601f8211600181146118fa57600083156118e25750848201515b600019600385901b1c1916600184901b178455610f6c565b600084815260208120601f198516915b8281101561192a578785015182556020948501946001909201910161190a565b50848210156119485786840151600019600387901b60f8161c191681555b50505050600190811b01905550565b8082018082111561066757634e487b7160e01b600052601160045260246000fd5b6000825161198a81846020870161150f565b919091019291505056fe52c63247e1f47db19d5ce0460030c497f067ca4cebf71ba98eeadabe20bace00360894a13ba1a3210667c828492db98dca3e2076cc3735a920a3ca505d382bbca26469706673582212205863a253db39f37749bbc0e8eb763cf5242b0ba751c8e38f74a3b1b27941f85d64736f6c634300081d0033",
  "linkReferences": {},
  "deployedLinkReferences": {}
}