{
  "_format": "hh-sol-artifact-1",
  "contractName": "TokenImplementation",
  "sourceName": "contracts/TokenImplementation.sol",
  "abi": [
    {
      "inputs": [],
      "stateMutability": "nonpayable",
      "type": "constructor"
    },
    {
      "inputs": [
        {
          "internalType": "address",
          "name": "target",
          "type": "address"
        }
      ],
      "name": "AddressEmptyCode",
      "type": "error"
    },
    {
      "inputs": [
        {
          "internalType": "address",
          "name": "implementation",
          "type": "address"
        }
      ],
      "name": "ERC1967InvalidImplementation",
      "type": "error"
    },
    {
      "inputs": [],
      "name": "ERC1967NonPayable",
      "type": "error"
    },
    {
      "inputs": [
        {
          "internalType": "address",
          "name": "spender",
          "type": "address"
        },
        {
          "internalType": "uint256",
          "name": "allowance",
          "type": "uint256"
        },
        {
          "internalType": "uint256",
          "name": "needed",
          "type": "uint256"
        }
      ],
      "name": "ERC20InsufficientAllowance",
      "type": "error"
    },
    {
      "inputs": [
        {
          "internalType": "address",
          "name": "sender",
          "type": "address"
        },
        {
          "internalType": "uint256",
          "name": "balance",
          "type": "uint256"
        },
        {
          "internalType": "uint256",
          "name": "needed",
          "type": "uint256"
        }
      ],
      "name": "ERC20InsufficientBalance",
      "type": "error"
    },
    {
      "inputs": [
        {
          "internalType": "address",
          "name": "approver",
          "type": "address"
        }
      ],
      "name": "ERC20InvalidApprover",
      "type": "error"
    },
    {
      "inputs": [
        {
          "internalType": "address",
          "name": "receiver",
          "type": "address"
        }
      ],
      "name": "ERC20InvalidReceiver",
      "type": "error"
    },
    {
      "inputs": [
        {
          "internalType": "address",
          "name": "sender",
          "type": "address"
        }
      ],
      "name": "ERC20InvalidSender",
      "type": "error"
    },
    {
      "inputs": [
        {
          "internalType": "address",
          "name": "spender",
          "type": "address"
        }
      ],
      "name": "ERC20InvalidSpender",
      "type": "error"
    },
    {
      "inputs": [],
      "name": "FailedCall",
      "type": "error"
    },
    {
      "inputs": [],
      "name": "InvalidInitialization",
      "type": "error"
    },
    {
      "inputs": [],
      "name": "NotInitializing",
      "type": "error"
    },
    {
      "inputs": [
        {
          "internalType": "address",
          "name": "owner",
          "type": "address"
        }
      ],
      "name": "OwnableInvalidOwner",
      "type": "error"
    },
    {
      "inputs": [
        {
          "internalType": "address",
          "name": "account",
          "type": "address"
        }
      ],
      "name": "OwnableUnauthorizedAccount",
      "type": "error"
    },
    {
      "inputs": [],
      "name": "UUPSUnauthorizedCallContext",
      "type": "error"
    },
    {
      "inputs": [
        {
          "internalType": "bytes32",
          "name": "slot",
          "type": "bytes32"
        }
      ],
      "name": "UUPSUnsupportedProxiableUUID",
      "type": "error"
    },
    {
      "anonymous": false,
      "inputs": [
        {
          "indexed": true,
          "internalType": "address",
          "name": "owner",
          "type": "address"
        },
        {
          "indexed": true,
          "internalType": "address",
          "name": "spender",
          "type": "address"
        },
        {
          "indexed": false,
          "internalType": "uint256",
          "name": "value",
          "type": "uint256"
        }
      ],
      "name": "Approval",
      "type": "event"
    },
    {
      "anonymous": false,
      "inputs": [
        {
          "indexed": false,
          "internalType": "uint64",
          "name": "version",
          "type": "uint64"
        }
      ],
      "name": "Initialized",
      "type": "event"
    },
    {
      "anonymous": false,
      "inputs": [
        {
          "indexed": true,
          "internalType": "address",
          "name": "previousOwner",
          "type": "address"
        },
        {
          "indexed": true,
          "internalType": "address",
          "name": "newOwner",
          "type": "address"
        }
      ],
      "name": "OwnershipTransferred",
      "type": "event"
    },
    {
      "anonymous": false,
      "inputs": [
        {
          "indexed": true,
          "internalType": "address",
          "name": "from",
          "type": "address"
        },
        {
          "indexed": true,
          "internalType": "address",
          "name": "to",
          "type": "address"
        },
        {
          "indexed": false,
          "internalType": "uint256",
          "name": "value",
          "type": "uint256"
        }
      ],
      "name": "Transfer",
      "type": "event"
    },
    {
      "anonymous": false,
      "inputs": [
        {
          "indexed": true,
          "internalType": "address",
          "name": "implementation",
          "type": "address"
        }
      ],
      "name": "Upgraded",
      "type": "event"
    },
    {
      "inputs": [],
      "name": "UPGRADE_INTERFACE_VERSION",
      "outputs": [
        {
          "internalType": "string",
          "name": "",
          "type": "string"
        }
      ],
      "stateMutability": "view",
      "type": "function"
    },
    {
      "inputs": [
        {
          "internalType": "address",
          "name": "owner",
          "type": "address"
        },
        {
          "internalType": "address",
          "name": "spender",
          "type": "address"
        }
      ],
      "name": "allowance",
      "outputs": [
        {
          "internalType": "uint256",
          "name": "",
          "type": "uint256"
        }
      ],
      "stateMutability": "view",
      "type": "function"
    },
    {
      "inputs": [
        {
          "internalType": "address",
          "name": "spender",
          "type": "address"
        },
        {
          "internalType": "uint256",
          "name": "value",
          "type": "uint256"
        }
      ],
      "name": "approve",
      "outputs": [
        {
          "internalType": "bool",
          "name": "",
          "type": "bool"
        }
      ],
      "stateMutability": "nonpayable",
      "type": "function"
    },
    {
      "inputs": [
        {
          "internalType": "address",
          "name": "account",
          "type": "address"
        }
      ],
      "name": "balanceOf",
      "outputs": [
        {
          "internalType": "uint256",
          "name": "",
          "type": "uint256"
        }
      ],
      "stateMutability": "view",
      "type": "function"
    },
    {
      "inputs": [
        {
          "internalType": "uint256",
          "name": "amount",
          "type": "uint256"
        }
      ],
      "name": "burn",
      "outputs": [],
      "stateMutability": "nonpayable",
      "type": "function"
    },
    {
      "inputs": [
        {
          "internalType": "address",
          "name": "account",
          "type": "address"
        },
        {
          "internalType": "uint256",
          "name": "amount",
          "type": "uint256"
        }
      ],
      "name": "burnFrom",
      "outputs": [],
      "stateMutability": "nonpayable",
      "type": "function"
    },
    {
      "inputs": [],
      "name": "decimals",
      "outputs": [
        {
          "internalType": "uint8",
          "name": "",
          "type": "uint8"
        }
      ],
      "stateMutability": "view",
      "type": "function"
    },
    {
      "inputs": [
        {
          "internalType": "string",
          "name": "name_",
          "type": "string"
        },
        {
          "internalType": "string",
          "name": "symbol_",
          "type": "string"
        },
        {
          "internalType": "uint8",
          "name": "decimals_",
          "type": "uint8"
        },
        {
          "internalType": "uint256",
          "name": "initialSupply",
          "type": "uint256"
        },
        {
          "internalType": "address",
          "name": "owner",
          "type": "address"
        }
      ],
      "name": "initialize",
      "outputs": [],
      "stateMutability": "nonpayable",
      "type": "function"
    },
    {
      "inputs": [
        {
          "internalType": "address",
          "name": "to",
          "type": "address"
        },
        {
          "internalType": "uint256",
          "name": "amount",
          "type": "uint256"
        }
      ],
      "name": "mint",
      "outputs": [],
      "stateMutability": "nonpayable",
      "type": "function"
    },
    {
      "inputs": [],
      "name": "name",
      "outputs": [
        {
          "internalType": "string",
          "name": "",
          "type": "string"
        }
      ],
      "stateMutability": "view",
      "type": "function"
    },
    {
      "inputs": [],
      "name": "owner",
      "outputs": [
        {
          "internalType": "address",
          "name": "",
          "type": "address"
        }
      ],
      "stateMutability": "view",
      "type": "function"
    },
    {
      "inputs": [],
      "name": "proxiableUUID",
      "outputs": [
        {
          "internalType": "bytes32",
          "name": "",
          "type": "bytes32"
        }
      ],
      "stateMutability": "view",
      "type": "function"
    },
    {
      "inputs": [],
      "name": "renounceOwnership",
      "outputs": [],
      "stateMutability": "nonpayable",
      "type": "function"
    },
    {
      "inputs": [],
      "name": "symbol",
      "outputs": [
        {
          "internalType": "string",
          "name": "",
          "type": "string"
        }
      ],
      "stateMutability": "view",
      "type": "function"
    },
    {
      "inputs": [],
      "name": "totalSupply",
      "outputs": [
        {
          "internalType": "uint256",
          "name": "",
          "type": "uint256"
        }
      ],
      "stateMutability": "view",
      "type": "function"
    },
    {
      "inputs": [
        {
          "internalType": "address",
          "name": "to",
          "type": "address"
        },
        {
          "internalType": "uint256",
          "name": "value",
          "type": "uint256"
        }
      ],
      "name": "transfer",
      "outputs": [
        {
          "internalType": "bool",
          "name": "",
          "type": "bool"
        }
      ],
      "stateMutability": "nonpayable",
      "type": "function"
    },
    {
      "inputs": [
        {
          "internalType": "address",
          "name": "from",
          "type": "address"
        },
        {
          "internalType": "address",
          "name": "to",
          "type": "address"
        },
        {
          "internalType": "uint256",
          "name": "value",
          "type": "uint256"
        }
      ],
      "name": "transferFrom",
      "outputs": [
        {
          "internalType": "bool",
          "name": "",
          "type": "bool"
        }
      ],
      "stateMutability": "nonpayable",
      "type": "function"
    },
    {
      "inputs": [
        {
          "internalType": "address",
          "name": "newOwner",
          "type": "address"
        }
      ],
      "name": "transferOwnership",
      "outputs": [],
      "stateMutability": "nonpayable",
      "type": "function"
    },
    {
      "inputs": [
        {
          "internalType": "address",
          "name": "newImplementation",
          "type": "address"
        },
        {
          "internalType": "bytes",
          "name": "data",
          "type": "bytes"
        }
      ],
      "name": "upgradeToAndCall",
      "outputs": [],
      "stateMutability": "payable",
      "type": "function"
    }
  ],
  "bytecode": "0x60a06040523060805234801561001457600080fd5b5061001d610022565b6100d4565b7ff0c57e16840df040f15088dc2f81fe391c3923bec73e23a9662efc9c229c6a00805468010000000000000000900460ff16156100725760405163f92ee8a960e01b815260040160405180910390fd5b80546001600160401b03908116146100d15780546001600160401b0319166001600160401b0390811782556040519081527fc7f505b2f371ae2175ee4913f4499e1f2633a7b5936321eed1cdaeb6115181d29060200160405180910390a15b50565b6080516115176100fd6000396000818161091c015281816109450152610a8601526115176000f3fe6080604052600436106101145760003560e01c806370a08231116100a0578063a9059cbb11610064578063a9059cbb14610332578063ad3cb1cc14610352578063dd62ed3e14610383578063f2fde38b146103a3578063f3571819146103c357600080fd5b806370a082311461025e578063715018a6146102a157806379cc6790146102b65780638da5cb5b146102d657806395d89b411461031d57600080fd5b8063313ce567116100e7578063313ce567146101d257806340c10f19146101f457806342966c68146102165780634f1ef2861461023657806352d1902d1461024957600080fd5b806306fdde0314610119578063095ea7b31461014457806318160ddd1461017457806323b872dd146101b2575b600080fd5b34801561012557600080fd5b5061012e6103e3565b60405161013b9190611040565b60405180910390f35b34801561015057600080fd5b5061016461015f36600461108f565b6104a6565b604051901515815260200161013b565b34801561018057600080fd5b507f52c63247e1f47db19d5ce0460030c497f067ca4cebf71ba98eeadabe20bace02545b60405190815260200161013b565b3480156101be57600080fd5b506101646101cd3660046110b9565b6104c0565b3480156101de57600080fd5b5060005460405160ff909116815260200161013b565b34801561020057600080fd5b5061021461020f36600461108f565b6104e6565b005b34801561022257600080fd5b506102146102313660046110f6565b6104fc565b61021461024436600461119f565b610509565b34801561025557600080fd5b506101a4610524565b34801561026a57600080fd5b506101a4610279366004611201565b6001600160a01b031660009081526000805160206114a2833981519152602052604090205490565b3480156102ad57600080fd5b50610214610541565b3480156102c257600080fd5b506102146102d136600461108f565b610555565b3480156102e257600080fd5b507f9016d09d72d40fdae2fd8ceac6b6234c7706214fd39c1cd1e609a0528c199300546040516001600160a01b03909116815260200161013b565b34801561032957600080fd5b5061012e61056a565b34801561033e57600080fd5b5061016461034d36600461108f565b6105a9565b34801561035e57600080fd5b5061012e604051806040016040528060058152602001640352e302e360dc1b81525081565b34801561038f57600080fd5b506101a461039e36600461121c565b6105b7565b3480156103af57600080fd5b506102146103be366004611201565b610601565b3480156103cf57600080fd5b506102146103de36600461126f565b610641565b7f52c63247e1f47db19d5ce0460030c497f067ca4cebf71ba98eeadabe20bace0380546060916000805160206114a2833981519152916104229061130b565b80601f016020809104026020016040519081016040528092919081815260200182805461044e9061130b565b801561049b5780601f106104705761010080835404028352916020019161049b565b820191906000526020600020905b81548152906001019060200180831161047e57829003601f168201915b505050505091505090565b6000336104b4818585610772565b60019150505b92915050565b6000336104ce858285610784565b6104d98585856107eb565b60019150505b9392505050565b6104ee61084a565b6104f882826108a5565b5050565b61050633826108db565b50565b610511610911565b61051a826109b6565b6104f882826109be565b600061052e610a7b565b506000805160206114c283398151915290565b61054961084a565b6105536000610ac4565b565b610560823383610784565b6104f882826108db565b7f52c63247e1f47db19d5ce0460030c497f067ca4cebf71ba98eeadabe20bace0480546060916000805160206114a2833981519152916104229061130b565b6000336104b48185856107eb565b6001600160a01b0391821660009081527f52c63247e1f47db19d5ce0460030c497f067ca4cebf71ba98eeadabe20bace016020908152604080832093909416825291909152205490565b61060961084a565b6001600160a01b03811661063857604051631e4fbdf760e01b8152600060048201526024015b60405180910390fd5b61050681610ac4565b600061064b610b35565b805490915060ff600160401b820416159067ffffffffffffffff166000811580156106735750825b905060008267ffffffffffffffff1660011480156106905750303b155b90508115801561069e575080155b156106bc5760405163f92ee8a960e01b815260040160405180910390fd5b845467ffffffffffffffff1916600117855583156106e657845460ff60401b1916600160401b1785555b6106f08a8a610b5e565b6106f986610b70565b610701610b81565b6000805460ff191660ff8a1617905586156107205761072086886108a5565b831561076657845460ff60401b19168555604051600181527fc7f505b2f371ae2175ee4913f4499e1f2633a7b5936321eed1cdaeb6115181d29060200160405180910390a15b50505050505050505050565b61077f8383836001610b89565b505050565b600061079084846105b7565b90506000198110156107e557818110156107d657604051637dc7a0d960e11b81526001600160a01b0384166004820152602481018290526044810183905260640161062f565b6107e584848484036000610b89565b50505050565b6001600160a01b03831661081557604051634b637e8f60e11b81526000600482015260240161062f565b6001600160a01b03821661083f5760405163ec442f0560e01b81526000600482015260240161062f565b61077f838383610c71565b3361087c7f9016d09d72d40fdae2fd8ceac6b6234c7706214fd39c1cd1e609a0528c199300546001600160a01b031690565b6001600160a01b0316146105535760405163118cdaa760e01b815233600482015260240161062f565b6001600160a01b0382166108cf5760405163ec442f0560e01b81526000600482015260240161062f565b6104f860008383610c71565b6001600160a01b03821661090557604051634b637e8f60e11b81526000600482015260240161062f565b6104f882600083610c71565b306001600160a01b037f000000000000000000000000000000000000000000000000000000000000000016148061099857507f00000000000000000000000000000000000000000000000000000000000000006001600160a01b031661098c6000805160206114c2833981519152546001600160a01b031690565b6001600160a01b031614155b156105535760405163703e46dd60e11b815260040160405180910390fd5b61050661084a565b816001600160a01b03166352d1902d6040518163ffffffff1660e01b8152600401602060405180830381865afa925050508015610a18575060408051601f3d908101601f19168201909252610a1591810190611345565b60015b610a4057604051634c9c8ce360e01b81526001600160a01b038316600482015260240161062f565b6000805160206114c28339815191528114610a7157604051632a87526960e21b81526004810182905260240161062f565b61077f8383610daf565b306001600160a01b037f000000000000000000000000000000000000000000000000000000000000000016146105535760405163703e46dd60e11b815260040160405180910390fd5b7f9016d09d72d40fdae2fd8ceac6b6234c7706214fd39c1cd1e609a0528c19930080546001600160a01b031981166001600160a01b03848116918217845560405192169182907f8be0079c531659141344cd1fd0a4f28419497f9722a3daafe3b4186f6b6457e090600090a3505050565b6000807ff0c57e16840df040f15088dc2f81fe391c3923bec73e23a9662efc9c229c6a006104ba565b610b66610e05565b6104f88282610e2a565b610b78610e05565b61050681610e7b565b610553610e05565b6000805160206114a28339815191526001600160a01b038516610bc25760405163e602df0560e01b81526000600482015260240161062f565b6001600160a01b038416610bec57604051634a1406b160e11b81526000600482015260240161062f565b6001600160a01b03808616600090815260018301602090815260408083209388168352929052208390558115610c6a57836001600160a01b0316856001600160a01b03167f8c5be1e5ebec7d5bd14f71427d1e84f3dd0314c0f7b2291e5b200ac8c7c3b92585604051610c6191815260200190565b60405180910390a35b5050505050565b6000805160206114a28339815191526001600160a01b038416610cad5781816002016000828254610ca2919061135e565b90915550610d1f9050565b6001600160a01b03841660009081526020829052604090205482811015610d005760405163391434e360e21b81526001600160a01b0386166004820152602481018290526044810184905260640161062f565b6001600160a01b03851660009081526020839052604090209083900390555b6001600160a01b038316610d3d576002810180548390039055610d5c565b6001600160a01b03831660009081526020829052604090208054830190555b826001600160a01b0316846001600160a01b03167fddf252ad1be2c89b69c2b068fc378daa952ba7f163c4a11628f55a4df523b3ef84604051610da191815260200190565b60405180910390a350505050565b610db882610e83565b6040516001600160a01b038316907fbc7cd75a20ee27fd9adebab32041f755214dbc6bffa90cc0225b39da2e5c2d3b90600090a2805115610dfd5761077f8282610ee8565b6104f8610f5e565b610e0d610f7d565b61055357604051631afcd79f60e31b815260040160405180910390fd5b610e32610e05565b6000805160206114a28339815191527f52c63247e1f47db19d5ce0460030c497f067ca4cebf71ba98eeadabe20bace03610e6c84826113c6565b50600481016107e583826113c6565b610609610e05565b806001600160a01b03163b600003610eb957604051634c9c8ce360e01b81526001600160a01b038216600482015260240161062f565b6000805160206114c283398151915280546001600160a01b0319166001600160a01b0392909216919091179055565b6060600080846001600160a01b031684604051610f059190611485565b600060405180830381855af49150503d8060008114610f40576040519150601f19603f3d011682016040523d82523d6000602084013e610f45565b606091505b5091509150610f55858383610f97565b95945050505050565b34156105535760405163b398979f60e01b815260040160405180910390fd5b6000610f87610b35565b54600160401b900460ff16919050565b606082610fac57610fa782610ff3565b6104df565b8151158015610fc357506001600160a01b0384163b155b15610fec57604051639996b31560e01b81526001600160a01b038516600482015260240161062f565b50806104df565b8051156110035780518082602001fd5b60405163d6bda27560e01b815260040160405180910390fd5b60005b8381101561103757818101518382015260200161101f565b50506000910152565b602081526000825180602084015261105f81604085016020870161101c565b601f01601f19169190910160400192915050565b80356001600160a01b038116811461108a57600080fd5b919050565b600080604083850312156110a257600080fd5b6110ab83611073565b946020939093013593505050565b6000806000606084860312156110ce57600080fd5b6110d784611073565b92506110e560208501611073565b929592945050506040919091013590565b60006020828403121561110857600080fd5b5035919050565b634e487b7160e01b600052604160045260246000fd5b60008067ffffffffffffffff8411156111405761114061110f565b50604051601f19601f85018116603f0116810181811067ffffffffffffffff8211171561116f5761116f61110f565b60405283815290508082840185101561118757600080fd5b83836020830137600060208583010152509392505050565b600080604083850312156111b257600080fd5b6111bb83611073565b9150602083013567ffffffffffffffff8111156111d757600080fd5b8301601f810185136111e857600080fd5b6111f785823560208401611125565b9150509250929050565b60006020828403121561121357600080fd5b6104df82611073565b6000806040838503121561122f57600080fd5b61123883611073565b915061124660208401611073565b90509250929050565b600082601f83011261126057600080fd5b6104df83833560208501611125565b600080600080600060a0868803121561128757600080fd5b853567ffffffffffffffff81111561129e57600080fd5b6112aa8882890161124f565b955050602086013567ffffffffffffffff8111156112c757600080fd5b6112d38882890161124f565b945050604086013560ff811681146112ea57600080fd5b9250606086013591506112ff60808701611073565b90509295509295909350565b600181811c9082168061131f57607f821691505b60208210810361133f57634e487b7160e01b600052602260045260246000fd5b50919050565b60006020828403121561135757600080fd5b5051919050565b808201808211156104ba57634e487b7160e01b600052601160045260246000fd5b601f82111561077f57806000526020600020601f840160051c810160208510156113a65750805b601f840160051c820191505b81811015610c6a57600081556001016113b2565b815167ffffffffffffffff8111156113e0576113e061110f565b6113f4816113ee845461130b565b8461137f565b6020601f82116001811461142857600083156114105750848201515b600019600385901b1c1916600184901b178455610c6a565b600084815260208120601f198516915b828110156114585787850151825560209485019460019092019101611438565b50848210156114765786840151600019600387901b60f8161c191681555b50505050600190811b01905550565b6000825161149781846020870161101c565b919091019291505056fe52c63247e1f47db19d5ce0460030c497f067ca4cebf71ba98eeadabe20bace00360894a13ba1a3210667c828492db98dca3e2076cc3735a920a3ca505d382bbca2646970667358221220038fba908ec303e7ea488d81ba0d967e37cb56119dda9cb5f9ba175f49f0f73664736f6c634300081d0033",
  "linkReferences": {},
  "deployedLinkReferences": {}
}