{
  "_format": "hh-sol-artifact-1",
  "contractName": "RewardPoints",
  "sourceName": "contracts/RewardPoints.sol",
  "abi": [
    {
      "inputs": [],
      "stateMutability": "nonpayable",
      "type": "constructor"
    },
    {
      "inputs": [],
      "name": "AccessControlBadConfirmation",
      "type": "error"
    },
    {
      "inputs": [
        {
          "internalType": "address",
          "name": "account",
          "type": "address"
        },
        {
          "internalType": "bytes32",
          "name": "neededRole",
          "type": "bytes32"
        }
      ],
      "name": "AccessControlUnauthorizedAccount",
      "type": "error"
    },
    {
      "inputs": [
        {
          "internalType": "address",
          "name": "owner",
          "type": "address"
        }
      ],
      "name": "OwnableInvalidOwner",
      "type": "error"
    },
    {
      "inputs": [
        {
          "internalType": "address",
          "name": "account",
          "type": "address"
        }
      ],
      "name": "OwnableUnauthorizedAccount",
      "type": "error"
    },
    {
      "anonymous": false,
      "inputs": [
        {
          "indexed": true,
          "internalType": "address",
          "name": "previousOwner",
          "type": "address"
        },
        {
          "indexed": true,
          "internalType": "address",
          "name": "newOwner",
          "type": "address"
        }
      ],
      "name": "OwnershipTransferred",
      "type": "event"
    },
    {
      "anonymous": false,
      "inputs": [
        {
          "indexed": true,
          "internalType": "address",
          "name": "user",
          "type": "address"
        },
        {
          "indexed": false,
          "internalType": "uint256",
          "name": "amount",
          "type": "uint256"
        },
        {
          "indexed": false,
          "internalType": "string",
          "name": "reason",
          "type": "string"
        }
      ],
      "name": "PointsAwarded",
      "type": "event"
    },
    {
      "anonymous": false,
      "inputs": [
        {
          "indexed": true,
          "internalType": "address",
          "name": "user",
          "type": "address"
        },
        {
          "indexed": false,
          "internalType": "uint256",
          "name": "amount",
          "type": "uint256"
        }
      ],
      "name": "PointsRedeemed",
      "type": "event"
    },
    {
      "anonymous": false,
      "inputs": [
        {
          "indexed": true,
          "internalType": "bytes32",
          "name": "role",
          "type": "bytes32"
        },
        {
          "indexed": true,
          "internalType": "bytes32",
          "name": "previousAdminRole",
          "type": "bytes32"
        },
        {
          "indexed": true,
          "internalType": "bytes32",
          "name": "newAdminRole",
          "type": "bytes32"
        }
      ],
      "name": "RoleAdminChanged",
      "type": "event"
    },
    {
      "anonymous": false,
      "inputs": [
        {
          "indexed": true,
          "internalType": "bytes32",
          "name": "role",
          "type": "bytes32"
        },
        {
          "indexed": true,
          "internalType": "address",
          "name": "account",
          "type": "address"
        },
        {
          "indexed": true,
          "internalType": "address",
          "name": "sender",
          "type": "address"
        }
      ],
      "name": "RoleGranted",
      "type": "event"
    },
    {
      "anonymous": false,
      "inputs": [
        {
          "indexed": true,
          "internalType": "bytes32",
          "name": "role",
          "type": "bytes32"
        },
        {
          "indexed": true,
          "internalType": "address",
          "name": "account",
          "type": "address"
        },
        {
          "indexed": true,
          "internalType": "address",
          "name": "sender",
          "type": "address"
        }
      ],
      "name": "RoleRevoked",
      "type": "event"
    },
    {
      "inputs": [],
      "name": "DEFAULT_ADMIN_ROLE",
      "outputs": [
        {
          "internalType": "bytes32",
          "name": "",
          "type": "bytes32"
        }
      ],
      "stateMutability": "view",
      "type": "function"
    },
    {
      "inputs": [],
      "name": "REWARDER_ROLE",
      "outputs": [
        {
          "internalType": "bytes32",
          "name": "",
          "type": "bytes32"
        }
      ],
      "stateMutability": "view",
      "type": "function"
    },
    {
      "inputs": [
        {
          "internalType": "address",
          "name": "rewarder",
          "type": "address"
        }
      ],
      "name": "addRewarder",
      "outputs": [],
      "stateMutability": "nonpayable",
      "type": "function"
    },
    {
      "inputs": [
        {
          "internalType": "address",
          "name": "user",
          "type": "address"
        },
        {
          "internalType": "uint256",
          "name": "amount",
          "type": "uint256"
        },
        {
          "internalType": "string",
          "name": "reason",
          "type": "string"
        }
      ],
      "name": "awardPoints",
      "outputs": [],
      "stateMutability": "nonpayable",
      "type": "function"
    },
    {
      "inputs": [
        {
          "internalType": "address",
          "name": "user",
          "type": "address"
        }
      ],
      "name": "getPoints",
      "outputs": [
        {
          "internalType": "uint256",
          "name": "",
          "type": "uint256"
        }
      ],
      "stateMutability": "view",
      "type": "function"
    },
    {
      "inputs": [
        {
          "internalType": "bytes32",
          "name": "role",
          "type": "bytes32"
        }
      ],
      "name": "getRoleAdmin",
      "outputs": [
        {
          "internalType": "bytes32",
          "name": "",
          "type": "bytes32"
        }
      ],
      "stateMutability": "view",
      "type": "function"
    },
    {
      "inputs": [],
      "name": "getTotalPoints",
      "outputs": [
        {
          "internalType": "uint256",
          "name": "",
          "type": "uint256"
        }
      ],
      "stateMutability": "view",
      "type": "function"
    },
    {
      "inputs": [
        {
          "internalType": "bytes32",
          "name": "role",
          "type": "bytes32"
        },
        {
          "internalType": "address",
          "name": "account",
          "type": "address"
        }
      ],
      "name": "grantRole",
      "outputs": [],
      "stateMutability": "nonpayable",
      "type": "function"
    },
    {
      "inputs": [
        {
          "internalType": "bytes32",
          "name": "role",
          "type": "bytes32"
        },
        {
          "internalType": "address",
          "name": "account",
          "type": "address"
        }
      ],
      "name": "hasRole",
      "outputs": [
        {
          "internalType": "bool",
          "name": "",
          "type": "bool"
        }
      ],
      "stateMutability": "view",
      "type": "function"
    },
    {
      "inputs": [],
      "name": "owner",
      "outputs": [
        {
          "internalType": "address",
          "name": "",
          "type": "address"
        }
      ],
      "stateMutability": "view",
      "type": "function"
    },
    {
      "inputs": [
        {
          "internalType": "address",
          "name": "user",
          "type": "address"
        },
        {
          "internalType": "uint256",
          "name": "amount",
          "type": "uint256"
        }
      ],
      "name": "redeemPoints",
      "outputs": [],
      "stateMutability": "nonpayable",
      "type": "function"
    },
    {
      "inputs": [
        {
          "internalType": "address",
          "name": "rewarder",
          "type": "address"
        }
      ],
      "name": "removeRewarder",
      "outputs": [],
      "stateMutability": "nonpayable",
      "type": "function"
    },
    {
      "inputs": [],
      "name": "renounceOwnership",
      "outputs": [],
      "stateMutability": "nonpayable",
      "type": "function"
    },
    {
      "inputs": [
        {
          "internalType": "bytes32",
          "name": "role",
          "type": "bytes32"
        },
        {
          "internalType": "address",
          "name": "callerConfirmation",
          "type": "address"
        }
      ],
      "name": "renounceRole",
      "outputs": [],
      "stateMutability": "nonpayable",
      "type": "function"
    },
    {
      "inputs": [
        {
          "internalType": "bytes32",
          "name": "role",
          "type": "bytes32"
        },
        {
          "internalType": "address",
          "name": "account",
          "type": "address"
        }
      ],
      "name": "revokeRole",
      "outputs": [],
      "stateMutability": "nonpayable",
      "type": "function"
    },
    {
      "inputs": [
        {
          "internalType": "address",
          "name": "user",
          "type": "address"
        },
        {
          "internalType": "uint256",
          "name": "amount",
          "type": "uint256"
        }
      ],
      "name": "setUserPoints",
      "outputs": [],
      "stateMutability": "nonpayable",
      "type": "function"
    },
    {
      "inputs": [
        {
          "internalType": "bytes4",
          "name": "interfaceId",
          "type": "bytes4"
        }
      ],
      "name": "supportsInterface",
      "outputs": [
        {
          "internalType": "bool",
          "name": "",
          "type": "bool"
        }
      ],
      "stateMutability": "view",
      "type": "function"
    },
    {
      "inputs": [],
      "name": "totalPoints",
      "outputs": [
        {
          "internalType": "uint256",
          "name": "",
          "type": "uint256"
        }
      ],
      "stateMutability": "view",
      "type": "function"
    },
    {
      "inputs": [
        {
          "internalType": "address",
          "name": "newOwner",
          "type": "address"
        }
      ],
      "name": "transferOwnership",
      "outputs": [],
      "stateMutability": "nonpayable",
      "type": "function"
    },
    {
      "inputs": [
        {
          "internalType": "address",
          "name": "",
          "type": "address"
        }
      ],
      "name": "userPoints",
      "outputs": [
        {
          "internalType": "uint256",
          "name": "",
          "type": "uint256"
        }
      ],
      "stateMutability": "view",
      "type": "function"
    }
  ],
  "bytecode": "0x608060405234801561001057600080fd5b50338061003757604051631e4fbdf760e01b81526000600482015260240160405180910390fd5b6100408161007d565b5061004c6000336100cf565b506100777fbeec13769b5f410b0584f69811bfd923818456d5edcf426b0e31cf90eed7a3f6336100cf565b5061017b565b600180546001600160a01b038381166001600160a01b0319831681179093556040519116919082907f8be0079c531659141344cd1fd0a4f28419497f9722a3daafe3b4186f6b6457e090600090a35050565b6000828152602081815260408083206001600160a01b038516845290915281205460ff16610171576000838152602081815260408083206001600160a01b03861684529091529020805460ff191660011790556101293390565b6001600160a01b0316826001600160a01b0316847f2f8788117e7eff1d82e926ec794901d17c78024a50270940304540a733656f0d60405160405180910390a4506001610175565b5060005b92915050565b610ccd8061018a6000396000f3fe608060405234801561001057600080fd5b506004361061012c5760003560e01c80638da5cb5b116100ad578063cb908b9d11610071578063cb908b9d14610262578063d547741f14610275578063ee204abb14610288578063f2fde38b146102b1578063f50ddbc7146102c457600080fd5b80638da5cb5b1461020657806391d1485414610221578063a217fddf14610234578063a7ea87e21461023c578063b85da8d21461024f57600080fd5b806336568abe116100f457806336568abe146101ba578063567142be146101cd57806356d3590b146101d6578063715018a6146101e95780638580cf76146101f157600080fd5b806301ffc9a714610131578063248a9ca314610159578063290ab9ab1461018a5780632f2ff15d1461019f578063326bfcc1146101b2575b600080fd5b61014461013f36600461098f565b6102e4565b60405190151581526020015b60405180910390f35b61017c6101673660046109c0565b60009081526020819052604090206001015490565b604051908152602001610150565b61019d610198366004610a0b565b61031b565b005b61019d6101ad366004610ade565b610413565b60035461017c565b61019d6101c8366004610ade565b61043e565b61017c60035481565b61019d6101e4366004610b0a565b610476565b61019d610505565b61017c600080516020610c7883398151915281565b6001546040516001600160a01b039091168152602001610150565b61014461022f366004610ade565b610519565b61017c600081565b61019d61024a366004610b25565b610542565b61019d61025d366004610b25565b6105ed565b61019d610270366004610b0a565b610746565b61019d610283366004610ade565b610769565b61017c610296366004610b0a565b6001600160a01b031660009081526002602052604090205490565b61019d6102bf366004610b0a565b61078e565b61017c6102d2366004610b0a565b60026020526000908152604090205481565b60006001600160e01b03198216637965db0b60e01b148061031557506301ffc9a760e01b6001600160e01b03198316145b92915050565b600080516020610c78833981519152610333816107cc565b6001600160a01b0384166103625760405162461bcd60e51b815260040161035990610b4f565b60405180910390fd5b600083116103825760405162461bcd60e51b815260040161035990610b98565b6001600160a01b038416600090815260026020526040812080548592906103aa908490610bfc565b9250508190555082600360008282546103c39190610bfc565b92505081905550836001600160a01b03167f4c3089477cda1ac100291a040b3ac97ff5f55b6d8b2acfb56a59b9419d95ce048484604051610405929190610c0f565b60405180910390a250505050565b60008281526020819052604090206001015461042e816107cc565b61043883836107d6565b50505050565b6001600160a01b03811633146104675760405163334bd91960e11b815260040160405180910390fd5b6104718282610868565b505050565b6000610481816107cc565b6001600160a01b0382166104ed5760405162461bcd60e51b815260206004820152602d60248201527f526577617264506f696e74733a2072657761726465722063616e6e6f7420626560448201526c207a65726f206164647265737360981b6064820152608401610359565b610471600080516020610c78833981519152836107d6565b61050d6108d3565b6105176000610900565b565b6000918252602082815260408084206001600160a01b0393909316845291905290205460ff1690565b600061054d816107cc565b6001600160a01b0383166105735760405162461bcd60e51b815260040161035990610b4f565b6001600160a01b0383166000908152600260205260409020805490839055808311156105bf576105a38184610c64565b600360008282546105b49190610bfc565b909155506104389050565b80831015610438576105d18382610c64565b600360008282546105e29190610c64565b909155505050505050565b600080516020610c78833981519152610605816107cc565b6001600160a01b03831661062b5760405162461bcd60e51b815260040161035990610b4f565b6000821161064b5760405162461bcd60e51b815260040161035990610b98565b6001600160a01b0383166000908152600260205260409020548211156106bd5760405162461bcd60e51b815260206004820152602160248201527f526577617264506f696e74733a20696e73756666696369656e7420706f696e746044820152607360f81b6064820152608401610359565b6001600160a01b038316600090815260026020526040812080548492906106e5908490610c64565b9250508190555081600360008282546106fe9190610c64565b90915550506040518281526001600160a01b038416907fc37df5d14f305277c1289e9a188a097cda6684189c95f785feb056cb77a8c9109060200160405180910390a2505050565b6000610751816107cc565b610471600080516020610c7883398151915283610868565b600082815260208190526040902060010154610784816107cc565b6104388383610868565b6107966108d3565b6001600160a01b0381166107c057604051631e4fbdf760e01b815260006004820152602401610359565b6107c981610900565b50565b6107c98133610952565b60006107e28383610519565b610860576000838152602081815260408083206001600160a01b03861684529091529020805460ff191660011790556108183390565b6001600160a01b0316826001600160a01b0316847f2f8788117e7eff1d82e926ec794901d17c78024a50270940304540a733656f0d60405160405180910390a4506001610315565b506000610315565b60006108748383610519565b15610860576000838152602081815260408083206001600160a01b0386168085529252808320805460ff1916905551339286917ff6391f5c32d9c69d2a47ea670b442974b53935d1edc7fd64eb21e047a839171b9190a4506001610315565b6001546001600160a01b031633146105175760405163118cdaa760e01b8152336004820152602401610359565b600180546001600160a01b038381166001600160a01b0319831681179093556040519116919082907f8be0079c531659141344cd1fd0a4f28419497f9722a3daafe3b4186f6b6457e090600090a35050565b61095c8282610519565b61098b5760405163e2517d3f60e01b81526001600160a01b038216600482015260248101839052604401610359565b5050565b6000602082840312156109a157600080fd5b81356001600160e01b0319811681146109b957600080fd5b9392505050565b6000602082840312156109d257600080fd5b5035919050565b80356001600160a01b03811681146109f057600080fd5b919050565b634e487b7160e01b600052604160045260246000fd5b600080600060608486031215610a2057600080fd5b610a29846109d9565b925060208401359150604084013567ffffffffffffffff811115610a4c57600080fd5b8401601f81018613610a5d57600080fd5b803567ffffffffffffffff811115610a7757610a776109f5565b604051601f8201601f19908116603f0116810167ffffffffffffffff81118282101715610aa657610aa66109f5565b604052818152828201602001881015610abe57600080fd5b816020840160208301376000602083830101528093505050509250925092565b60008060408385031215610af157600080fd5b82359150610b01602084016109d9565b90509250929050565b600060208284031215610b1c57600080fd5b6109b9826109d9565b60008060408385031215610b3857600080fd5b610b41836109d9565b946020939093013593505050565b60208082526029908201527f526577617264506f696e74733a20757365722063616e6e6f74206265207a65726040820152686f206164647265737360b81b606082015260800190565b6020808252602e908201527f526577617264506f696e74733a20616d6f756e74206d7573742062652067726560408201526d61746572207468616e207a65726f60901b606082015260800190565b634e487b7160e01b600052601160045260246000fd5b8082018082111561031557610315610be6565b828152604060208201526000825180604084015260005b81811015610c435760208186018101516060868401015201610c26565b506000606082850101526060601f19601f8301168401019150509392505050565b8181038181111561031557610315610be656febeec13769b5f410b0584f69811bfd923818456d5edcf426b0e31cf90eed7a3f6a26469706673582212208322c0915803987263bc7e9a84d4d8092eca3a1da50b864ecd61d7ab04abc23564736f6c634300081d0033",
  "linkReferences": {},
  "deployedLinkReferences": {}
}